{
  "contractName": "BnbPricePrediction",
  "abi": [
    {
      "inputs": [
        {
          "internalType": "contract AggregatorV3Interface",
          "name": "_oracle",
          "type": "address"
        },
        {
          "internalType": "address",
          "name": "_adminAddress",
          "type": "address"
        },
        {
          "internalType": "address",
          "name": "_operatorAddress",
          "type": "address"
        },
        {
          "internalType": "uint256",
          "name": "_roundTime",
          "type": "uint256"
        },
        {
          "internalType": "uint256",
          "name": "_betTime",
          "type": "uint256"
        },
        {
          "internalType": "uint256",
          "name": "_minBetAmount",
          "type": "uint256"
        },
        {
          "internalType": "uint256",
          "name": "_oracleUpdateAllowance",
          "type": "uint256"
        }
      ],
      "stateMutability": "nonpayable",
      "type": "constructor"
    },
    {
      "anonymous": false,
      "inputs": [
        {
          "indexed": true,
          "internalType": "address",
          "name": "sender",
          "type": "address"
        },
        {
          "indexed": true,
          "internalType": "uint256",
          "name": "currentEpoch",
          "type": "uint256"
        },
        {
          "indexed": false,
          "internalType": "uint256",
          "name": "amount",
          "type": "uint256"
        }
      ],
      "name": "BetBear",
      "type": "event"
    },
    {
      "anonymous": false,
      "inputs": [
        {
          "indexed": true,
          "internalType": "address",
          "name": "sender",
          "type": "address"
        },
        {
          "indexed": true,
          "internalType": "uint256",
          "name": "currentEpoch",
          "type": "uint256"
        },
        {
          "indexed": false,
          "internalType": "uint256",
          "name": "amount",
          "type": "uint256"
        }
      ],
      "name": "BetBull",
      "type": "event"
    },
    {
      "anonymous": false,
      "inputs": [
        {
          "indexed": true,
          "internalType": "address",
          "name": "sender",
          "type": "address"
        },
        {
          "indexed": true,
          "internalType": "uint256",
          "name": "currentEpoch",
          "type": "uint256"
        },
        {
          "indexed": false,
          "internalType": "uint256",
          "name": "amount",
          "type": "uint256"
        }
      ],
      "name": "Claim",
      "type": "event"
    },
    {
      "anonymous": false,
      "inputs": [
        {
          "indexed": false,
          "internalType": "uint256",
          "name": "amount",
          "type": "uint256"
        }
      ],
      "name": "ClaimTreasury",
      "type": "event"
    },
    {
      "anonymous": false,
      "inputs": [
        {
          "indexed": true,
          "internalType": "uint256",
          "name": "epoch",
          "type": "uint256"
        },
        {
          "indexed": false,
          "internalType": "uint256",
          "name": "blockTime",
          "type": "uint256"
        },
        {
          "indexed": false,
          "internalType": "int256",
          "name": "price",
          "type": "int256"
        }
      ],
      "name": "EndRound",
      "type": "event"
    },
    {
      "anonymous": false,
      "inputs": [
        {
          "indexed": true,
          "internalType": "uint256",
          "name": "epoch",
          "type": "uint256"
        },
        {
          "indexed": false,
          "internalType": "uint256",
          "name": "blockTime",
          "type": "uint256"
        },
        {
          "indexed": false,
          "internalType": "int256",
          "name": "price",
          "type": "int256"
        }
      ],
      "name": "LockRound",
      "type": "event"
    },
    {
      "anonymous": false,
      "inputs": [
        {
          "indexed": true,
          "internalType": "uint256",
          "name": "epoch",
          "type": "uint256"
        },
        {
          "indexed": false,
          "internalType": "uint256",
          "name": "minBetAmount",
          "type": "uint256"
        }
      ],
      "name": "MinBetAmountUpdated",
      "type": "event"
    },
    {
      "anonymous": false,
      "inputs": [
        {
          "indexed": true,
          "internalType": "address",
          "name": "previousOwner",
          "type": "address"
        },
        {
          "indexed": true,
          "internalType": "address",
          "name": "newOwner",
          "type": "address"
        }
      ],
      "name": "OwnershipTransferred",
      "type": "event"
    },
    {
      "anonymous": false,
      "inputs": [
        {
          "indexed": false,
          "internalType": "uint256",
          "name": "epoch",
          "type": "uint256"
        }
      ],
      "name": "Pause",
      "type": "event"
    },
    {
      "anonymous": false,
      "inputs": [
        {
          "indexed": false,
          "internalType": "address",
          "name": "account",
          "type": "address"
        }
      ],
      "name": "Paused",
      "type": "event"
    },
    {
      "anonymous": false,
      "inputs": [
        {
          "indexed": true,
          "internalType": "uint256",
          "name": "epoch",
          "type": "uint256"
        },
        {
          "indexed": false,
          "internalType": "uint256",
          "name": "rewardRate",
          "type": "uint256"
        },
        {
          "indexed": false,
          "internalType": "uint256",
          "name": "treasuryRate",
          "type": "uint256"
        }
      ],
      "name": "RatesUpdated",
      "type": "event"
    },
    {
      "anonymous": false,
      "inputs": [
        {
          "indexed": true,
          "internalType": "uint256",
          "name": "epoch",
          "type": "uint256"
        },
        {
          "indexed": false,
          "internalType": "uint256",
          "name": "rewardBaseCalAmount",
          "type": "uint256"
        },
        {
          "indexed": false,
          "internalType": "uint256",
          "name": "rewardAmount",
          "type": "uint256"
        },
        {
          "indexed": false,
          "internalType": "uint256",
          "name": "treasuryAmount",
          "type": "uint256"
        }
      ],
      "name": "RewardsCalculated",
      "type": "event"
    },
    {
      "anonymous": false,
      "inputs": [
        {
          "indexed": true,
          "internalType": "uint256",
          "name": "epoch",
          "type": "uint256"
        },
        {
          "indexed": false,
          "internalType": "uint256",
          "name": "blockTime",
          "type": "uint256"
        }
      ],
      "name": "StartRound",
      "type": "event"
    },
    {
      "anonymous": false,
      "inputs": [
        {
          "indexed": false,
          "internalType": "uint256",
          "name": "epoch",
          "type": "uint256"
        }
      ],
      "name": "Unpause",
      "type": "event"
    },
    {
      "anonymous": false,
      "inputs": [
        {
          "indexed": false,
          "internalType": "address",
          "name": "account",
          "type": "address"
        }
      ],
      "name": "Unpaused",
      "type": "event"
    },
    {
      "inputs": [],
      "name": "TOTAL_RATE",
      "outputs": [
        {
          "internalType": "uint256",
          "name": "",
          "type": "uint256"
        }
      ],
      "stateMutability": "view",
      "type": "function"
    },
    {
      "inputs": [],
      "name": "adminAddress",
      "outputs": [
        {
          "internalType": "address",
          "name": "",
          "type": "address"
        }
      ],
      "stateMutability": "view",
      "type": "function"
    },
    {
      "inputs": [],
      "name": "betTime",
      "outputs": [
        {
          "internalType": "uint256",
          "name": "",
          "type": "uint256"
        }
      ],
      "stateMutability": "view",
      "type": "function"
    },
    {
      "inputs": [],
      "name": "currentEpoch",
      "outputs": [
        {
          "internalType": "uint256",
          "name": "",
          "type": "uint256"
        }
      ],
      "stateMutability": "view",
      "type": "function"
    },
    {
      "inputs": [],
      "name": "genesisLockOnce",
      "outputs": [
        {
          "internalType": "bool",
          "name": "",
          "type": "bool"
        }
      ],
      "stateMutability": "view",
      "type": "function"
    },
    {
      "inputs": [],
      "name": "genesisStartOnce",
      "outputs": [
        {
          "internalType": "bool",
          "name": "",
          "type": "bool"
        }
      ],
      "stateMutability": "view",
      "type": "function"
    },
    {
      "inputs": [
        {
          "internalType": "uint256",
          "name": "",
          "type": "uint256"
        },
        {
          "internalType": "address",
          "name": "",
          "type": "address"
        }
      ],
      "name": "ledger",
      "outputs": [
        {
          "internalType": "enum BnbPricePrediction.Position",
          "name": "position",
          "type": "uint8"
        },
        {
          "internalType": "uint256",
          "name": "amount",
          "type": "uint256"
        },
        {
          "internalType": "bool",
          "name": "claimed",
          "type": "bool"
        }
      ],
      "stateMutability": "view",
      "type": "function"
    },
    {
      "inputs": [],
      "name": "minBetAmount",
      "outputs": [
        {
          "internalType": "uint256",
          "name": "",
          "type": "uint256"
        }
      ],
      "stateMutability": "view",
      "type": "function"
    },
    {
      "inputs": [],
      "name": "operatorAddress",
      "outputs": [
        {
          "internalType": "address",
          "name": "",
          "type": "address"
        }
      ],
      "stateMutability": "view",
      "type": "function"
    },
    {
      "inputs": [],
      "name": "oracleLatestRoundId",
      "outputs": [
        {
          "internalType": "uint256",
          "name": "",
          "type": "uint256"
        }
      ],
      "stateMutability": "view",
      "type": "function"
    },
    {
      "inputs": [],
      "name": "oracleUpdateAllowance",
      "outputs": [
        {
          "internalType": "uint256",
          "name": "",
          "type": "uint256"
        }
      ],
      "stateMutability": "view",
      "type": "function"
    },
    {
      "inputs": [],
      "name": "owner",
      "outputs": [
        {
          "internalType": "address",
          "name": "",
          "type": "address"
        }
      ],
      "stateMutability": "view",
      "type": "function"
    },
    {
      "inputs": [],
      "name": "paused",
      "outputs": [
        {
          "internalType": "bool",
          "name": "",
          "type": "bool"
        }
      ],
      "stateMutability": "view",
      "type": "function"
    },
    {
      "inputs": [],
      "name": "renounceOwnership",
      "outputs": [],
      "stateMutability": "nonpayable",
      "type": "function"
    },
    {
      "inputs": [],
      "name": "rewardRate",
      "outputs": [
        {
          "internalType": "uint256",
          "name": "",
          "type": "uint256"
        }
      ],
      "stateMutability": "view",
      "type": "function"
    },
    {
      "inputs": [],
      "name": "roundTime",
      "outputs": [
        {
          "internalType": "uint256",
          "name": "",
          "type": "uint256"
        }
      ],
      "stateMutability": "view",
      "type": "function"
    },
    {
      "inputs": [
        {
          "internalType": "uint256",
          "name": "",
          "type": "uint256"
        }
      ],
      "name": "rounds",
      "outputs": [
        {
          "internalType": "uint256",
          "name": "epoch",
          "type": "uint256"
        },
        {
          "internalType": "uint256",
          "name": "startTime",
          "type": "uint256"
        },
        {
          "internalType": "uint256",
          "name": "lockTime",
          "type": "uint256"
        },
        {
          "internalType": "uint256",
          "name": "endTime",
          "type": "uint256"
        },
        {
          "internalType": "int256",
          "name": "lockPrice",
          "type": "int256"
        },
        {
          "internalType": "int256",
          "name": "closePrice",
          "type": "int256"
        },
        {
          "internalType": "uint256",
          "name": "totalAmount",
          "type": "uint256"
        },
        {
          "internalType": "uint256",
          "name": "bullAmount",
          "type": "uint256"
        },
        {
          "internalType": "uint256",
          "name": "bearAmount",
          "type": "uint256"
        },
        {
          "internalType": "uint256",
          "name": "rewardBaseCalAmount",
          "type": "uint256"
        },
        {
          "internalType": "uint256",
          "name": "rewardAmount",
          "type": "uint256"
        },
        {
          "internalType": "bool",
          "name": "oracleCalled",
          "type": "bool"
        }
      ],
      "stateMutability": "view",
      "type": "function"
    },
    {
      "inputs": [
        {
          "internalType": "address",
          "name": "newOwner",
          "type": "address"
        }
      ],
      "name": "transferOwnership",
      "outputs": [],
      "stateMutability": "nonpayable",
      "type": "function"
    },
    {
      "inputs": [],
      "name": "treasuryAmount",
      "outputs": [
        {
          "internalType": "uint256",
          "name": "",
          "type": "uint256"
        }
      ],
      "stateMutability": "view",
      "type": "function"
    },
    {
      "inputs": [],
      "name": "treasuryRate",
      "outputs": [
        {
          "internalType": "uint256",
          "name": "",
          "type": "uint256"
        }
      ],
      "stateMutability": "view",
      "type": "function"
    },
    {
      "inputs": [
        {
          "internalType": "address",
          "name": "",
          "type": "address"
        },
        {
          "internalType": "uint256",
          "name": "",
          "type": "uint256"
        }
      ],
      "name": "userRounds",
      "outputs": [
        {
          "internalType": "uint256",
          "name": "",
          "type": "uint256"
        }
      ],
      "stateMutability": "view",
      "type": "function"
    },
    {
      "inputs": [
        {
          "internalType": "address",
          "name": "_adminAddress",
          "type": "address"
        }
      ],
      "name": "setAdmin",
      "outputs": [],
      "stateMutability": "nonpayable",
      "type": "function"
    },
    {
      "inputs": [
        {
          "internalType": "address",
          "name": "_operatorAddress",
          "type": "address"
        }
      ],
      "name": "setOperator",
      "outputs": [],
      "stateMutability": "nonpayable",
      "type": "function"
    },
    {
      "inputs": [
        {
          "internalType": "uint256",
          "name": "_roundTime",
          "type": "uint256"
        }
      ],
      "name": "setRoundTime",
      "outputs": [],
      "stateMutability": "nonpayable",
      "type": "function"
    },
    {
      "inputs": [
        {
          "internalType": "uint256",
          "name": "_betTime",
          "type": "uint256"
        }
      ],
      "name": "setBetTime",
      "outputs": [],
      "stateMutability": "nonpayable",
      "type": "function"
    },
    {
      "inputs": [
        {
          "internalType": "address",
          "name": "_oracle",
          "type": "address"
        }
      ],
      "name": "setOracle",
      "outputs": [],
      "stateMutability": "nonpayable",
      "type": "function"
    },
    {
      "inputs": [
        {
          "internalType": "uint256",
          "name": "_oracleUpdateAllowance",
          "type": "uint256"
        }
      ],
      "name": "setOracleUpdateAllowance",
      "outputs": [],
      "stateMutability": "nonpayable",
      "type": "function"
    },
    {
      "inputs": [
        {
          "internalType": "uint256",
          "name": "_rewardRate",
          "type": "uint256"
        }
      ],
      "name": "setRewardRate",
      "outputs": [],
      "stateMutability": "nonpayable",
      "type": "function"
    },
    {
      "inputs": [
        {
          "internalType": "uint256",
          "name": "_treasuryRate",
          "type": "uint256"
        }
      ],
      "name": "setTreasuryRate",
      "outputs": [],
      "stateMutability": "nonpayable",
      "type": "function"
    },
    {
      "inputs": [
        {
          "internalType": "uint256",
          "name": "_minBetAmount",
          "type": "uint256"
        }
      ],
      "name": "setMinBetAmount",
      "outputs": [],
      "stateMutability": "nonpayable",
      "type": "function"
    },
    {
      "inputs": [],
      "name": "genesisStartRound",
      "outputs": [],
      "stateMutability": "nonpayable",
      "type": "function"
    },
    {
      "inputs": [],
      "name": "genesisLockRound",
      "outputs": [],
      "stateMutability": "nonpayable",
      "type": "function"
    },
    {
      "inputs": [],
      "name": "lockRound",
      "outputs": [],
      "stateMutability": "nonpayable",
      "type": "function"
    },
    {
      "inputs": [],
      "name": "nextRound",
      "outputs": [],
      "stateMutability": "nonpayable",
      "type": "function"
    },
    {
      "inputs": [],
      "name": "betBear",
      "outputs": [],
      "stateMutability": "payable",
      "type": "function"
    },
    {
      "inputs": [],
      "name": "betBull",
      "outputs": [],
      "stateMutability": "payable",
      "type": "function"
    },
    {
      "inputs": [
        {
          "internalType": "uint256",
          "name": "epoch",
          "type": "uint256"
        }
      ],
      "name": "claim",
      "outputs": [],
      "stateMutability": "nonpayable",
      "type": "function"
    },
    {
      "inputs": [],
      "name": "claimTreasury",
      "outputs": [],
      "stateMutability": "nonpayable",
      "type": "function"
    },
    {
      "inputs": [
        {
          "internalType": "address",
          "name": "user",
          "type": "address"
        },
        {
          "internalType": "uint256",
          "name": "cursor",
          "type": "uint256"
        },
        {
          "internalType": "uint256",
          "name": "size",
          "type": "uint256"
        }
      ],
      "name": "getUserRounds",
      "outputs": [
        {
          "internalType": "uint256[]",
          "name": "",
          "type": "uint256[]"
        },
        {
          "internalType": "uint256",
          "name": "",
          "type": "uint256"
        }
      ],
      "stateMutability": "view",
      "type": "function"
    },
    {
      "inputs": [],
      "name": "pause",
      "outputs": [],
      "stateMutability": "nonpayable",
      "type": "function"
    },
    {
      "inputs": [],
      "name": "unpause",
      "outputs": [],
      "stateMutability": "nonpayable",
      "type": "function"
    },
    {
      "inputs": [
        {
          "internalType": "uint256",
          "name": "epoch",
          "type": "uint256"
        },
        {
          "internalType": "address",
          "name": "user",
          "type": "address"
        }
      ],
      "name": "claimable",
      "outputs": [
        {
          "internalType": "bool",
          "name": "",
          "type": "bool"
        }
      ],
      "stateMutability": "view",
      "type": "function"
    },
    {
      "inputs": [
        {
          "internalType": "uint256",
          "name": "epoch",
          "type": "uint256"
        },
        {
          "internalType": "address",
          "name": "user",
          "type": "address"
        }
      ],
      "name": "refundable",
      "outputs": [
        {
          "internalType": "bool",
          "name": "",
          "type": "bool"
        }
      ],
      "stateMutability": "view",
      "type": "function"
    }
  ],
  "bytecode": "0x60806040526060600c556004600d556000601060006101000a81548160ff0219169083151502179055506000601060016101000a81548160ff0219169083151502179055503480156200005157600080fd5b5060405162005e3d38038062005e3d83398181016040528101906200007791906200027a565b6000620000896200022d60201b60201c565b9050806000806101000a81548173ffffffffffffffffffffffffffffffffffffffff021916908373ffffffffffffffffffffffffffffffffffffffff1602179055508073ffffffffffffffffffffffffffffffffffffffff16600073ffffffffffffffffffffffffffffffffffffffff167f8be0079c531659141344cd1fd0a4f28419497f9722a3daafe3b4186f6b6457e060405160405180910390a35060008060146101000a81548160ff02191690831515021790555086600a60006101000a81548173ffffffffffffffffffffffffffffffffffffffff021916908373ffffffffffffffffffffffffffffffffffffffff16021790555085600760006101000a81548173ffffffffffffffffffffffffffffffffffffffff021916908373ffffffffffffffffffffffffffffffffffffffff16021790555084600860006101000a81548173ffffffffffffffffffffffffffffffffffffffff021916908373ffffffffffffffffffffffffffffffffffffffff160217905550836005819055508260068190555081600e8190555080600f8190555050505050505050620003d2565b600033905090565b600081519050620002468162000384565b92915050565b6000815190506200025d816200039e565b92915050565b6000815190506200027481620003b8565b92915050565b600080600080600080600060e0888a0312156200029c576200029b6200037f565b5b6000620002ac8a828b016200024c565b9750506020620002bf8a828b0162000235565b9650506040620002d28a828b0162000235565b9550506060620002e58a828b0162000263565b9450506080620002f88a828b0162000263565b93505060a06200030b8a828b0162000263565b92505060c06200031e8a828b0162000263565b91505092959891949750929550565b60006200033a8262000355565b9050919050565b60006200034e826200032d565b9050919050565b600073ffffffffffffffffffffffffffffffffffffffff82169050919050565b6000819050919050565b600080fd5b6200038f816200032d565b81146200039b57600080fd5b50565b620003a98162000341565b8114620003b557600080fd5b50565b620003c38162000375565b8114620003cf57600080fd5b50565b615a5b80620003e26000396000f3fe60806040526004361061025a5760003560e01c8063821daba111610144578063d0bf9c54116100b6578063ee5f8c8f1161007a578063ee5f8c8f1461081c578063f2fde38b14610847578063f7fdec2814610870578063fa65cb041461089b578063fa968eea146108c4578063fc6f9468146108ef5761025a565b8063d0bf9c5414610749578063d9d55eac14610772578063dd1f759614610789578063e4b72516146107c6578063ec324703146107f15761025a565b80639e447fc6116101085780639e447fc61461063b578063a0c7f71c14610664578063b29c299b146106a1578063b3ab15fb146106cc578063c10ba76b146106f5578063cf2f5039146107205761025a565b8063821daba1146105695780638456cb59146105735780638c65c81f1461058a5780638da5cb5b146105d2578063951fd600146105fd5761025a565b806360554011116101dd5780637285c58b116101a15780637285c58b14610457578063728af96f1461049657806376671808146104ad5780637adbf973146104d85780637b0a47ee146105015780637bf412541461052c5761025a565b8063605540111461039a5780636c188593146103c5578063704b6c02146103ee5780637092289614610417578063715018a6146104405761025a565b8063379607f511610224578063379607f5146103015780633f4ba83a1461032a578063452fd75a1461034157806347e40553146103585780635c975abb1461036f5761025a565b80623bdc741461025f57806288160f146102765780630f74174f14610280578063127effb2146102ab578063368acb09146102d6575b600080fd5b34801561026b57600080fd5b5061027461091a565b005b61027e610a1f565b005b34801561028c57600080fd5b50610295610deb565b6040516102a29190614704565b60405180910390f35b3480156102b757600080fd5b506102c0610dfe565b6040516102cd91906146b9565b60405180910390f35b3480156102e257600080fd5b506102eb610e24565b6040516102f89190614c16565b60405180910390f35b34801561030d57600080fd5b5061032860048036038101906103239190613f97565b610e2a565b005b34801561033657600080fd5b5061033f61134d565b005b34801561034d57600080fd5b5061035661149d565b005b34801561036457600080fd5b5061036d611602565b005b34801561037b57600080fd5b50610384611787565b6040516103919190614704565b60405180910390f35b3480156103a657600080fd5b506103af61179d565b6040516103bc9190614c16565b60405180910390f35b3480156103d157600080fd5b506103ec60048036038101906103e79190613f97565b6117a3565b005b3480156103fa57600080fd5b5061041560048036038101906104109190613ed7565b611879565b005b34801561042357600080fd5b5061043e60048036038101906104399190613f97565b6119a9565b005b34801561044c57600080fd5b50610455611a88565b005b34801561046357600080fd5b5061047e60048036038101906104799190613fc4565b611bc2565b60405161048d9392919061471f565b60405180910390f35b3480156104a257600080fd5b506104ab611c13565b005b3480156104b957600080fd5b506104c2611d06565b6040516104cf9190614c16565b60405180910390f35b3480156104e457600080fd5b506104ff60048036038101906104fa9190613ed7565b611d0c565b005b34801561050d57600080fd5b50610516611e50565b6040516105239190614c16565b60405180910390f35b34801561053857600080fd5b50610553600480360381019061054e9190613fc4565b611e56565b6040516105609190614704565b60405180910390f35b610571612007565b005b34801561057f57600080fd5b506105886123d3565b005b34801561059657600080fd5b506105b160048036038101906105ac9190613f97565b612546565b6040516105c99c9b9a99989796959493929190614cba565b60405180910390f35b3480156105de57600080fd5b506105e76125b3565b6040516105f491906146b9565b60405180910390f35b34801561060957600080fd5b50610624600480360381019061061f9190613f44565b6125dc565b6040516106329291906146d4565b60405180910390f35b34801561064757600080fd5b50610662600480360381019061065d9190613f97565b612797565b005b34801561067057600080fd5b5061068b60048036038101906106869190613fc4565b6128cf565b6040516106989190614704565b60405180910390f35b3480156106ad57600080fd5b506106b6612ae9565b6040516106c39190614c16565b60405180910390f35b3480156106d857600080fd5b506106f360048036038101906106ee9190613ed7565b612aee565b005b34801561070157600080fd5b5061070a612c32565b6040516107179190614c16565b60405180910390f35b34801561072c57600080fd5b5061074760048036038101906107429190613f97565b612c38565b005b34801561075557600080fd5b50610770600480360381019061076b9190613f97565b612cd2565b005b34801561077e57600080fd5b50610787612e0a565b005b34801561079557600080fd5b506107b060048036038101906107ab9190613f04565b613026565b6040516107bd9190614c16565b60405180910390f35b3480156107d257600080fd5b506107db613057565b6040516107e89190614c16565b60405180910390f35b3480156107fd57600080fd5b5061080661305d565b6040516108139190614c16565b60405180910390f35b34801561082857600080fd5b50610831613063565b60405161083e9190614c16565b60405180910390f35b34801561085357600080fd5b5061086e60048036038101906108699190613ed7565b613069565b005b34801561087c57600080fd5b50610885613212565b6040516108929190614704565b60405180910390f35b3480156108a757600080fd5b506108c260048036038101906108bd9190613f97565b613225565b005b3480156108d057600080fd5b506108d96132bf565b6040516108e69190614c16565b60405180910390f35b3480156108fb57600080fd5b506109046132c5565b60405161091191906146b9565b60405180910390f35b600760009054906101000a900473ffffffffffffffffffffffffffffffffffffffff1673ffffffffffffffffffffffffffffffffffffffff163373ffffffffffffffffffffffffffffffffffffffff16146109aa576040517f08c379a00000000000000000000000000000000000000000000000000000000081526004016109a190614a96565b60405180910390fd5b6000600954905060006009819055506109e5600760009054906101000a900473ffffffffffffffffffffffffffffffffffffffff16826132eb565b7f609175abb7f12481e4f200d1ef4fc834e6caac3d9eadba42d664352f6d0932ca81604051610a149190614c16565b60405180910390a150565b610a27611787565b15610a67576040517f08c379a0000000000000000000000000000000000000000000000000000000008152600401610a5e90614916565b60405180910390fd5b610a70336133a0565b15610ab0576040517f08c379a0000000000000000000000000000000000000000000000000000000008152600401610aa790614a16565b60405180910390fd5b3273ffffffffffffffffffffffffffffffffffffffff163373ffffffffffffffffffffffffffffffffffffffff1614610b1e576040517f08c379a0000000000000000000000000000000000000000000000000000000008152600401610b1590614756565b60405180910390fd5b610b296004546133b3565b610b68576040517f08c379a0000000000000000000000000000000000000000000000000000000008152600401610b5f90614a36565b60405180910390fd5b600e54341015610bad576040517f08c379a0000000000000000000000000000000000000000000000000000000008152600401610ba4906148d6565b60405180910390fd5b600060026000600454815260200190815260200160002060003373ffffffffffffffffffffffffffffffffffffffff1673ffffffffffffffffffffffffffffffffffffffff1681526020019081526020016000206001015414610c45576040517f08c379a0000000000000000000000000000000000000000000000000000000008152600401610c3c90614b76565b60405180910390fd5b600034905060006001600060045481526020019081526020016000209050610c7a82826006015461343b90919063ffffffff16565b8160060181905550610c9982826008015461343b90919063ffffffff16565b8160080181905550600060026000600454815260200190815260200160002060003373ffffffffffffffffffffffffffffffffffffffff1673ffffffffffffffffffffffffffffffffffffffff168152602001908152602001600020905060018160000160006101000a81548160ff02191690836001811115610d1f57610d1e615012565b5b0217905550828160010181905550600360003373ffffffffffffffffffffffffffffffffffffffff1673ffffffffffffffffffffffffffffffffffffffff16815260200190815260200160002060045490806001815401808255809150506001900390600052602060002001600090919091909150556004543373ffffffffffffffffffffffffffffffffffffffff167f0d8c1fe3e67ab767116a81f122b83c2557a8c2564019cb7c4f83de1aeb1f1f0d85604051610dde9190614c16565b60405180910390a3505050565b601060019054906101000a900460ff1681565b600860009054906101000a900473ffffffffffffffffffffffffffffffffffffffff1681565b60095481565b610e33336133a0565b15610e73576040517f08c379a0000000000000000000000000000000000000000000000000000000008152600401610e6a90614a16565b60405180910390fd5b3273ffffffffffffffffffffffffffffffffffffffff163373ffffffffffffffffffffffffffffffffffffffff1614610ee1576040517f08c379a0000000000000000000000000000000000000000000000000000000008152600401610ed890614756565b60405180910390fd5b600060016000838152602001908152602001600020600101541415610f3b576040517f08c379a0000000000000000000000000000000000000000000000000000000008152600401610f3290614b36565b60405180910390fd5b60016000828152602001908152602001600020600301544211610f93576040517f08c379a0000000000000000000000000000000000000000000000000000000008152600401610f8a906148f6565b60405180910390fd5b6002600082815260200190815260200160002060003373ffffffffffffffffffffffffffffffffffffffff1673ffffffffffffffffffffffffffffffffffffffff16815260200190815260200160002060020160009054906101000a900460ff1615611034576040517f08c379a000000000000000000000000000000000000000000000000000000000815260040161102b90614bf6565b60405180910390fd5b600060016000838152602001908152602001600020600b0160009054906101000a900460ff16156111de5761106982336128cf565b6110a8576040517f08c379a000000000000000000000000000000000000000000000000000000000815260040161109f90614836565b60405180910390fd5b6000600160008481526020019081526020016000206040518061018001604052908160008201548152602001600182015481526020016002820154815260200160038201548152602001600482015481526020016005820154815260200160068201548152602001600782015481526020016008820154815260200160098201548152602001600a8201548152602001600b820160009054906101000a900460ff16151515158152505090506111d68161012001516111c88361014001516002600088815260200190815260200160002060003373ffffffffffffffffffffffffffffffffffffffff1673ffffffffffffffffffffffffffffffffffffffff1681526020019081526020016000206001015461345190919063ffffffff16565b61346790919063ffffffff16565b91505061127e565b6111e88233611e56565b611227576040517f08c379a000000000000000000000000000000000000000000000000000000000815260040161121e90614796565b60405180910390fd5b6002600083815260200190815260200160002060003373ffffffffffffffffffffffffffffffffffffffff1673ffffffffffffffffffffffffffffffffffffffff1681526020019081526020016000206001015490505b60006002600084815260200190815260200160002060003373ffffffffffffffffffffffffffffffffffffffff1673ffffffffffffffffffffffffffffffffffffffff168152602001908152602001600020905060018160020160006101000a81548160ff0219169083151502179055506112f933836132eb565b823373ffffffffffffffffffffffffffffffffffffffff167f34fcbac0073d7c3d388e51312faf357774904998eeb8fca628b9e6f65ee1cbf7846040516113409190614c16565b60405180910390a3505050565b600760009054906101000a900473ffffffffffffffffffffffffffffffffffffffff1673ffffffffffffffffffffffffffffffffffffffff163373ffffffffffffffffffffffffffffffffffffffff16146113dd576040517f08c379a00000000000000000000000000000000000000000000000000000000081526004016113d490614a96565b60405180910390fd5b6113e5611787565b611424576040517f08c379a000000000000000000000000000000000000000000000000000000000815260040161141b90614776565b60405180910390fd5b6000601060006101000a81548160ff0219169083151502179055506000601060016101000a81548160ff02191690831515021790555061146261347d565b7faaa520fdd7d2c83061d632fa017b0432407e798818af63ea908589fceda39ab76004546040516114939190614c16565b60405180910390a1565b600860009054906101000a900473ffffffffffffffffffffffffffffffffffffffff1673ffffffffffffffffffffffffffffffffffffffff163373ffffffffffffffffffffffffffffffffffffffff161461152d576040517f08c379a000000000000000000000000000000000000000000000000000000000815260040161152490614b16565b60405180910390fd5b611535611787565b15611575576040517f08c379a000000000000000000000000000000000000000000000000000000000815260040161156c90614916565b60405180910390fd5b601060009054906101000a900460ff16156115c5576040517f08c379a00000000000000000000000000000000000000000000000000000000081526004016115bc90614a76565b60405180910390fd5b60016004546115d49190614dc9565b6004819055506115e560045461351e565b6001601060006101000a81548160ff021916908315150217905550565b600860009054906101000a900473ffffffffffffffffffffffffffffffffffffffff1673ffffffffffffffffffffffffffffffffffffffff163373ffffffffffffffffffffffffffffffffffffffff1614611692576040517f08c379a000000000000000000000000000000000000000000000000000000000815260040161168990614b16565b60405180910390fd5b61169a611787565b156116da576040517f08c379a00000000000000000000000000000000000000000000000000000000081526004016116d190614916565b60405180910390fd5b601060009054906101000a900460ff1680156117025750601060019054906101000a900460ff165b611741576040517f08c379a000000000000000000000000000000000000000000000000000000000815260040161173890614ab6565b60405180910390fd5b600061174b6135d4565b90506117596004548261374b565b611764600454613879565b60016004546117739190614dc9565b600481905550611784600454613a76565b50565b60008060149054906101000a900460ff16905090565b600f5481565b600760009054906101000a900473ffffffffffffffffffffffffffffffffffffffff1673ffffffffffffffffffffffffffffffffffffffff163373ffffffffffffffffffffffffffffffffffffffff1614611833576040517f08c379a000000000000000000000000000000000000000000000000000000000815260040161182a90614a96565b60405180910390fd5b80600e819055506004547f82480e97991520549ac4b5d0e1d97edb3bfac2666202923b6903d2a953dc7608600e5460405161186e9190614c16565b60405180910390a250565b611881613b9c565b73ffffffffffffffffffffffffffffffffffffffff1661189f6125b3565b73ffffffffffffffffffffffffffffffffffffffff16146118f5576040517f08c379a00000000000000000000000000000000000000000000000000000000081526004016118ec906149d6565b60405180910390fd5b600073ffffffffffffffffffffffffffffffffffffffff168173ffffffffffffffffffffffffffffffffffffffff161415611965576040517f08c379a000000000000000000000000000000000000000000000000000000000815260040161195c90614936565b60405180910390fd5b80600760006101000a81548173ffffffffffffffffffffffffffffffffffffffff021916908373ffffffffffffffffffffffffffffffffffffffff16021790555050565b600760009054906101000a900473ffffffffffffffffffffffffffffffffffffffff1673ffffffffffffffffffffffffffffffffffffffff163373ffffffffffffffffffffffffffffffffffffffff1614611a39576040517f08c379a0000000000000000000000000000000000000000000000000000000008152600401611a3090614a96565b60405180910390fd5b600554811115611a7e576040517f08c379a0000000000000000000000000000000000000000000000000000000008152600401611a75906149f6565b60405180910390fd5b8060068190555050565b611a90613b9c565b73ffffffffffffffffffffffffffffffffffffffff16611aae6125b3565b73ffffffffffffffffffffffffffffffffffffffff1614611b04576040517f08c379a0000000000000000000000000000000000000000000000000000000008152600401611afb906149d6565b60405180910390fd5b600073ffffffffffffffffffffffffffffffffffffffff1660008054906101000a900473ffffffffffffffffffffffffffffffffffffffff1673ffffffffffffffffffffffffffffffffffffffff167f8be0079c531659141344cd1fd0a4f28419497f9722a3daafe3b4186f6b6457e060405160405180910390a360008060006101000a81548173ffffffffffffffffffffffffffffffffffffffff021916908373ffffffffffffffffffffffffffffffffffffffff160217905550565b6002602052816000526040600020602052806000526040600020600091509150508060000160009054906101000a900460ff16908060010154908060020160009054906101000a900460ff16905083565b600860009054906101000a900473ffffffffffffffffffffffffffffffffffffffff1673ffffffffffffffffffffffffffffffffffffffff163373ffffffffffffffffffffffffffffffffffffffff1614611ca3576040517f08c379a0000000000000000000000000000000000000000000000000000000008152600401611c9a90614b16565b60405180910390fd5b611cab611787565b15611ceb576040517f08c379a0000000000000000000000000000000000000000000000000000000008152600401611ce290614916565b60405180910390fd5b6000611cf56135d4565b9050611d0360045482613ba4565b50565b60045481565b600760009054906101000a900473ffffffffffffffffffffffffffffffffffffffff1673ffffffffffffffffffffffffffffffffffffffff163373ffffffffffffffffffffffffffffffffffffffff1614611d9c576040517f08c379a0000000000000000000000000000000000000000000000000000000008152600401611d9390614a96565b60405180910390fd5b600073ffffffffffffffffffffffffffffffffffffffff168173ffffffffffffffffffffffffffffffffffffffff161415611e0c576040517f08c379a0000000000000000000000000000000000000000000000000000000008152600401611e0390614936565b60405180910390fd5b80600a60006101000a81548173ffffffffffffffffffffffffffffffffffffffff021916908373ffffffffffffffffffffffffffffffffffffffff16021790555050565b600c5481565b6000806002600085815260200190815260200160002060008473ffffffffffffffffffffffffffffffffffffffff1673ffffffffffffffffffffffffffffffffffffffff1681526020019081526020016000206040518060600160405290816000820160009054906101000a900460ff166001811115611ed957611ed8615012565b5b6001811115611eeb57611eea615012565b5b8152602001600182015481526020016002820160009054906101000a900460ff16151515158152505090506000600160008681526020019081526020016000206040518061018001604052908160008201548152602001600182015481526020016002820154815260200160038201548152602001600482015481526020016005820154815260200160068201548152602001600782015481526020016008820154815260200160098201548152602001600a8201548152602001600b820160009054906101000a900460ff1615151515815250509050806101600151158015611fec5750611fe9600654826060015161343b90919063ffffffff16565b42115b8015611ffd57506000826020015114155b9250505092915050565b61200f611787565b1561204f576040517f08c379a000000000000000000000000000000000000000000000000000000000815260040161204690614916565b60405180910390fd5b612058336133a0565b15612098576040517f08c379a000000000000000000000000000000000000000000000000000000000815260040161208f90614a16565b60405180910390fd5b3273ffffffffffffffffffffffffffffffffffffffff163373ffffffffffffffffffffffffffffffffffffffff1614612106576040517f08c379a00000000000000000000000000000000000000000000000000000000081526004016120fd90614756565b60405180910390fd5b6121116004546133b3565b612150576040517f08c379a000000000000000000000000000000000000000000000000000000000815260040161214790614a36565b60405180910390fd5b600e54341015612195576040517f08c379a000000000000000000000000000000000000000000000000000000000815260040161218c906148d6565b60405180910390fd5b600060026000600454815260200190815260200160002060003373ffffffffffffffffffffffffffffffffffffffff1673ffffffffffffffffffffffffffffffffffffffff168152602001908152602001600020600101541461222d576040517f08c379a000000000000000000000000000000000000000000000000000000000815260040161222490614b76565b60405180910390fd5b60003490506000600160006004548152602001908152602001600020905061226282826006015461343b90919063ffffffff16565b816006018190555061228182826007015461343b90919063ffffffff16565b8160070181905550600060026000600454815260200190815260200160002060003373ffffffffffffffffffffffffffffffffffffffff1673ffffffffffffffffffffffffffffffffffffffff168152602001908152602001600020905060008160000160006101000a81548160ff0219169083600181111561230757612306615012565b5b0217905550828160010181905550600360003373ffffffffffffffffffffffffffffffffffffffff1673ffffffffffffffffffffffffffffffffffffffff16815260200190815260200160002060045490806001815401808255809150506001900390600052602060002001600090919091909150556004543373ffffffffffffffffffffffffffffffffffffffff167f438122d8cff518d18388099a5181f0d17a12b4f1b55faedf6e4a6acee0060c12856040516123c69190614c16565b60405180910390a3505050565b600760009054906101000a900473ffffffffffffffffffffffffffffffffffffffff1673ffffffffffffffffffffffffffffffffffffffff163373ffffffffffffffffffffffffffffffffffffffff16148061247c5750600860009054906101000a900473ffffffffffffffffffffffffffffffffffffffff1673ffffffffffffffffffffffffffffffffffffffff163373ffffffffffffffffffffffffffffffffffffffff16145b6124bb576040517f08c379a00000000000000000000000000000000000000000000000000000000081526004016124b290614976565b60405180910390fd5b6124c3611787565b15612503576040517f08c379a00000000000000000000000000000000000000000000000000000000081526004016124fa90614916565b60405180910390fd5b61250b613cd2565b7f68b095021b1f40fe513109f513c66692f0b3219aee674a69f4efc57badb8201d60045460405161253c9190614c16565b60405180910390a1565b600160205280600052604060002060009150905080600001549080600101549080600201549080600301549080600401549080600501549080600601549080600701549080600801549080600901549080600a01549080600b0160009054906101000a900460ff1690508c565b60008060009054906101000a900473ffffffffffffffffffffffffffffffffffffffff16905090565b606060008083905084600360008873ffffffffffffffffffffffffffffffffffffffff1673ffffffffffffffffffffffffffffffffffffffff168152602001908152602001600020805490506126329190614eaa565b81111561268a5784600360008873ffffffffffffffffffffffffffffffffffffffff1673ffffffffffffffffffffffffffffffffffffffff168152602001908152602001600020805490506126879190614eaa565b90505b60008167ffffffffffffffff8111156126a6576126a5615070565b5b6040519080825280602002602001820160405280156126d45781602001602082028036833780820191505090505b50905060005b8281101561277b57600360008973ffffffffffffffffffffffffffffffffffffffff1673ffffffffffffffffffffffffffffffffffffffff168152602001908152602001600020818861272d9190614dc9565b8154811061273e5761273d615041565b5b906000526020600020015482828151811061275c5761275b615041565b5b602002602001018181525050808061277390614f6b565b9150506126da565b508082876127899190614dc9565b935093505050935093915050565b600760009054906101000a900473ffffffffffffffffffffffffffffffffffffffff1673ffffffffffffffffffffffffffffffffffffffff163373ffffffffffffffffffffffffffffffffffffffff1614612827576040517f08c379a000000000000000000000000000000000000000000000000000000000815260040161281e90614a96565b60405180910390fd5b606481111561286b576040517f08c379a000000000000000000000000000000000000000000000000000000000815260040161286290614b56565b60405180910390fd5b80600c81905550612886816064613d7590919063ffffffff16565b600d819055506004547f023010bc68e7f4c0be9887f513c570c7a0f5f511b9716abccd42bf3b8943532b600c54600d546040516128c4929190614c5a565b60405180910390a250565b6000806002600085815260200190815260200160002060008473ffffffffffffffffffffffffffffffffffffffff1673ffffffffffffffffffffffffffffffffffffffff1681526020019081526020016000206040518060600160405290816000820160009054906101000a900460ff16600181111561295257612951615012565b5b600181111561296457612963615012565b5b8152602001600182015481526020016002820160009054906101000a900460ff16151515158152505090506000600160008681526020019081526020016000206040518061018001604052908160008201548152602001600182015481526020016002820154815260200160038201548152602001600482015481526020016005820154815260200160068201548152602001600782015481526020016008820154815260200160098201548152602001600a8201548152602001600b820160009054906101000a900460ff16151515158152505090508061016001518015612adf575080608001518160a00151138015612a87575060006001811115612a6e57612a6d615012565b5b82600001516001811115612a8557612a84615012565b5b145b80612acc575080608001518160a00151128015612acb5750600180811115612ab257612ab1615012565b5b82600001516001811115612ac957612ac8615012565b5b145b5b80612ade575080608001518160a00151145b5b9250505092915050565b606481565b600760009054906101000a900473ffffffffffffffffffffffffffffffffffffffff1673ffffffffffffffffffffffffffffffffffffffff163373ffffffffffffffffffffffffffffffffffffffff1614612b7e576040517f08c379a0000000000000000000000000000000000000000000000000000000008152600401612b7590614a96565b60405180910390fd5b600073ffffffffffffffffffffffffffffffffffffffff168173ffffffffffffffffffffffffffffffffffffffff161415612bee576040517f08c379a0000000000000000000000000000000000000000000000000000000008152600401612be590614936565b60405180910390fd5b80600860006101000a81548173ffffffffffffffffffffffffffffffffffffffff021916908373ffffffffffffffffffffffffffffffffffffffff16021790555050565b60065481565b600760009054906101000a900473ffffffffffffffffffffffffffffffffffffffff1673ffffffffffffffffffffffffffffffffffffffff163373ffffffffffffffffffffffffffffffffffffffff1614612cc8576040517f08c379a0000000000000000000000000000000000000000000000000000000008152600401612cbf90614a96565b60405180910390fd5b80600f8190555050565b600760009054906101000a900473ffffffffffffffffffffffffffffffffffffffff1673ffffffffffffffffffffffffffffffffffffffff163373ffffffffffffffffffffffffffffffffffffffff1614612d62576040517f08c379a0000000000000000000000000000000000000000000000000000000008152600401612d5990614a96565b60405180910390fd5b6064811115612da6576040517f08c379a0000000000000000000000000000000000000000000000000000000008152600401612d9d90614b96565b60405180910390fd5b612dba816064613d7590919063ffffffff16565b600c8190555080600d819055506004547f023010bc68e7f4c0be9887f513c570c7a0f5f511b9716abccd42bf3b8943532b600c54600d54604051612dff929190614c5a565b60405180910390a250565b600860009054906101000a900473ffffffffffffffffffffffffffffffffffffffff1673ffffffffffffffffffffffffffffffffffffffff163373ffffffffffffffffffffffffffffffffffffffff1614612e9a576040517f08c379a0000000000000000000000000000000000000000000000000000000008152600401612e9190614b16565b60405180910390fd5b612ea2611787565b15612ee2576040517f08c379a0000000000000000000000000000000000000000000000000000000008152600401612ed990614916565b60405180910390fd5b601060009054906101000a900460ff16612f31576040517f08c379a0000000000000000000000000000000000000000000000000000000008152600401612f28906147d6565b60405180910390fd5b601060019054906101000a900460ff1615612f81576040517f08c379a0000000000000000000000000000000000000000000000000000000008152600401612f7890614876565b60405180910390fd5b612fae6006546001600060045481526020019081526020016000206002015461343b90919063ffffffff16565b421115612ff0576040517f08c379a0000000000000000000000000000000000000000000000000000000008152600401612fe790614996565b60405180910390fd5b6000612ffa6135d4565b905061300860045482613ba4565b6001601060016101000a81548160ff02191690831515021790555050565b6003602052816000526040600020818154811061304257600080fd5b90600052602060002001600091509150505481565b600d5481565b600b5481565b60055481565b613071613b9c565b73ffffffffffffffffffffffffffffffffffffffff1661308f6125b3565b73ffffffffffffffffffffffffffffffffffffffff16146130e5576040517f08c379a00000000000000000000000000000000000000000000000000000000081526004016130dc906149d6565b60405180910390fd5b600073ffffffffffffffffffffffffffffffffffffffff168173ffffffffffffffffffffffffffffffffffffffff161415613155576040517f08c379a000000000000000000000000000000000000000000000000000000000815260040161314c906147f6565b60405180910390fd5b8073ffffffffffffffffffffffffffffffffffffffff1660008054906101000a900473ffffffffffffffffffffffffffffffffffffffff1673ffffffffffffffffffffffffffffffffffffffff167f8be0079c531659141344cd1fd0a4f28419497f9722a3daafe3b4186f6b6457e060405160405180910390a3806000806101000a81548173ffffffffffffffffffffffffffffffffffffffff021916908373ffffffffffffffffffffffffffffffffffffffff16021790555050565b601060009054906101000a900460ff1681565b600760009054906101000a900473ffffffffffffffffffffffffffffffffffffffff1673ffffffffffffffffffffffffffffffffffffffff163373ffffffffffffffffffffffffffffffffffffffff16146132b5576040517f08c379a00000000000000000000000000000000000000000000000000000000081526004016132ac90614a96565b60405180910390fd5b8060058190555050565b600e5481565b600760009054906101000a900473ffffffffffffffffffffffffffffffffffffffff1681565b60008273ffffffffffffffffffffffffffffffffffffffff166159d883604051613314906146a4565b600060405180830381858888f193505050503d8060008114613352576040519150601f19603f3d011682016040523d82523d6000602084013e613357565b606091505b505090508061339b576040517f08c379a000000000000000000000000000000000000000000000000000000000815260040161339290614af6565b60405180910390fd5b505050565b600080823b905060008111915050919050565b6000806001600084815260200190815260200160002060010154141580156133f257506000600160008481526020019081526020016000206002015414155b80156134135750600160008381526020019081526020016000206001015442115b80156134345750600160008381526020019081526020016000206002015442105b9050919050565b600081836134499190614dc9565b905092915050565b6000818361345f9190614e50565b905092915050565b600081836134759190614e1f565b905092915050565b613485611787565b6134c4576040517f08c379a00000000000000000000000000000000000000000000000000000000081526004016134bb90614776565b60405180910390fd5b60008060146101000a81548160ff0219169083151502179055507f5db9ee0a495bf2e6ff9c91a7834c1ba4fdd244a5e8aa4e537bd38aeae4b073aa613507613b9c565b60405161351491906146b9565b60405180910390a1565b60006001600083815260200190815260200160002090504281600101819055506135536006544261343b90919063ffffffff16565b816002018190555061357d60065460055461356e9190614dc9565b4261343b90919063ffffffff16565b816003018190555081816000018190555060008160060181905550817f0e5543feb86a4cd302f2b88b26c42be2d1673013a34e1f98bd6d524dd3b4ab41426040516135c89190614c16565b60405180910390a25050565b6000806135ec600f544261343b90919063ffffffff16565b90506000806000600a60009054906101000a900473ffffffffffffffffffffffffffffffffffffffff1673ffffffffffffffffffffffffffffffffffffffff1663feaf968c6040518163ffffffff1660e01b815260040160a06040518083038186803b15801561365b57600080fd5b505afa15801561366f573d6000803e3d6000fd5b505050506040513d601f19601f820116820180604052508101906136939190614004565b5093505092509250838111156136de576040517f08c379a00000000000000000000000000000000000000000000000000000000081526004016136d590614bd6565b60405180910390fd5b600b548369ffffffffffffffffffff161161372e576040517f08c379a000000000000000000000000000000000000000000000000000000000815260040161372590614816565b60405180910390fd5b8269ffffffffffffffffffff16600b819055508194505050505090565b6000600160008481526020019081526020016000206002015414156137a5576040517f08c379a000000000000000000000000000000000000000000000000000000000815260040161379c90614a56565b60405180910390fd5b60016000838152602001908152602001600020600301544210156137fe576040517f08c379a00000000000000000000000000000000000000000000000000000000081526004016137f590614856565b60405180910390fd5b613829600654600160008581526020019081526020016000206003015461343b90919063ffffffff16565b42111561386b576040517f08c379a000000000000000000000000000000000000000000000000000000000815260040161386290614ad6565b60405180910390fd5b6138758282613d8b565b5050565b6064613892600d54600c5461343b90919063ffffffff16565b146138d2576040517f08c379a00000000000000000000000000000000000000000000000000000000081526004016138c990614956565b60405180910390fd5b6000600160008381526020019081526020016000206009015414801561390e5750600060016000838152602001908152602001600020600a0154145b61394d576040517f08c379a0000000000000000000000000000000000000000000000000000000008152600401613944906148b6565b60405180910390fd5b600060016000838152602001908152602001600020905060008060006139956064613987600c54876006015461345190919063ffffffff16565b61346790919063ffffffff16565b91506139c360646139b5600d54876006015461345190919063ffffffff16565b61346790919063ffffffff16565b90508360040154846005015413156139e15783600701549250613a06565b8360040154846005015412156139fd5783600801549250613a05565b836006015492505b5b8284600901819055508184600a0181905550613a2d8160095461343b90919063ffffffff16565b600981905550847f6dfdfcb09c8804d0058826cd2539f1acfbe3cb887c9be03d928035bce0f1a58d848484604051613a6793929190614c83565b60405180910390a25050505050565b601060009054906101000a900460ff16613ac5576040517f08c379a0000000000000000000000000000000000000000000000000000000008152600401613abc906147d6565b60405180910390fd5b600060016000600184613ad89190614eaa565b8152602001908152602001600020600301541415613b2b576040517f08c379a0000000000000000000000000000000000000000000000000000000008152600401613b22906149b6565b60405180910390fd5b60016000600183613b3c9190614eaa565b815260200190815260200160002060030154421015613b90576040517f08c379a0000000000000000000000000000000000000000000000000000000008152600401613b8790614896565b60405180910390fd5b613b998161351e565b50565b600033905090565b600060016000848152602001908152602001600020600101541415613bfe576040517f08c379a0000000000000000000000000000000000000000000000000000000008152600401613bf5906147b6565b60405180910390fd5b6001600083815260200190815260200160002060020154421015613c57576040517f08c379a0000000000000000000000000000000000000000000000000000000008152600401613c4e90614bb6565b60405180910390fd5b613c82600654600160008581526020019081526020016000206002015461343b90919063ffffffff16565b421115613cc4576040517f08c379a0000000000000000000000000000000000000000000000000000000008152600401613cbb90614996565b60405180910390fd5b613cce8282613e0b565b5050565b613cda611787565b15613d1a576040517f08c379a0000000000000000000000000000000000000000000000000000000008152600401613d1190614916565b60405180910390fd5b6001600060146101000a81548160ff0219169083151502179055507f62e78cea01bee320cd4e420270b5ea74000d11b0c9f74754ebdbfc544b05a258613d5e613b9c565b604051613d6b91906146b9565b60405180910390a1565b60008183613d839190614eaa565b905092915050565b6000600160008481526020019081526020016000209050818160050181905550600181600b0160006101000a81548160ff021916908315150217905550827fb6ff1fe915db84788cbbbc017f0d2bef9485fad9fd0bd8ce9340fde0d8410dd8428360050154604051613dfe929190614c31565b60405180910390a2505050565b6000600160008481526020019081526020016000209050818160040181905550827f482e76a65b448a42deef26e99e58fb20c85e26f075defff8df6aa80459b39006428360040154604051613e61929190614c31565b60405180910390a2505050565b600081359050613e7d816159c9565b92915050565b600081519050613e92816159e0565b92915050565b600081359050613ea7816159f7565b92915050565b600081519050613ebc816159f7565b92915050565b600081519050613ed181615a0e565b92915050565b600060208284031215613eed57613eec61509f565b5b6000613efb84828501613e6e565b91505092915050565b60008060408385031215613f1b57613f1a61509f565b5b6000613f2985828601613e6e565b9250506020613f3a85828601613e98565b9150509250929050565b600080600060608486031215613f5d57613f5c61509f565b5b6000613f6b86828701613e6e565b9350506020613f7c86828701613e98565b9250506040613f8d86828701613e98565b9150509250925092565b600060208284031215613fad57613fac61509f565b5b6000613fbb84828501613e98565b91505092915050565b60008060408385031215613fdb57613fda61509f565b5b6000613fe985828601613e98565b9250506020613ffa85828601613e6e565b9150509250929050565b600080600080600060a086880312156140205761401f61509f565b5b600061402e88828901613ec2565b955050602061403f88828901613e83565b945050604061405088828901613ead565b935050606061406188828901613ead565b925050608061407288828901613ec2565b9150509295509295909350565b600061408b8383614686565b60208301905092915050565b6140a081614ede565b82525050565b60006140b182614d84565b6140bb8185614d9c565b93506140c683614d74565b8060005b838110156140f75781516140de888261407f565b97506140e983614d8f565b9250506001810190506140ca565b5085935050505092915050565b61410d81614ef0565b82525050565b61411c81614f59565b82525050565b61412b81614f0f565b82525050565b600061413e601a83614db8565b9150614149826150a4565b602082019050919050565b6000614161601483614db8565b915061416c826150cd565b602082019050919050565b6000614184601783614db8565b915061418f826150f6565b602082019050919050565b60006141a7602b83614db8565b91506141b28261511f565b604082019050919050565b60006141ca603183614db8565b91506141d58261516e565b604082019050919050565b60006141ed602683614db8565b91506141f8826151bd565b604082019050919050565b6000614210603d83614db8565b915061421b8261520c565b604082019050919050565b6000614233601683614db8565b915061423e8261525b565b602082019050919050565b6000614256602083614db8565b915061426182615284565b602082019050919050565b6000614279602283614db8565b9150614284826152ad565b604082019050919050565b600061429c603083614db8565b91506142a7826152fc565b604082019050919050565b60006142bf601283614db8565b91506142ca8261534b565b602082019050919050565b60006142e2602c83614db8565b91506142ed82615374565b604082019050919050565b6000614305601383614db8565b9150614310826153c3565b602082019050919050565b6000614328601083614db8565b9150614333826153ec565b602082019050919050565b600061434b601683614db8565b915061435682615415565b602082019050919050565b600061436e603583614db8565b91506143798261543e565b604082019050919050565b6000614391601683614db8565b915061439c8261548d565b602082019050919050565b60006143b4602283614db8565b91506143bf826154b6565b604082019050919050565b60006143d7602e83614db8565b91506143e282615505565b604082019050919050565b60006143fa602083614db8565b915061440582615554565b602082019050919050565b600061441d601d83614db8565b91506144288261557d565b602082019050919050565b6000614440601483614db8565b915061444b826155a6565b602082019050919050565b6000614463601283614db8565b915061446e826155cf565b602082019050919050565b6000614486602983614db8565b9150614491826155f8565b604082019050919050565b60006144a9602383614db8565b91506144b482615647565b604082019050919050565b60006144cc600b83614db8565b91506144d782615696565b602082019050919050565b60006144ef604683614db8565b91506144fa826156bf565b606082019050919050565b6000614512602483614db8565b915061451d82615734565b604082019050919050565b6000614535602383614db8565b915061454082615783565b604082019050919050565b6000614558600083614dad565b9150614563826157d2565b600082019050919050565b600061457b600e83614db8565b9150614586826157d5565b602082019050919050565b600061459e601583614db8565b91506145a9826157fe565b602082019050919050565b60006145c1602383614db8565b91506145cc82615827565b604082019050919050565b60006145e4601b83614db8565b91506145ef82615876565b602082019050919050565b6000614607602583614db8565b91506146128261589f565b604082019050919050565b600061462a602283614db8565b9150614635826158ee565b604082019050919050565b600061464d602e83614db8565b91506146588261593d565b604082019050919050565b6000614670600f83614db8565b915061467b8261598c565b602082019050919050565b61468f81614f39565b82525050565b61469e81614f39565b82525050565b60006146af8261454b565b9150819050919050565b60006020820190506146ce6000830184614097565b92915050565b600060408201905081810360008301526146ee81856140a6565b90506146fd6020830184614695565b9392505050565b60006020820190506147196000830184614104565b92915050565b60006060820190506147346000830186614113565b6147416020830185614695565b61474e6040830184614104565b949350505050565b6000602082019050818103600083015261476f81614131565b9050919050565b6000602082019050818103600083015261478f81614154565b9050919050565b600060208201905081810360008301526147af81614177565b9050919050565b600060208201905081810360008301526147cf8161419a565b9050919050565b600060208201905081810360008301526147ef816141bd565b9050919050565b6000602082019050818103600083015261480f816141e0565b9050919050565b6000602082019050818103600083015261482f81614203565b9050919050565b6000602082019050818103600083015261484f81614226565b9050919050565b6000602082019050818103600083015261486f81614249565b9050919050565b6000602082019050818103600083015261488f8161426c565b9050919050565b600060208201905081810360008301526148af8161428f565b9050919050565b600060208201905081810360008301526148cf816142b2565b9050919050565b600060208201905081810360008301526148ef816142d5565b9050919050565b6000602082019050818103600083015261490f816142f8565b9050919050565b6000602082019050818103600083015261492f8161431b565b9050919050565b6000602082019050818103600083015261494f8161433e565b9050919050565b6000602082019050818103600083015261496f81614361565b9050919050565b6000602082019050818103600083015261498f81614384565b9050919050565b600060208201905081810360008301526149af816143a7565b9050919050565b600060208201905081810360008301526149cf816143ca565b9050919050565b600060208201905081810360008301526149ef816143ed565b9050919050565b60006020820190508181036000830152614a0f81614410565b9050919050565b60006020820190508181036000830152614a2f81614433565b9050919050565b60006020820190508181036000830152614a4f81614456565b9050919050565b60006020820190508181036000830152614a6f81614479565b9050919050565b60006020820190508181036000830152614a8f8161449c565b9050919050565b60006020820190508181036000830152614aaf816144bf565b9050919050565b60006020820190508181036000830152614acf816144e2565b9050919050565b60006020820190508181036000830152614aef81614505565b9050919050565b60006020820190508181036000830152614b0f81614528565b9050919050565b60006020820190508181036000830152614b2f8161456e565b9050919050565b60006020820190508181036000830152614b4f81614591565b9050919050565b60006020820190508181036000830152614b6f816145b4565b9050919050565b60006020820190508181036000830152614b8f816145d7565b9050919050565b60006020820190508181036000830152614baf816145fa565b9050919050565b60006020820190508181036000830152614bcf8161461d565b9050919050565b60006020820190508181036000830152614bef81614640565b9050919050565b60006020820190508181036000830152614c0f81614663565b9050919050565b6000602082019050614c2b6000830184614695565b92915050565b6000604082019050614c466000830185614695565b614c536020830184614122565b9392505050565b6000604082019050614c6f6000830185614695565b614c7c6020830184614695565b9392505050565b6000606082019050614c986000830186614695565b614ca56020830185614695565b614cb26040830184614695565b949350505050565b600061018082019050614cd0600083018f614695565b614cdd602083018e614695565b614cea604083018d614695565b614cf7606083018c614695565b614d04608083018b614122565b614d1160a083018a614122565b614d1e60c0830189614695565b614d2b60e0830188614695565b614d39610100830187614695565b614d47610120830186614695565b614d55610140830185614695565b614d63610160830184614104565b9d9c50505050505050505050505050565b6000819050602082019050919050565b600081519050919050565b6000602082019050919050565b600082825260208201905092915050565b600081905092915050565b600082825260208201905092915050565b6000614dd482614f39565b9150614ddf83614f39565b9250827fffffffffffffffffffffffffffffffffffffffffffffffffffffffffffffffff03821115614e1457614e13614fb4565b5b828201905092915050565b6000614e2a82614f39565b9150614e3583614f39565b925082614e4557614e44614fe3565b5b828204905092915050565b6000614e5b82614f39565b9150614e6683614f39565b9250817fffffffffffffffffffffffffffffffffffffffffffffffffffffffffffffffff0483118215151615614e9f57614e9e614fb4565b5b828202905092915050565b6000614eb582614f39565b9150614ec083614f39565b925082821015614ed357614ed2614fb4565b5b828203905092915050565b6000614ee982614f19565b9050919050565b60008115159050919050565b6000819050614f0a826159b5565b919050565b6000819050919050565b600073ffffffffffffffffffffffffffffffffffffffff82169050919050565b6000819050919050565b600069ffffffffffffffffffff82169050919050565b6000614f6482614efc565b9050919050565b6000614f7682614f39565b91507fffffffffffffffffffffffffffffffffffffffffffffffffffffffffffffffff821415614fa957614fa8614fb4565b5b600182019050919050565b7f4e487b7100000000000000000000000000000000000000000000000000000000600052601160045260246000fd5b7f4e487b7100000000000000000000000000000000000000000000000000000000600052601260045260246000fd5b7f4e487b7100000000000000000000000000000000000000000000000000000000600052602160045260246000fd5b7f4e487b7100000000000000000000000000000000000000000000000000000000600052603260045260246000fd5b7f4e487b7100000000000000000000000000000000000000000000000000000000600052604160045260246000fd5b600080fd5b7f70726f787920636f6e7472616374206e6f7420616c6c6f776564000000000000600082015250565b7f5061757361626c653a206e6f7420706175736564000000000000000000000000600082015250565b7f4e6f7420656c696769626c6520666f7220726566756e64000000000000000000600082015250565b7f43616e206f6e6c79206c6f636b20726f756e6420616674657220726f756e642060008201527f6861732073746172746564000000000000000000000000000000000000000000602082015250565b7f43616e206f6e6c792072756e2061667465722067656e6573697353746172745260008201527f6f756e6420697320747269676765726564000000000000000000000000000000602082015250565b7f4f776e61626c653a206e6577206f776e657220697320746865207a65726f206160008201527f6464726573730000000000000000000000000000000000000000000000000000602082015250565b7f4f7261636c652075706461746520726f756e644964206d757374206265206c6160008201527f72676572207468616e206f7261636c654c6174657374526f756e644964000000602082015250565b7f4e6f7420656c696769626c6520666f7220636c61696d00000000000000000000600082015250565b7f43616e206f6e6c7920656e6420726f756e6420616674657220656e6454696d65600082015250565b7f43616e206f6e6c792072756e2067656e657369734c6f636b526f756e64206f6e60008201527f6365000000000000000000000000000000000000000000000000000000000000602082015250565b7f43616e206f6e6c79207374617274206e657720726f756e64206166746572207260008201527f6f756e64206e2d3120656e6454696d6500000000000000000000000000000000602082015250565b7f526577617264732063616c63756c617465640000000000000000000000000000600082015250565b7f42657420616d6f756e74206d7573742062652067726561746572207468616e2060008201527f6d696e426574416d6f756e740000000000000000000000000000000000000000602082015250565b7f526f756e6420686173206e6f7420656e64656400000000000000000000000000600082015250565b7f5061757361626c653a2070617573656400000000000000000000000000000000600082015250565b7f43616e6e6f74206265207a65726f206164647265737300000000000000000000600082015250565b7f7265776172645261746520616e6420747265617375727952617465206d75737460008201527f2061646420757020746f20544f54414c5f524154450000000000000000000000602082015250565b7f61646d696e207c206f70657261746f723a207775743f00000000000000000000600082015250565b7f43616e206f6e6c79206c6f636b20726f756e642077697468696e20626574546960008201527f6d65000000000000000000000000000000000000000000000000000000000000602082015250565b7f43616e206f6e6c7920737461727420726f756e6420616674657220726f756e6460008201527f206e2d312068617320656e646564000000000000000000000000000000000000602082015250565b7f4f776e61626c653a2063616c6c6572206973206e6f7420746865206f776e6572600082015250565b7f43616e6e6f74206265206d6f7265207468616e20726f756e6454696d65000000600082015250565b7f636f6e7472616374206e6f7420616c6c6f776564000000000000000000000000600082015250565b7f526f756e64206e6f74206265747461626c650000000000000000000000000000600082015250565b7f43616e206f6e6c7920656e6420726f756e6420616674657220726f756e64206860008201527f6173206c6f636b65640000000000000000000000000000000000000000000000602082015250565b7f43616e206f6e6c792072756e2067656e657369735374617274526f756e64206f60008201527f6e63650000000000000000000000000000000000000000000000000000000000602082015250565b7f61646d696e3a207775743f000000000000000000000000000000000000000000600082015250565b7f43616e206f6e6c792072756e2061667465722067656e6573697353746172745260008201527f6f756e6420616e642067656e657369734c6f636b526f756e642069732074726960208201527f6767657265640000000000000000000000000000000000000000000000000000604082015250565b7f43616e206f6e6c7920656e6420726f756e642077697468696e2062756666657260008201527f54696d6500000000000000000000000000000000000000000000000000000000602082015250565b7f5472616e7366657248656c7065723a20424e425f5452414e534645525f46414960008201527f4c45440000000000000000000000000000000000000000000000000000000000602082015250565b50565b7f6f70657261746f723a207775743f000000000000000000000000000000000000600082015250565b7f526f756e6420686173206e6f7420737461727465640000000000000000000000600082015250565b7f726577617264526174652063616e6e6f74206265206d6f7265207468616e203160008201527f3030250000000000000000000000000000000000000000000000000000000000602082015250565b7f43616e206f6e6c7920626574206f6e63652070657220726f756e640000000000600082015250565b7f7472656173757279526174652063616e6e6f74206265206d6f7265207468616e60008201527f2031303025000000000000000000000000000000000000000000000000000000602082015250565b7f43616e206f6e6c79206c6f636b20726f756e64206166746572206c6f636b546960008201527f6d65000000000000000000000000000000000000000000000000000000000000602082015250565b7f4f7261636c6520757064617465206578636565646564206d61782074696d657360008201527f74616d7020616c6c6f77616e6365000000000000000000000000000000000000602082015250565b7f5265776172647320636c61696d65640000000000000000000000000000000000600082015250565b600281106159c6576159c5615012565b5b50565b6159d281614ede565b81146159dd57600080fd5b50565b6159e981614f0f565b81146159f457600080fd5b50565b615a0081614f39565b8114615a0b57600080fd5b50565b615a1781614f43565b8114615a2257600080fd5b5056fea26469706673582212208928ff8ace024f4e11b0862c084daa8730ef2333750ca9153fec3daa7149681a64736f6c63430008060033",
  "immutableReferences": {},
  "source": "// SPDX-License-Identifier: MIT\npragma solidity ^0.8.0;\n\nimport \"@openzeppelin/contracts/utils/math/SafeMath.sol\";\nimport \"@openzeppelin/contracts/access/Ownable.sol\";\nimport \"@openzeppelin/contracts/security/Pausable.sol\";\nimport \"@chainlink/contracts/src/v0.8/interfaces/AggregatorV3Interface.sol\";\n\ncontract BnbPricePrediction is Ownable, Pausable {\n    using SafeMath for uint256;\n\n    struct Round {\n        uint256 epoch;\n        uint256 startTime;\n        uint256 lockTime;\n        uint256 endTime;\n        int256 lockPrice;\n        int256 closePrice;\n        uint256 totalAmount;\n        uint256 bullAmount;\n        uint256 bearAmount;\n        uint256 rewardBaseCalAmount;\n        uint256 rewardAmount;\n        bool oracleCalled;\n    }\n\n    enum Position {Bull, Bear}\n\n    struct BetInfo {\n        Position position;\n        uint256 amount;\n        bool claimed; // default false\n    }\n\n    mapping(uint256 => Round) public rounds;\n    mapping(uint256 => mapping(address => BetInfo)) public ledger;\n    mapping(address => uint256[]) public userRounds;\n    uint256 public currentEpoch;\n    uint256 public roundTime;\n    uint256 public betTime;\n    address public adminAddress;\n    address public operatorAddress;\n    uint256 public treasuryAmount;\n    AggregatorV3Interface internal oracle;\n    uint256 public oracleLatestRoundId;\n\n    uint256 public constant TOTAL_RATE = 100; // 100%\n    uint256 public rewardRate = 96; // 96%\n    uint256 public treasuryRate = 4; // 4%\n    uint256 public minBetAmount;\n    uint256 public oracleUpdateAllowance; // seconds\n\n    bool public genesisStartOnce = false;\n    bool public genesisLockOnce = false;\n\n    event StartRound(uint256 indexed epoch, uint256 blockTime);\n    event LockRound(uint256 indexed epoch, uint256 blockTime, int256 price);\n    event EndRound(uint256 indexed epoch, uint256 blockTime, int256 price);\n    event BetBull(address indexed sender, uint256 indexed currentEpoch, uint256 amount);\n    event BetBear(address indexed sender, uint256 indexed currentEpoch, uint256 amount);\n    event Claim(address indexed sender, uint256 indexed currentEpoch, uint256 amount);\n    event ClaimTreasury(uint256 amount);\n    event RatesUpdated(uint256 indexed epoch, uint256 rewardRate, uint256 treasuryRate);\n    event MinBetAmountUpdated(uint256 indexed epoch, uint256 minBetAmount);\n    event RewardsCalculated(\n        uint256 indexed epoch,\n        uint256 rewardBaseCalAmount,\n        uint256 rewardAmount,\n        uint256 treasuryAmount\n    );\n    event Pause(uint256 epoch);\n    event Unpause(uint256 epoch);\n\n    constructor(\n        AggregatorV3Interface _oracle,\n        address _adminAddress,\n        address _operatorAddress,\n        uint256 _roundTime,\n        uint256 _betTime,\n        uint256 _minBetAmount,\n        uint256 _oracleUpdateAllowance\n    ) {\n        oracle = _oracle;\n        adminAddress = _adminAddress;\n        operatorAddress = _operatorAddress;\n        roundTime = _roundTime;\n        betTime = _betTime;\n        minBetAmount = _minBetAmount;\n        oracleUpdateAllowance = _oracleUpdateAllowance;\n    }\n\n    modifier onlyAdmin() {\n        require(msg.sender == adminAddress, \"admin: wut?\");\n        _;\n    }\n\n    modifier onlyOperator() {\n        require(msg.sender == operatorAddress, \"operator: wut?\");\n        _;\n    }\n\n    modifier onlyAdminOrOperator() {\n        require(msg.sender == adminAddress || msg.sender == operatorAddress, \"admin | operator: wut?\");\n        _;\n    }\n\n    modifier notContract() {\n        require(!_isContract(msg.sender), \"contract not allowed\");\n        require(msg.sender == tx.origin, \"proxy contract not allowed\");\n        _;\n    }\n\n    /**\n     * @dev set admin address\n     * callable by owner\n     */\n    function setAdmin(address _adminAddress) external onlyOwner {\n        require(_adminAddress != address(0), \"Cannot be zero address\");\n        adminAddress = _adminAddress;\n    }\n\n    /**\n     * @dev set operator address\n     * callable by admin\n     */\n    function setOperator(address _operatorAddress) external onlyAdmin {\n        require(_operatorAddress != address(0), \"Cannot be zero address\");\n        operatorAddress = _operatorAddress;\n    }\n\n    /**\n     * @dev set interval blocks\n     * callable by admin\n     */\n    function setRoundTime(uint256 _roundTime) external onlyAdmin {\n        roundTime = _roundTime;\n    }\n\n    /**\n     * @dev set buffer blocks\n     * callable by admin\n     */\n    function setBetTime(uint256 _betTime) external onlyAdmin {\n        require(_betTime <= roundTime, \"Cannot be more than roundTime\");\n        betTime = _betTime;\n    }\n\n    /**\n     * @dev set Oracle address\n     * callable by admin\n     */\n    function setOracle(address _oracle) external onlyAdmin {\n        require(_oracle != address(0), \"Cannot be zero address\");\n        oracle = AggregatorV3Interface(_oracle);\n    }\n\n    /**\n     * @dev set oracle update allowance\n     * callable by admin\n     */\n    function setOracleUpdateAllowance(uint256 _oracleUpdateAllowance) external onlyAdmin {\n        oracleUpdateAllowance = _oracleUpdateAllowance;\n    }\n\n    /**\n     * @dev set reward rate\n     * callable by admin\n     */\n    function setRewardRate(uint256 _rewardRate) external onlyAdmin {\n        require(_rewardRate <= TOTAL_RATE, \"rewardRate cannot be more than 100%\");\n        rewardRate = _rewardRate;\n        treasuryRate = TOTAL_RATE.sub(_rewardRate);\n\n        emit RatesUpdated(currentEpoch, rewardRate, treasuryRate);\n    }\n\n    /**\n     * @dev set treasury rate\n     * callable by admin\n     */\n    function setTreasuryRate(uint256 _treasuryRate) external onlyAdmin {\n        require(_treasuryRate <= TOTAL_RATE, \"treasuryRate cannot be more than 100%\");\n        rewardRate = TOTAL_RATE.sub(_treasuryRate);\n        treasuryRate = _treasuryRate;\n\n        emit RatesUpdated(currentEpoch, rewardRate, treasuryRate);\n    }\n\n    /**\n     * @dev set minBetAmount\n     * callable by admin\n     */\n    function setMinBetAmount(uint256 _minBetAmount) external onlyAdmin {\n        minBetAmount = _minBetAmount;\n\n        emit MinBetAmountUpdated(currentEpoch, minBetAmount);\n    }\n\n    /**\n     * @dev Start genesis round\n     */\n    function genesisStartRound() external onlyOperator whenNotPaused {\n        require(!genesisStartOnce, \"Can only run genesisStartRound once\");\n\n        currentEpoch = currentEpoch + 1;\n        _startRound(currentEpoch);\n        genesisStartOnce = true;\n    }\n\n    /**\n     * @dev Lock genesis round\n     */\n    function genesisLockRound() external onlyOperator whenNotPaused {\n        require(genesisStartOnce, \"Can only run after genesisStartRound is triggered\");\n        require(!genesisLockOnce, \"Can only run genesisLockRound once\");\n        require(\n            block.timestamp <= rounds[currentEpoch].lockTime.add(betTime),\n            \"Can only lock round within betTime\"\n        );\n\n        int256 currentPrice = _getPriceFromOracle();\n        _safeLockRound(currentEpoch, currentPrice);\n        genesisLockOnce = true;\n\n        // currentEpoch = currentEpoch + 1;\n        // _startRound(currentEpoch);\n    }\n\n    /**\n     * @dev Lock round\n     */\n    function lockRound() external onlyOperator whenNotPaused {\n        int256 currentPrice = _getPriceFromOracle();\n        _safeLockRound(currentEpoch, currentPrice);\n    }\n\n    /**\n     * @dev Start the next round n, end round n-1\n     */\n    function nextRound() external onlyOperator whenNotPaused {\n        require(\n            genesisStartOnce && genesisLockOnce,\n            \"Can only run after genesisStartRound and genesisLockRound is triggered\"\n        );\n\n        int256 currentPrice = _getPriceFromOracle();\n        // CurrentEpoch refers to previous round (n)\n        _safeEndRound(currentEpoch, currentPrice);\n        _calculateRewards(currentEpoch);\n\n        // Increment currentEpoch to current round (n)\n        currentEpoch = currentEpoch + 1;\n        _safeStartRound(currentEpoch);\n    }\n\n    /**\n     * @dev Bet bear position\n     */\n    function betBear() external payable whenNotPaused notContract {\n        require(_bettable(currentEpoch), \"Round not bettable\");\n        require(msg.value >= minBetAmount, \"Bet amount must be greater than minBetAmount\");\n        require(ledger[currentEpoch][msg.sender].amount == 0, \"Can only bet once per round\");\n\n        // Update round data\n        uint256 amount = msg.value;\n        Round storage round = rounds[currentEpoch];\n        round.totalAmount = round.totalAmount.add(amount);\n        round.bearAmount = round.bearAmount.add(amount);\n\n        // Update user data\n        BetInfo storage betInfo = ledger[currentEpoch][msg.sender];\n        betInfo.position = Position.Bear;\n        betInfo.amount = amount;\n        userRounds[msg.sender].push(currentEpoch);\n\n        emit BetBear(msg.sender, currentEpoch, amount);\n    }\n\n    /**\n     * @dev Bet bull position\n     */\n    function betBull() external payable whenNotPaused notContract {\n        require(_bettable(currentEpoch), \"Round not bettable\");\n        require(msg.value >= minBetAmount, \"Bet amount must be greater than minBetAmount\");\n        require(ledger[currentEpoch][msg.sender].amount == 0, \"Can only bet once per round\");\n\n        // Update round data\n        uint256 amount = msg.value;\n        Round storage round = rounds[currentEpoch];\n        round.totalAmount = round.totalAmount.add(amount);\n        round.bullAmount = round.bullAmount.add(amount);\n\n        // Update user data\n        BetInfo storage betInfo = ledger[currentEpoch][msg.sender];\n        betInfo.position = Position.Bull;\n        betInfo.amount = amount;\n        userRounds[msg.sender].push(currentEpoch);\n\n        emit BetBull(msg.sender, currentEpoch, amount);\n    }\n\n    /**\n     * @dev Claim reward\n     */\n    function claim(uint256 epoch) external notContract {\n        require(rounds[epoch].startTime != 0, \"Round has not started\");\n        require(block.timestamp > rounds[epoch].endTime, \"Round has not ended\");\n        require(!ledger[epoch][msg.sender].claimed, \"Rewards claimed\");\n\n        uint256 reward;\n        // Round valid, claim rewards\n        if (rounds[epoch].oracleCalled) {\n            require(claimable(epoch, msg.sender), \"Not eligible for claim\");\n            Round memory round = rounds[epoch];\n            reward = ledger[epoch][msg.sender].amount.mul(round.rewardAmount).div(round.rewardBaseCalAmount);\n        }\n        // Round invalid, refund bet amount\n        else {\n            require(refundable(epoch, msg.sender), \"Not eligible for refund\");\n            reward = ledger[epoch][msg.sender].amount;\n        }\n\n        BetInfo storage betInfo = ledger[epoch][msg.sender];\n        betInfo.claimed = true;\n        _safeTransferBNB(address(msg.sender), reward);\n\n        emit Claim(msg.sender, epoch, reward);\n    }\n\n    /**\n     * @dev Claim all rewards in treasury\n     * callable by admin\n     */\n    function claimTreasury() external onlyAdmin {\n        uint256 currentTreasuryAmount = treasuryAmount;\n        treasuryAmount = 0;\n        _safeTransferBNB(adminAddress, currentTreasuryAmount);\n\n        emit ClaimTreasury(currentTreasuryAmount);\n    }\n\n    /**\n     * @dev Return round epochs that a user has participated\n     */\n    function getUserRounds(\n        address user,\n        uint256 cursor,\n        uint256 size\n    ) external view returns (uint256[] memory, uint256) {\n        uint256 length = size;\n        if (length > userRounds[user].length - cursor) {\n            length = userRounds[user].length - cursor;\n        }\n\n        uint256[] memory values = new uint256[](length);\n        for (uint256 i = 0; i < length; i++) {\n            values[i] = userRounds[user][cursor + i];\n        }\n\n        return (values, cursor + length);\n    }\n\n    /**\n     * @dev called by the admin to pause, triggers stopped state\n     */\n    function pause() public onlyAdminOrOperator whenNotPaused {\n        _pause();\n\n        emit Pause(currentEpoch);\n    }\n\n    /**\n     * @dev called by the admin to unpause, returns to normal state\n     * Reset genesis state. Once paused, the rounds would need to be kickstarted by genesis\n     */\n    function unpause() public onlyAdmin whenPaused {\n        genesisStartOnce = false;\n        genesisLockOnce = false;\n        _unpause();\n\n        emit Unpause(currentEpoch);\n    }\n\n    /**\n     * @dev Get the claimable stats of specific epoch and user account\n     */\n    function claimable(uint256 epoch, address user) public view returns (bool) {\n        BetInfo memory betInfo = ledger[epoch][user];\n        Round memory round = rounds[epoch];\n        // if (round.lockPrice == round.closePrice) {\n        //     return false;\n        // }\n        return\n            round.oracleCalled &&\n            ((round.closePrice > round.lockPrice && betInfo.position == Position.Bull) ||\n                (round.closePrice < round.lockPrice && betInfo.position == Position.Bear) ||\n                round.closePrice == round.lockPrice );\n    }\n\n    /**\n     * @dev Get the refundable stats of specific epoch and user account\n     */\n    function refundable(uint256 epoch, address user) public view returns (bool) {\n        BetInfo memory betInfo = ledger[epoch][user];\n        Round memory round = rounds[epoch];\n        return !round.oracleCalled && block.timestamp > round.endTime.add(betTime) && betInfo.amount != 0;\n    }\n\n    /**\n     * @dev Start round\n     * Previous round n-2 must end\n     */\n    function _safeStartRound(uint256 epoch) internal {\n        require(genesisStartOnce, \"Can only run after genesisStartRound is triggered\");\n        require(rounds[epoch - 1].endTime != 0, \"Can only start round after round n-1 has ended\");\n        require(block.timestamp >= rounds[epoch - 1].endTime, \"Can only start new round after round n-1 endTime\");\n        _startRound(epoch);\n    }\n\n    function _startRound(uint256 epoch) internal {\n        Round storage round = rounds[epoch];\n        round.startTime = block.timestamp;\n        round.lockTime = block.timestamp.add(betTime);\n        round.endTime = block.timestamp.add(roundTime + betTime);\n        round.epoch = epoch;\n        round.totalAmount = 0;\n\n        emit StartRound(epoch, block.timestamp);\n    }\n\n    /**\n     * @dev Lock round\n     */\n    function _safeLockRound(uint256 epoch, int256 price) internal {\n        require(rounds[epoch].startTime != 0, \"Can only lock round after round has started\");\n        require(block.timestamp >= rounds[epoch].lockTime, \"Can only lock round after lockTime\");\n        require(block.timestamp <= rounds[epoch].lockTime.add(betTime), \"Can only lock round within betTime\");\n        _lockRound(epoch, price);\n    }\n\n    function _lockRound(uint256 epoch, int256 price) internal {\n        Round storage round = rounds[epoch];\n        round.lockPrice = price;\n\n        emit LockRound(epoch, block.timestamp, round.lockPrice);\n    }\n\n    /**\n     * @dev End round\n     */\n    function _safeEndRound(uint256 epoch, int256 price) internal {\n        require(rounds[epoch].lockTime != 0, \"Can only end round after round has locked\");\n        require(block.timestamp >= rounds[epoch].endTime, \"Can only end round after endTime\");\n        require(block.timestamp <= rounds[epoch].endTime.add(betTime), \"Can only end round within bufferTime\");\n        _endRound(epoch, price);\n    }\n\n    function _endRound(uint256 epoch, int256 price) internal {\n        Round storage round = rounds[epoch];\n        round.closePrice = price;\n        round.oracleCalled = true;\n\n        emit EndRound(epoch, block.timestamp, round.closePrice);\n    }\n\n    /**\n     * @dev Calculate rewards for round\n     */\n    function _calculateRewards(uint256 epoch) internal {\n        require(rewardRate.add(treasuryRate) == TOTAL_RATE, \"rewardRate and treasuryRate must add up to TOTAL_RATE\");\n        require(rounds[epoch].rewardBaseCalAmount == 0 && rounds[epoch].rewardAmount == 0, \"Rewards calculated\");\n        Round storage round = rounds[epoch];\n        uint256 rewardBaseCalAmount;\n        uint256 rewardAmount;\n        uint256 treasuryAmt;\n\n        rewardAmount = round.totalAmount.mul(rewardRate).div(TOTAL_RATE);\n        treasuryAmt = round.totalAmount.mul(treasuryRate).div(TOTAL_RATE);\n        // Bull wins\n        if (round.closePrice > round.lockPrice) {\n            rewardBaseCalAmount = round.bullAmount;\n        }\n        // Bear wins\n        else if (round.closePrice < round.lockPrice) {\n            rewardBaseCalAmount = round.bearAmount;\n        }\n        // House wins\n        else {\n            rewardBaseCalAmount = round.totalAmount;\n        }\n        round.rewardBaseCalAmount = rewardBaseCalAmount;\n        round.rewardAmount = rewardAmount;\n\n        // Add to treasury\n        treasuryAmount = treasuryAmount.add(treasuryAmt);\n\n        emit RewardsCalculated(epoch, rewardBaseCalAmount, rewardAmount, treasuryAmt);\n    }\n\n    /**\n     * @dev Get latest recorded price from oracle\n     * If it falls below allowed buffer or has not updated, it would be invalid\n     */\n    function _getPriceFromOracle() internal returns (int256) {\n        uint256 leastAllowedTimestamp = block.timestamp.add(oracleUpdateAllowance);\n        (uint80 roundId, int256 price, , uint256 timestamp, ) = oracle.latestRoundData();\n        require(timestamp <= leastAllowedTimestamp, \"Oracle update exceeded max timestamp allowance\");\n        require(roundId > oracleLatestRoundId, \"Oracle update roundId must be larger than oracleLatestRoundId\");\n        oracleLatestRoundId = uint256(roundId);\n        return price;\n    }\n\n    function _safeTransferBNB(address to, uint256 value) internal {\n        (bool success, ) = to.call{gas: 23000, value: value}(\"\");\n        require(success, \"TransferHelper: BNB_TRANSFER_FAILED\");\n    }\n\n    function _isContract(address addr) internal view returns (bool) {\n        uint256 size;\n        assembly {\n            size := extcodesize(addr)\n        }\n        return size > 0;\n    }\n\n    /**\n     * @dev Determine if a round is valid for receiving bets\n     * Round must have started and locked\n     * Current block must be within startTime and endTime\n     */\n    function _bettable(uint256 epoch) internal view returns (bool) {\n        return\n            rounds[epoch].startTime != 0 &&\n            rounds[epoch].lockTime != 0 &&\n            block.timestamp > rounds[epoch].startTime &&\n            block.timestamp < rounds[epoch].lockTime;\n    }\n}",
  "sourcePath": "/home/seagod/Seagod/test/pancake-fork/contracts/BnbPricePrediction.sol",
  "compiler": {
    "name": "solc",
    "version": "0.8.6+commit.11564f7e.Emscripten.clang"
  },
  "schemaVersion": "3.4.1",
  "updatedAt": "2021-06-30T04:13:31.082Z",
  "devdoc": {
    "kind": "dev",
    "methods": {
      "betBear()": {
        "details": "Bet bear position"
      },
      "betBull()": {
        "details": "Bet bull position"
      },
      "claim(uint256)": {
        "details": "Claim reward"
      },
      "claimTreasury()": {
        "details": "Claim all rewards in treasury callable by admin"
      },
      "claimable(uint256,address)": {
        "details": "Get the claimable stats of specific epoch and user account"
      },
      "genesisLockRound()": {
        "details": "Lock genesis round"
      },
      "genesisStartRound()": {
        "details": "Start genesis round"
      },
      "getUserRounds(address,uint256,uint256)": {
        "details": "Return round epochs that a user has participated"
      },
      "lockRound()": {
        "details": "Lock round"
      },
      "nextRound()": {
        "details": "Start the next round n, end round n-1"
      },
      "owner()": {
        "details": "Returns the address of the current owner."
      },
      "pause()": {
        "details": "called by the admin to pause, triggers stopped state"
      },
      "paused()": {
        "details": "Returns true if the contract is paused, and false otherwise."
      },
      "refundable(uint256,address)": {
        "details": "Get the refundable stats of specific epoch and user account"
      },
      "renounceOwnership()": {
        "details": "Leaves the contract without owner. It will not be possible to call `onlyOwner` functions anymore. Can only be called by the current owner. NOTE: Renouncing ownership will leave the contract without an owner, thereby removing any functionality that is only available to the owner."
      },
      "setAdmin(address)": {
        "details": "set admin address callable by owner"
      },
      "setBetTime(uint256)": {
        "details": "set buffer blocks callable by admin"
      },
      "setMinBetAmount(uint256)": {
        "details": "set minBetAmount callable by admin"
      },
      "setOperator(address)": {
        "details": "set operator address callable by admin"
      },
      "setOracle(address)": {
        "details": "set Oracle address callable by admin"
      },
      "setOracleUpdateAllowance(uint256)": {
        "details": "set oracle update allowance callable by admin"
      },
      "setRewardRate(uint256)": {
        "details": "set reward rate callable by admin"
      },
      "setRoundTime(uint256)": {
        "details": "set interval blocks callable by admin"
      },
      "setTreasuryRate(uint256)": {
        "details": "set treasury rate callable by admin"
      },
      "transferOwnership(address)": {
        "details": "Transfers ownership of the contract to a new account (`newOwner`). Can only be called by the current owner."
      },
      "unpause()": {
        "details": "called by the admin to unpause, returns to normal state Reset genesis state. Once paused, the rounds would need to be kickstarted by genesis"
      }
    },
    "version": 1
  },
  "userdoc": {
    "kind": "user",
    "methods": {},
    "version": 1
  }
}