{
  "contractName": "BnbPricePredictionBet",
  "abi": [
    {
      "inputs": [],
      "stateMutability": "nonpayable",
      "type": "constructor"
    },
    {
      "anonymous": false,
      "inputs": [
        {
          "indexed": true,
          "internalType": "address",
          "name": "sender",
          "type": "address"
        },
        {
          "indexed": true,
          "internalType": "uint256",
          "name": "currentEpoch",
          "type": "uint256"
        },
        {
          "indexed": false,
          "internalType": "uint256",
          "name": "amount",
          "type": "uint256"
        }
      ],
      "name": "BetDown",
      "type": "event"
    },
    {
      "anonymous": false,
      "inputs": [
        {
          "indexed": true,
          "internalType": "address",
          "name": "sender",
          "type": "address"
        },
        {
          "indexed": true,
          "internalType": "uint256",
          "name": "currentEpoch",
          "type": "uint256"
        },
        {
          "indexed": false,
          "internalType": "uint256",
          "name": "amount",
          "type": "uint256"
        }
      ],
      "name": "BetUp",
      "type": "event"
    },
    {
      "anonymous": false,
      "inputs": [
        {
          "indexed": true,
          "internalType": "address",
          "name": "sender",
          "type": "address"
        },
        {
          "indexed": true,
          "internalType": "uint256",
          "name": "currentEpoch",
          "type": "uint256"
        },
        {
          "indexed": false,
          "internalType": "uint256",
          "name": "amount",
          "type": "uint256"
        }
      ],
      "name": "Claim",
      "type": "event"
    },
    {
      "anonymous": false,
      "inputs": [
        {
          "indexed": false,
          "internalType": "uint256",
          "name": "amount",
          "type": "uint256"
        }
      ],
      "name": "ClaimTreasury",
      "type": "event"
    },
    {
      "anonymous": false,
      "inputs": [
        {
          "indexed": true,
          "internalType": "uint256",
          "name": "epoch",
          "type": "uint256"
        },
        {
          "indexed": false,
          "internalType": "uint256",
          "name": "blockTime",
          "type": "uint256"
        },
        {
          "indexed": false,
          "internalType": "int256",
          "name": "price",
          "type": "int256"
        }
      ],
      "name": "EndRound",
      "type": "event"
    },
    {
      "anonymous": false,
      "inputs": [
        {
          "indexed": true,
          "internalType": "address",
          "name": "previousOwner",
          "type": "address"
        },
        {
          "indexed": true,
          "internalType": "address",
          "name": "newOwner",
          "type": "address"
        }
      ],
      "name": "OwnershipTransferred",
      "type": "event"
    },
    {
      "anonymous": false,
      "inputs": [
        {
          "indexed": true,
          "internalType": "uint256",
          "name": "epoch",
          "type": "uint256"
        },
        {
          "indexed": false,
          "internalType": "uint256",
          "name": "rewardBaseCalAmount",
          "type": "uint256"
        },
        {
          "indexed": false,
          "internalType": "uint256",
          "name": "rewardAmount",
          "type": "uint256"
        },
        {
          "indexed": false,
          "internalType": "uint256",
          "name": "treasuryAmount",
          "type": "uint256"
        }
      ],
      "name": "RewardsCalculated",
      "type": "event"
    },
    {
      "anonymous": false,
      "inputs": [
        {
          "indexed": true,
          "internalType": "uint256",
          "name": "epoch",
          "type": "uint256"
        },
        {
          "indexed": false,
          "internalType": "uint256",
          "name": "startTime",
          "type": "uint256"
        },
        {
          "indexed": false,
          "internalType": "int256",
          "name": "price",
          "type": "int256"
        }
      ],
      "name": "StartRound",
      "type": "event"
    },
    {
      "inputs": [],
      "name": "TOTAL_RATE",
      "outputs": [
        {
          "internalType": "uint256",
          "name": "",
          "type": "uint256"
        }
      ],
      "stateMutability": "view",
      "type": "function",
      "constant": true
    },
    {
      "inputs": [],
      "name": "adminAddress",
      "outputs": [
        {
          "internalType": "address",
          "name": "",
          "type": "address"
        }
      ],
      "stateMutability": "view",
      "type": "function",
      "constant": true
    },
    {
      "inputs": [],
      "name": "betTime",
      "outputs": [
        {
          "internalType": "uint256",
          "name": "",
          "type": "uint256"
        }
      ],
      "stateMutability": "view",
      "type": "function",
      "constant": true
    },
    {
      "inputs": [],
      "name": "bufferTime",
      "outputs": [
        {
          "internalType": "uint256",
          "name": "",
          "type": "uint256"
        }
      ],
      "stateMutability": "view",
      "type": "function",
      "constant": true
    },
    {
      "inputs": [],
      "name": "currentEpoch",
      "outputs": [
        {
          "internalType": "uint256",
          "name": "",
          "type": "uint256"
        }
      ],
      "stateMutability": "view",
      "type": "function",
      "constant": true
    },
    {
      "inputs": [],
      "name": "genesisLockOnce",
      "outputs": [
        {
          "internalType": "bool",
          "name": "",
          "type": "bool"
        }
      ],
      "stateMutability": "view",
      "type": "function",
      "constant": true
    },
    {
      "inputs": [],
      "name": "genesisStartOnce",
      "outputs": [
        {
          "internalType": "bool",
          "name": "",
          "type": "bool"
        }
      ],
      "stateMutability": "view",
      "type": "function",
      "constant": true
    },
    {
      "inputs": [
        {
          "internalType": "uint256",
          "name": "",
          "type": "uint256"
        },
        {
          "internalType": "address",
          "name": "",
          "type": "address"
        }
      ],
      "name": "ledger",
      "outputs": [
        {
          "internalType": "uint256",
          "name": "upAmount",
          "type": "uint256"
        },
        {
          "internalType": "uint256",
          "name": "downAmount",
          "type": "uint256"
        },
        {
          "internalType": "bool",
          "name": "claimed",
          "type": "bool"
        }
      ],
      "stateMutability": "view",
      "type": "function",
      "constant": true
    },
    {
      "inputs": [],
      "name": "minBetAmount",
      "outputs": [
        {
          "internalType": "uint256",
          "name": "",
          "type": "uint256"
        }
      ],
      "stateMutability": "view",
      "type": "function",
      "constant": true
    },
    {
      "inputs": [],
      "name": "oracleLatestRoundId",
      "outputs": [
        {
          "internalType": "uint256",
          "name": "",
          "type": "uint256"
        }
      ],
      "stateMutability": "view",
      "type": "function",
      "constant": true
    },
    {
      "inputs": [],
      "name": "owner",
      "outputs": [
        {
          "internalType": "address",
          "name": "",
          "type": "address"
        }
      ],
      "stateMutability": "view",
      "type": "function",
      "constant": true
    },
    {
      "inputs": [],
      "name": "renounceOwnership",
      "outputs": [],
      "stateMutability": "nonpayable",
      "type": "function"
    },
    {
      "inputs": [],
      "name": "rewardRate",
      "outputs": [
        {
          "internalType": "uint256",
          "name": "",
          "type": "uint256"
        }
      ],
      "stateMutability": "view",
      "type": "function",
      "constant": true
    },
    {
      "inputs": [],
      "name": "roundTime",
      "outputs": [
        {
          "internalType": "uint256",
          "name": "",
          "type": "uint256"
        }
      ],
      "stateMutability": "view",
      "type": "function",
      "constant": true
    },
    {
      "inputs": [
        {
          "internalType": "uint256",
          "name": "",
          "type": "uint256"
        }
      ],
      "name": "rounds",
      "outputs": [
        {
          "internalType": "uint256",
          "name": "epoch",
          "type": "uint256"
        },
        {
          "internalType": "uint256",
          "name": "startTime",
          "type": "uint256"
        },
        {
          "internalType": "uint256",
          "name": "lockTime",
          "type": "uint256"
        },
        {
          "internalType": "uint256",
          "name": "endTime",
          "type": "uint256"
        },
        {
          "internalType": "int256",
          "name": "startPrice",
          "type": "int256"
        },
        {
          "internalType": "int256",
          "name": "closePrice",
          "type": "int256"
        },
        {
          "internalType": "uint256",
          "name": "totalAmount",
          "type": "uint256"
        },
        {
          "internalType": "uint256",
          "name": "upAmount",
          "type": "uint256"
        },
        {
          "internalType": "uint256",
          "name": "downAmount",
          "type": "uint256"
        },
        {
          "internalType": "uint256",
          "name": "rewardBaseCalAmount",
          "type": "uint256"
        },
        {
          "internalType": "bool",
          "name": "status",
          "type": "bool"
        },
        {
          "internalType": "bool",
          "name": "oracleCalled",
          "type": "bool"
        }
      ],
      "stateMutability": "view",
      "type": "function",
      "constant": true
    },
    {
      "inputs": [
        {
          "internalType": "address",
          "name": "newOwner",
          "type": "address"
        }
      ],
      "name": "transferOwnership",
      "outputs": [],
      "stateMutability": "nonpayable",
      "type": "function"
    },
    {
      "inputs": [],
      "name": "treasuryAmount",
      "outputs": [
        {
          "internalType": "uint256",
          "name": "",
          "type": "uint256"
        }
      ],
      "stateMutability": "view",
      "type": "function",
      "constant": true
    },
    {
      "inputs": [],
      "name": "treasuryRate",
      "outputs": [
        {
          "internalType": "uint256",
          "name": "",
          "type": "uint256"
        }
      ],
      "stateMutability": "view",
      "type": "function",
      "constant": true
    },
    {
      "inputs": [
        {
          "internalType": "address",
          "name": "",
          "type": "address"
        },
        {
          "internalType": "uint256",
          "name": "",
          "type": "uint256"
        }
      ],
      "name": "userRounds",
      "outputs": [
        {
          "internalType": "uint256",
          "name": "",
          "type": "uint256"
        }
      ],
      "stateMutability": "view",
      "type": "function",
      "constant": true
    },
    {
      "inputs": [],
      "name": "genesisStartRound",
      "outputs": [],
      "stateMutability": "nonpayable",
      "type": "function"
    },
    {
      "inputs": [],
      "name": "getStatus",
      "outputs": [
        {
          "internalType": "uint256",
          "name": "",
          "type": "uint256"
        },
        {
          "internalType": "uint256",
          "name": "",
          "type": "uint256"
        },
        {
          "internalType": "uint256",
          "name": "",
          "type": "uint256"
        },
        {
          "internalType": "int256",
          "name": "",
          "type": "int256"
        },
        {
          "internalType": "int256",
          "name": "",
          "type": "int256"
        },
        {
          "internalType": "bool",
          "name": "",
          "type": "bool"
        },
        {
          "internalType": "uint256",
          "name": "",
          "type": "uint256"
        }
      ],
      "stateMutability": "view",
      "type": "function",
      "constant": true
    },
    {
      "inputs": [],
      "name": "betDown",
      "outputs": [],
      "stateMutability": "payable",
      "type": "function",
      "payable": true
    },
    {
      "inputs": [],
      "name": "betUp",
      "outputs": [],
      "stateMutability": "payable",
      "type": "function",
      "payable": true
    },
    {
      "inputs": [
        {
          "internalType": "uint256",
          "name": "epoch",
          "type": "uint256"
        },
        {
          "internalType": "address",
          "name": "user",
          "type": "address"
        }
      ],
      "name": "claimable",
      "outputs": [
        {
          "internalType": "bool",
          "name": "",
          "type": "bool"
        }
      ],
      "stateMutability": "view",
      "type": "function",
      "constant": true
    },
    {
      "inputs": [
        {
          "internalType": "uint256",
          "name": "epoch",
          "type": "uint256"
        },
        {
          "internalType": "address",
          "name": "user",
          "type": "address"
        }
      ],
      "name": "refundable",
      "outputs": [
        {
          "internalType": "bool",
          "name": "",
          "type": "bool"
        }
      ],
      "stateMutability": "view",
      "type": "function",
      "constant": true
    }
  ],
  "bytecode": "0x6080604052603c600555600f6006556002600755606060085560046009556000600a556000600f60006101000a81548160ff0219169083151502179055506000600f60016101000a81548160ff0219169083151502179055503480156200006557600080fd5b50600062000081620001d3640100000000026401000000009004565b9050806000806101000a81548173ffffffffffffffffffffffffffffffffffffffff021916908373ffffffffffffffffffffffffffffffffffffffff1602179055508073ffffffffffffffffffffffffffffffffffffffff16600073ffffffffffffffffffffffffffffffffffffffff167f8be0079c531659141344cd1fd0a4f28419497f9722a3daafe3b4186f6b6457e060405160405180910390a350732514895c72f50d8bd4b4f9b1110f0d6bd2c97526600d60006101000a81548173ffffffffffffffffffffffffffffffffffffffff021916908373ffffffffffffffffffffffffffffffffffffffff1602179055506200018d620001d3640100000000026401000000009004565b600b60006101000a81548173ffffffffffffffffffffffffffffffffffffffff021916908373ffffffffffffffffffffffffffffffffffffffff160217905550620001db565b600033905090565b61305b80620001eb6000396000f3fe608060405260043610610183576000357c010000000000000000000000000000000000000000000000000000000090048063a0c7f71c116100ee578063e4b72516116100a7578063f2fde38b11610081578063f2fde38b14610512578063f7fdec281461053b578063fa968eea14610566578063fc6f94681461059157610183565b8063e4b7251614610491578063ec324703146104bc578063ee5f8c8f146104e757610183565b8063a0c7f71c1461038c578063ad19f442146103c9578063b29c299b146103d3578063ba7b6703146103fe578063c10ba76b14610429578063dd1f75961461045457610183565b80637667180811610140578063766718081461027c5780637782090b146102a75780637b0a47ee146102b15780637bf41254146102dc5780638c65c81f146103195780638da5cb5b1461036157610183565b80630f74174f14610188578063368acb09146101b3578063452fd75a146101de5780634e69d560146101f5578063715018a6146102265780637285c58b1461023d575b600080fd5b34801561019457600080fd5b5061019d6105bc565b6040516101aa9190612714565b60405180910390f35b3480156101bf57600080fd5b506101c86105cf565b6040516101d5919061290f565b60405180910390f35b3480156101ea57600080fd5b506101f36105d5565b005b34801561020157600080fd5b5061020a610662565b60405161021d979695949392919061298a565b60405180910390f35b34801561023257600080fd5b5061023b610829565b005b34801561024957600080fd5b50610264600480360381019061025f91906123bd565b610963565b60405161027393929190612953565b60405180910390f35b34801561028857600080fd5b506102916109a7565b60405161029e919061290f565b60405180910390f35b6102af6109ad565b005b3480156102bd57600080fd5b506102c6610bfe565b6040516102d3919061290f565b60405180910390f35b3480156102e857600080fd5b5061030360048036038101906102fe91906123bd565b610c04565b6040516103109190612714565b60405180910390f35b34801561032557600080fd5b50610340600480360381019061033b9190612390565b610d84565b6040516103589c9b9a999897969594939291906129f9565b60405180910390f35b34801561036d57600080fd5b50610376610dfe565b60405161038391906126f9565b60405180910390f35b34801561039857600080fd5b506103b360048036038101906103ae91906123bd565b610e27565b6040516103c09190612714565b60405180910390f35b6103d1610f83565b005b3480156103df57600080fd5b506103e86111d4565b6040516103f5919061290f565b60405180910390f35b34801561040a57600080fd5b506104136111d9565b604051610420919061290f565b60405180910390f35b34801561043557600080fd5b5061043e6111df565b60405161044b919061290f565b60405180910390f35b34801561046057600080fd5b5061047b60048036038101906104769190612350565b6111e5565b604051610488919061290f565b60405180910390f35b34801561049d57600080fd5b506104a6611216565b6040516104b3919061290f565b60405180910390f35b3480156104c857600080fd5b506104d161121c565b6040516104de919061290f565b60405180910390f35b3480156104f357600080fd5b506104fc611222565b604051610509919061290f565b60405180910390f35b34801561051e57600080fd5b5061053960048036038101906105349190612323565b611228565b005b34801561054757600080fd5b506105506113d1565b60405161055d9190612714565b60405180910390f35b34801561057257600080fd5b5061057b6113e4565b604051610588919061290f565b60405180910390f35b34801561059d57600080fd5b506105a66113ea565b6040516105b391906126f9565b60405180910390f35b600f60019054906101000a900460ff1681565b600c5481565b600f60009054906101000a900460ff1615610625576040517f08c379a000000000000000000000000000000000000000000000000000000000815260040161061c9061288f565b60405180910390fd5b60016004546106349190612acf565b600481905550610645600454611410565b6001600f60006101000a81548160ff021916908315150217905550565b6000806000806000806000600f60009054906101000a900460ff166106bc576040517f08c379a00000000000000000000000000000000000000000000000000000000081526004016106b39061274f565b60405180910390fd5b6000600d60009054906101000a900473ffffffffffffffffffffffffffffffffffffffff1673ffffffffffffffffffffffffffffffffffffffff1663feaf968c6040518163ffffffff167c010000000000000000000000000000000000000000000000000000000002815260040160a06040518083038186803b15801561074257600080fd5b505afa158015610756573d6000803e3d6000fd5b505050506040513d601f19601f8201168201806040525081019061077a91906123fd565b5050509150506000426001600060045481526020019081526020016000206002015410156107a757600190505b6004546001600060045481526020019081526020016000206007015460016000600454815260200190815260200160002060080154846001600060045481526020019081526020016000206004015485600160006004548152602001908152602001600020600301549850985098509850985098509850505090919293949596565b6108316114fb565b73ffffffffffffffffffffffffffffffffffffffff1661084f610dfe565b73ffffffffffffffffffffffffffffffffffffffff16146108a5576040517f08c379a000000000000000000000000000000000000000000000000000000000815260040161089c9061282f565b60405180910390fd5b600073ffffffffffffffffffffffffffffffffffffffff1660008054906101000a900473ffffffffffffffffffffffffffffffffffffffff1673ffffffffffffffffffffffffffffffffffffffff167f8be0079c531659141344cd1fd0a4f28419497f9722a3daafe3b4186f6b6457e060405160405180910390a360008060006101000a81548173ffffffffffffffffffffffffffffffffffffffff021916908373ffffffffffffffffffffffffffffffffffffffff160217905550565b6002602052816000526040600020602052806000526040600020600091509150508060000154908060010154908060020160009054906101000a900460ff16905083565b60045481565b6001600060045481526020019081526020016000206003015442106109e0576109d4611503565b6109df600454611612565b5b6109eb600454611f8c565b610a2a576040517f08c379a0000000000000000000000000000000000000000000000000000000008152600401610a219061286f565b60405180910390fd5b600a54341015610a6f576040517f08c379a0000000000000000000000000000000000000000000000000000000008152600401610a66906127ef565b60405180910390fd5b600034905060006001600060045481526020019081526020016000209050610aa482826006015461201490919063ffffffff16565b8160060181905550610ac382826008015461201490919063ffffffff16565b8160080181905550600060026000600454815260200190815260200160002060003373ffffffffffffffffffffffffffffffffffffffff1673ffffffffffffffffffffffffffffffffffffffff1681526020019081526020016000209050610b3883826001015461202a90919063ffffffff16565b8160010181905550600360003373ffffffffffffffffffffffffffffffffffffffff1673ffffffffffffffffffffffffffffffffffffffff16815260200190815260200160002060045490806001815401808255809150506001900390600052602060002001600090919091909150556004543373ffffffffffffffffffffffffffffffffffffffff167f0f556517e566a40b95f48e791101968aad685e8209b262ff4555585e1ced0ca385604051610bf1919061290f565b60405180910390a3505050565b60085481565b6000806002600085815260200190815260200160002060008473ffffffffffffffffffffffffffffffffffffffff1673ffffffffffffffffffffffffffffffffffffffff16815260200190815260200160002060405180606001604052908160008201548152602001600182015481526020016002820160009054906101000a900460ff16151515158152505090506000600160008681526020019081526020016000206040518061018001604052908160008201548152602001600182015481526020016002820154815260200160038201548152602001600482015481526020016005820154815260200160068201548152602001600782015481526020016008820154815260200160098201548152602001600a820160009054906101000a900460ff16151515158152602001600a820160019054906101000a900460ff1615151515815250509050806101600151158015610d7a5750610d77600754826060015161201490919063ffffffff16565b42115b9250505092915050565b600160205280600052604060002060009150905080600001549080600101549080600201549080600301549080600401549080600501549080600601549080600701549080600801549080600901549080600a0160009054906101000a900460ff169080600a0160019054906101000a900460ff1690508c565b60008060009054906101000a900473ffffffffffffffffffffffffffffffffffffffff16905090565b6000806002600085815260200190815260200160002060008473ffffffffffffffffffffffffffffffffffffffff1673ffffffffffffffffffffffffffffffffffffffff16815260200190815260200160002060405180606001604052908160008201548152602001600182015481526020016002820160009054906101000a900460ff16151515158152505090506000600160008681526020019081526020016000206040518061018001604052908160008201548152602001600182015481526020016002820154815260200160038201548152602001600482015481526020016005820154815260200160068201548152602001600782015481526020016008820154815260200160098201548152602001600a820160009054906101000a900460ff16151515158152602001600a820160019054906101000a900460ff16151515158152505090508061016001519250505092915050565b600160006004548152602001908152602001600020600301544210610fb657610faa611503565b610fb5600454611612565b5b610fc1600454611f8c565b611000576040517f08c379a0000000000000000000000000000000000000000000000000000000008152600401610ff79061286f565b60405180910390fd5b600a54341015611045576040517f08c379a000000000000000000000000000000000000000000000000000000000815260040161103c906127ef565b60405180910390fd5b60003490506000600160006004548152602001908152602001600020905061107a82826006015461201490919063ffffffff16565b816006018190555061109982826007015461201490919063ffffffff16565b8160070181905550600060026000600454815260200190815260200160002060003373ffffffffffffffffffffffffffffffffffffffff1673ffffffffffffffffffffffffffffffffffffffff168152602001908152602001600020905061110e83826000015461201490919063ffffffff16565b8160000181905550600360003373ffffffffffffffffffffffffffffffffffffffff1673ffffffffffffffffffffffffffffffffffffffff16815260200190815260200160002060045490806001815401808255809150506001900390600052602060002001600090919091909150556004543373ffffffffffffffffffffffffffffffffffffffff167f7a316a6afe2c00a04627818c175dc56303e329857dc0d56e1be414b8f1a64694856040516111c7919061290f565b60405180910390a3505050565b606481565b60075481565b60065481565b6003602052816000526040600020818154811061120157600080fd5b90600052602060002001600091509150505481565b60095481565b600e5481565b60055481565b6112306114fb565b73ffffffffffffffffffffffffffffffffffffffff1661124e610dfe565b73ffffffffffffffffffffffffffffffffffffffff16146112a4576040517f08c379a000000000000000000000000000000000000000000000000000000000815260040161129b9061282f565b60405180910390fd5b600073ffffffffffffffffffffffffffffffffffffffff168173ffffffffffffffffffffffffffffffffffffffff161415611314576040517f08c379a000000000000000000000000000000000000000000000000000000000815260040161130b9061276f565b60405180910390fd5b8073ffffffffffffffffffffffffffffffffffffffff1660008054906101000a900473ffffffffffffffffffffffffffffffffffffffff1673ffffffffffffffffffffffffffffffffffffffff167f8be0079c531659141344cd1fd0a4f28419497f9722a3daafe3b4186f6b6457e060405160405180910390a3806000806101000a81548173ffffffffffffffffffffffffffffffffffffffff021916908373ffffffffffffffffffffffffffffffffffffffff16021790555050565b600f60009054906101000a900460ff1681565b600a5481565b600b60009054906101000a900473ffffffffffffffffffffffffffffffffffffffff1681565b60006001600083815260200190815260200160002090504281600101819055506114456006544261201490919063ffffffff16565b816002018190555061146f6006546005546114609190612acf565b4261201490919063ffffffff16565b8160030181905550818160000181905550600081600601819055506000611494612040565b9050808260040181905550600182600a0160006101000a81548160ff021916908315150217905550827f9e37e19d9d58170ef7fa39e3af5503e907349528858211f19048af4dbe3d116942836040516114ee92919061292a565b60405180910390a2505050565b600033905090565b6001600060045481526020019081526020016000206003015442101561155e576040517f08c379a0000000000000000000000000000000000000000000000000000000008152600401611555906127af565b60405180910390fd5b6000611568612040565b905060006001600060045481526020019081526020016000209050818160050181905550600081600a0160006101000a81548160ff021916908315150217905550600181600a0160016101000a81548160ff0219169083151502179055506004547fb6ff1fe915db84788cbbbc017f0d2bef9485fad9fd0bd8ce9340fde0d8410dd84283600501546040516115fe92919061292a565b60405180910390a261160e612123565b5050565b60006001600083815260200190815260200160002060010154141561166c576040517f08c379a0000000000000000000000000000000000000000000000000000000008152600401611663906128cf565b60405180910390fd5b600160008281526020019081526020016000206003015442116116c4576040517f08c379a00000000000000000000000000000000000000000000000000000000081526004016116bb9061280f565b60405180910390fd5b6002600082815260200190815260200160002060003373ffffffffffffffffffffffffffffffffffffffff1673ffffffffffffffffffffffffffffffffffffffff16815260200190815260200160002060020160009054906101000a900460ff1615611765576040517f08c379a000000000000000000000000000000000000000000000000000000000815260040161175c906128ef565b60405180910390fd5b600060016000838152602001908152602001600020600a0160019054906101000a900460ff1615611db25761179a8233610e27565b6117d9576040517f08c379a00000000000000000000000000000000000000000000000000000000081526004016117d09061278f565b60405180910390fd5b6000600160008481526020019081526020016000206040518061018001604052908160008201548152602001600182015481526020016002820154815260200160038201548152602001600482015481526020016005820154815260200160068201548152602001600782015481526020016008820154815260200160098201548152602001600a820160009054906101000a900460ff16151515158152602001600a820160019054906101000a900460ff1615151515815250509050600160008481526020019081526020016000206004015460016000858152602001908152602001600020600501541315611a155760006002600085815260200190815260200160002060003373ffffffffffffffffffffffffffffffffffffffff1673ffffffffffffffffffffffffffffffffffffffff1681526020019081526020016000206000015411611960576040517f08c379a00000000000000000000000000000000000000000000000000000000081526004016119579061284f565b60405180910390fd5b600061198e60646119806008548560c001516121ef90919063ffffffff16565b61202a90919063ffffffff16565b9050611a0d8261012001516119ff836002600089815260200190815260200160002060003373ffffffffffffffffffffffffffffffffffffffff1673ffffffffffffffffffffffffffffffffffffffff168152602001908152602001600020600001546121ef90919063ffffffff16565b61202a90919063ffffffff16565b925050611dac565b600160008481526020019081526020016000206004015460016000858152602001908152602001600020600501541215611b945760006002600085815260200190815260200160002060003373ffffffffffffffffffffffffffffffffffffffff1673ffffffffffffffffffffffffffffffffffffffff1681526020019081526020016000206001015411611adf576040517f08c379a0000000000000000000000000000000000000000000000000000000008152600401611ad69061284f565b60405180910390fd5b6000611b0d6064611aff6008548560c001516121ef90919063ffffffff16565b61202a90919063ffffffff16565b9050611b8c826101200151611b7e836002600089815260200190815260200160002060003373ffffffffffffffffffffffffffffffffffffffff1673ffffffffffffffffffffffffffffffffffffffff168152602001908152602001600020600101546121ef90919063ffffffff16565b61202a90919063ffffffff16565b925050611dab565b6000611c4f6002600086815260200190815260200160002060003373ffffffffffffffffffffffffffffffffffffffff1673ffffffffffffffffffffffffffffffffffffffff168152602001908152602001600020600001546002600087815260200190815260200160002060003373ffffffffffffffffffffffffffffffffffffffff1673ffffffffffffffffffffffffffffffffffffffff1681526020019081526020016000206001015461201490919063ffffffff16565b11611c8f576040517f08c379a0000000000000000000000000000000000000000000000000000000008152600401611c869061284f565b60405180910390fd5b6000611cbd6064611caf6008548560c001516121ef90919063ffffffff16565b61202a90919063ffffffff16565b90506000611d7a6002600087815260200190815260200160002060003373ffffffffffffffffffffffffffffffffffffffff1673ffffffffffffffffffffffffffffffffffffffff168152602001908152602001600020600001546002600088815260200190815260200160002060003373ffffffffffffffffffffffffffffffffffffffff1673ffffffffffffffffffffffffffffffffffffffff1681526020019081526020016000206001015461201490919063ffffffff16565b9050611da6836101200151611d9884846121ef90919063ffffffff16565b61202a90919063ffffffff16565b935050505b5b50611ebd565b611dbc8233610c04565b611dfb576040517f08c379a0000000000000000000000000000000000000000000000000000000008152600401611df29061272f565b60405180910390fd5b6000611eb66002600085815260200190815260200160002060003373ffffffffffffffffffffffffffffffffffffffff1673ffffffffffffffffffffffffffffffffffffffff168152602001908152602001600020600001546002600086815260200190815260200160002060003373ffffffffffffffffffffffffffffffffffffffff1673ffffffffffffffffffffffffffffffffffffffff1681526020019081526020016000206001015461201490919063ffffffff16565b9050809150505b60006002600084815260200190815260200160002060003373ffffffffffffffffffffffffffffffffffffffff1673ffffffffffffffffffffffffffffffffffffffff168152602001908152602001600020905060018160020160006101000a81548160ff021916908315150217905550611f383383612205565b823373ffffffffffffffffffffffffffffffffffffffff167f34fcbac0073d7c3d388e51312faf357774904998eeb8fca628b9e6f65ee1cbf784604051611f7f919061290f565b60405180910390a3505050565b600080600160008481526020019081526020016000206001015414158015611fcb57506000600160008481526020019081526020016000206002015414155b8015611fec5750600160008381526020019081526020016000206001015442115b801561200d5750600160008381526020019081526020016000206002015442105b9050919050565b600081836120229190612acf565b905092915050565b600081836120389190612b25565b905092915050565b6000806000600d60009054906101000a900473ffffffffffffffffffffffffffffffffffffffff1673ffffffffffffffffffffffffffffffffffffffff1663feaf968c6040518163ffffffff167c010000000000000000000000000000000000000000000000000000000002815260040160a06040518083038186803b1580156120c957600080fd5b505afa1580156120dd573d6000803e3d6000fd5b505050506040513d601f19601f8201168201806040525081019061210191906123fd565b505050915091508169ffffffffffffffffffff16600e81905550809250505090565b600f60009054906101000a900460ff16612172576040517f08c379a00000000000000000000000000000000000000000000000000000000081526004016121699061274f565b60405180910390fd5b600160006004548152602001908152602001600020600301544210156121cd576040517f08c379a00000000000000000000000000000000000000000000000000000000081526004016121c4906127cf565b60405180910390fd5b60016004546121dc9190612acf565b6004819055506121ed600454611410565b565b600081836121fd9190612b56565b905092915050565b60008273ffffffffffffffffffffffffffffffffffffffff166159d88360405161222e906126e4565b600060405180830381858888f193505050503d806000811461226c576040519150601f19603f3d011682016040523d82523d6000602084013e612271565b606091505b50509050806122b5576040517f08c379a00000000000000000000000000000000000000000000000000000000081526004016122ac906128af565b60405180910390fd5b505050565b6000813590506122c981612fc9565b92915050565b6000815190506122de81612fe0565b92915050565b6000813590506122f381612ff7565b92915050565b60008151905061230881612ff7565b92915050565b60008151905061231d8161300e565b92915050565b60006020828403121561233957612338612c76565b5b6000612347848285016122ba565b91505092915050565b6000806040838503121561236757612366612c76565b5b6000612375858286016122ba565b9250506020612386858286016122e4565b9150509250929050565b6000602082840312156123a6576123a5612c76565b5b60006123b4848285016122e4565b91505092915050565b600080604083850312156123d4576123d3612c76565b5b60006123e2858286016122e4565b92505060206123f3858286016122ba565b9150509250929050565b600080600080600060a0868803121561241957612418612c76565b5b60006124278882890161230e565b9550506020612438888289016122cf565b9450506040612449888289016122f9565b935050606061245a888289016122f9565b925050608061246b8882890161230e565b9150509295509295909350565b61248181612bb0565b82525050565b61249081612bc2565b82525050565b61249f81612bce565b82525050565b60006124b2601783612abe565b91506124bd82612c7b565b602082019050919050565b60006124d5603183612abe565b91506124e082612ca4565b604082019050919050565b60006124f8602683612abe565b915061250382612cf3565b604082019050919050565b600061251b601683612abe565b915061252682612d42565b602082019050919050565b600061253e602083612abe565b915061254982612d6b565b602082019050919050565b6000612561603083612abe565b915061256c82612d94565b604082019050919050565b6000612584602c83612abe565b915061258f82612de3565b604082019050919050565b60006125a7601383612abe565b91506125b282612e32565b602082019050919050565b60006125ca602083612abe565b91506125d582612e5b565b602082019050919050565b60006125ed600b83612abe565b91506125f882612e84565b602082019050919050565b6000612610601283612abe565b915061261b82612ead565b602082019050919050565b6000612633602383612abe565b915061263e82612ed6565b604082019050919050565b6000612656602383612abe565b915061266182612f25565b604082019050919050565b6000612679600083612ab3565b915061268482612f74565b600082019050919050565b600061269c601583612abe565b91506126a782612f77565b602082019050919050565b60006126bf600f83612abe565b91506126ca82612fa0565b602082019050919050565b6126de81612bf8565b82525050565b60006126ef8261266c565b9150819050919050565b600060208201905061270e6000830184612478565b92915050565b60006020820190506127296000830184612487565b92915050565b60006020820190508181036000830152612748816124a5565b9050919050565b60006020820190508181036000830152612768816124c8565b9050919050565b60006020820190508181036000830152612788816124eb565b9050919050565b600060208201905081810360008301526127a88161250e565b9050919050565b600060208201905081810360008301526127c881612531565b9050919050565b600060208201905081810360008301526127e881612554565b9050919050565b6000602082019050818103600083015261280881612577565b9050919050565b600060208201905081810360008301526128288161259a565b9050919050565b60006020820190508181036000830152612848816125bd565b9050919050565b60006020820190508181036000830152612868816125e0565b9050919050565b6000602082019050818103600083015261288881612603565b9050919050565b600060208201905081810360008301526128a881612626565b9050919050565b600060208201905081810360008301526128c881612649565b9050919050565b600060208201905081810360008301526128e88161268f565b9050919050565b60006020820190508181036000830152612908816126b2565b9050919050565b600060208201905061292460008301846126d5565b92915050565b600060408201905061293f60008301856126d5565b61294c6020830184612496565b9392505050565b600060608201905061296860008301866126d5565b61297560208301856126d5565b6129826040830184612487565b949350505050565b600060e08201905061299f600083018a6126d5565b6129ac60208301896126d5565b6129b960408301886126d5565b6129c66060830187612496565b6129d36080830186612496565b6129e060a0830185612487565b6129ed60c08301846126d5565b98975050505050505050565b600061018082019050612a0f600083018f6126d5565b612a1c602083018e6126d5565b612a29604083018d6126d5565b612a36606083018c6126d5565b612a43608083018b612496565b612a5060a083018a612496565b612a5d60c08301896126d5565b612a6a60e08301886126d5565b612a786101008301876126d5565b612a866101208301866126d5565b612a94610140830185612487565b612aa2610160830184612487565b9d9c50505050505050505050505050565b600081905092915050565b600082825260208201905092915050565b6000612ada82612bf8565b9150612ae583612bf8565b9250827fffffffffffffffffffffffffffffffffffffffffffffffffffffffffffffffff03821115612b1a57612b19612c18565b5b828201905092915050565b6000612b3082612bf8565b9150612b3b83612bf8565b925082612b4b57612b4a612c47565b5b828204905092915050565b6000612b6182612bf8565b9150612b6c83612bf8565b9250817fffffffffffffffffffffffffffffffffffffffffffffffffffffffffffffffff0483118215151615612ba557612ba4612c18565b5b828202905092915050565b6000612bbb82612bd8565b9050919050565b60008115159050919050565b6000819050919050565b600073ffffffffffffffffffffffffffffffffffffffff82169050919050565b6000819050919050565b600069ffffffffffffffffffff82169050919050565b7f4e487b7100000000000000000000000000000000000000000000000000000000600052601160045260246000fd5b7f4e487b7100000000000000000000000000000000000000000000000000000000600052601260045260246000fd5b600080fd5b7f4e6f7420656c696769626c6520666f7220726566756e64000000000000000000600082015250565b7f43616e206f6e6c792072756e2061667465722067656e6573697353746172745260008201527f6f756e6420697320747269676765726564000000000000000000000000000000602082015250565b7f4f776e61626c653a206e6577206f776e657220697320746865207a65726f206160008201527f6464726573730000000000000000000000000000000000000000000000000000602082015250565b7f4e6f7420656c696769626c6520666f7220636c61696d00000000000000000000600082015250565b7f43616e206f6e6c7920656e6420726f756e6420616674657220656e6454696d65600082015250565b7f43616e206f6e6c79207374617274206e657720726f756e64206166746572207260008201527f6f756e64206e2d3120656e6454696d6500000000000000000000000000000000602082015250565b7f42657420616d6f756e74206d7573742062652067726561746572207468616e2060008201527f6d696e426574416d6f756e740000000000000000000000000000000000000000602082015250565b7f526f756e6420686173206e6f7420656e64656400000000000000000000000000600082015250565b7f4f776e61626c653a2063616c6c6572206973206e6f7420746865206f776e6572600082015250565b7f4974206973203020626574000000000000000000000000000000000000000000600082015250565b7f526f756e64206e6f74206265747461626c650000000000000000000000000000600082015250565b7f43616e206f6e6c792072756e2067656e657369735374617274526f756e64206f60008201527f6e63650000000000000000000000000000000000000000000000000000000000602082015250565b7f5472616e7366657248656c7065723a20424e425f5452414e534645525f46414960008201527f4c45440000000000000000000000000000000000000000000000000000000000602082015250565b50565b7f526f756e6420686173206e6f7420737461727465640000000000000000000000600082015250565b7f5265776172647320636c61696d65640000000000000000000000000000000000600082015250565b612fd281612bb0565b8114612fdd57600080fd5b50565b612fe981612bce565b8114612ff457600080fd5b50565b61300081612bf8565b811461300b57600080fd5b50565b61301781612c02565b811461302257600080fd5b5056fea2646970667358221220797a21af24d4db4dbe9d3fa9e65d4a6bf47d6d4350d26de805fdc4dc96c8337d64736f6c63430008060033",
  "immutableReferences": {},
  "source": "// SPDX-License-Identifier: MIT\npragma solidity ^0.8.0;\n\nimport \"@openzeppelin/contracts/utils/math/SafeMath.sol\";\nimport \"@openzeppelin/contracts/access/Ownable.sol\";\nimport \"@chainlink/contracts/src/v0.8/interfaces/AggregatorV3Interface.sol\";\n\ncontract BnbPricePredictionBet is Ownable {\n    using SafeMath for uint256;\n    enum Position {Up, Down}\n    struct Round {\n        uint256 epoch;\n        uint256 startTime;\n        uint256 lockTime;\n        uint256 endTime;\n        int256 startPrice;\n        int256 closePrice;\n        uint256 totalAmount;\n        uint256 upAmount;\n        uint256 downAmount;\n        uint256 rewardBaseCalAmount;\n        bool status;\n        bool oracleCalled;\n    }\n    struct BetInfo {\n        uint256 upAmount;\n        uint256 downAmount;\n        bool claimed; // default false\n    }\n\n    mapping(uint256 => Round) public rounds;\n    mapping(uint256 => mapping(address => BetInfo)) public ledger;\n    mapping(address => uint256[]) public userRounds;\n    uint256 public currentEpoch;\n    uint256 public roundTime = 60;\n    uint256 public betTime = 15;\n    uint256 public bufferTime = 2;\n    uint256 public constant TOTAL_RATE = 100; // 100%\n    uint256 public rewardRate = 96; // 96%\n    uint256 public treasuryRate = 4; // 4%\n    uint256 public minBetAmount = 0;\n\n    address public adminAddress;\n    uint256 public treasuryAmount;\n    AggregatorV3Interface internal oracle;\n    uint256 public oracleLatestRoundId;    \n\n    bool public genesisStartOnce = false;\n    bool public genesisLockOnce = false;\n\n    event StartRound(uint256 indexed epoch, uint256 startTime, int256 price);\n    event EndRound(uint256 indexed epoch, uint256 blockTime, int256 price);\n\n    event BetUp(address indexed sender, uint256 indexed currentEpoch, uint256 amount);\n    event BetDown(address indexed sender, uint256 indexed currentEpoch, uint256 amount);\n    event Claim(address indexed sender, uint256 indexed currentEpoch, uint256 amount);\n    event ClaimTreasury(uint256 amount);\n    event RewardsCalculated(\n        uint256 indexed epoch,\n        uint256 rewardBaseCalAmount,\n        uint256 rewardAmount,\n        uint256 treasuryAmount\n    );\n\n    constructor() {\n        oracle = AggregatorV3Interface(0x2514895c72f50D8bd4B4F9b1110F0D6bD2c97526);\n        adminAddress = _msgSender();       \n    }\n\n    /**\n     * @dev Start genesis round\n     */\n    function genesisStartRound() external {\n        require(!genesisStartOnce, \"Can only run genesisStartRound once\");\n        currentEpoch = currentEpoch + 1;\n        _startRound(currentEpoch);\n        genesisStartOnce = true;\n    }\n\n    /**\n     * @dev Start round     \n     */\n    function _safeStartRound() internal {\n        require(genesisStartOnce, \"Can only run after genesisStartRound is triggered\");\n        require(block.timestamp >= rounds[currentEpoch].endTime, \"Can only start new round after round n-1 endTime\");\n        currentEpoch = currentEpoch + 1;\n        _startRound(currentEpoch);\n    }\n\n    function _startRound(uint256 epoch) internal {\n        Round storage round = rounds[epoch];\n        round.startTime = block.timestamp;\n        round.lockTime = block.timestamp.add(betTime);\n        round.endTime = block.timestamp.add(roundTime + betTime);\n        round.epoch = epoch;\n        round.totalAmount = 0;\n        int256 currentPrice = _getPriceFromOracle();\n        round.startPrice = currentPrice;\n        round.status = true;\n\n        emit StartRound(epoch, block.timestamp, currentPrice);\n    }\n\n    function getStatus() external view returns (uint256, uint256, uint256, int256, int256, bool, uint256) {\n        require(genesisStartOnce, \"Can only run after genesisStartRound is triggered\");\n        ( , int256 price, , , ) = oracle.latestRoundData();   \n        bool roundStatus = false;\n        if(rounds[currentEpoch].lockTime < block.timestamp) roundStatus = true;  \n        return (\n                currentEpoch,\n                rounds[currentEpoch].upAmount,\n                rounds[currentEpoch].downAmount,\n                price,\n                rounds[currentEpoch].startPrice,\n                roundStatus,\n                rounds[currentEpoch].endTime\n            );\n    }\n\n    /**\n     * @dev End round\n     */\n    function _safeEndRound() internal {\n        require(block.timestamp >= rounds[currentEpoch].endTime, \"Can only end round after endTime\");\n        int256 currentPrice = _getPriceFromOracle();\n        Round storage round = rounds[currentEpoch];\n        round.closePrice = currentPrice;\n        round.status = false;\n        round.oracleCalled = true;\n\n        emit EndRound(currentEpoch, block.timestamp, round.closePrice);\n\n        _safeStartRound();\n    }   \n\n    /**\n     * @dev Bet bear position\n     */\n    function betDown() external payable {\n        if(block.timestamp >= rounds[currentEpoch].endTime) {\n            _safeEndRound();\n            claim(currentEpoch);\n        }\n        require(_bettable(currentEpoch), \"Round not bettable\");\n        require(msg.value >= minBetAmount, \"Bet amount must be greater than minBetAmount\");\n        // require(ledger[currentEpoch][msg.sender].amount == 0, \"Can only bet once per round\");\n\n        // Update round data\n        uint256 amount = msg.value;\n        Round storage round = rounds[currentEpoch];\n        round.totalAmount = round.totalAmount.add(amount);\n        round.downAmount = round.downAmount.add(amount);\n\n        // Update user data\n        BetInfo storage betInfo = ledger[currentEpoch][msg.sender];\n        // betInfo.position = Position.Down;\n        betInfo.downAmount = betInfo.downAmount.div(amount);\n        userRounds[msg.sender].push(currentEpoch);\n\n        emit BetDown(msg.sender, currentEpoch, amount);\n    }\n\n    /**\n     * @dev Bet bull position\n     */\n    function betUp() external payable {\n        if(block.timestamp >= rounds[currentEpoch].endTime) {\n            _safeEndRound();\n            claim(currentEpoch);\n        }\n        require(_bettable(currentEpoch), \"Round not bettable\");\n        require(msg.value >= minBetAmount, \"Bet amount must be greater than minBetAmount\");\n        // require(ledger[currentEpoch][msg.sender].amount == 0, \"Can only bet once per round\");\n\n        // Update round data\n        uint256 amount = msg.value;\n        Round storage round = rounds[currentEpoch];\n        round.totalAmount = round.totalAmount.add(amount);\n        round.upAmount = round.upAmount.add(amount);\n\n        // Update user data\n        BetInfo storage betInfo = ledger[currentEpoch][msg.sender];\n        // betInfo.position = Position.Up;\n        betInfo.upAmount = betInfo.upAmount.add(amount);\n        userRounds[msg.sender].push(currentEpoch);\n\n        emit BetUp(msg.sender, currentEpoch, amount);\n    }\n\n    /**\n     * @dev Claim reward\n     */\n    function claim(uint256 epoch) internal {\n        require(rounds[epoch].startTime != 0, \"Round has not started\");\n        require(block.timestamp > rounds[epoch].endTime, \"Round has not ended\");\n        require(!ledger[epoch][msg.sender].claimed, \"Rewards claimed\");\n\n        uint256 reward;        \n        // Round valid, claim rewards\n        if (rounds[epoch].oracleCalled) {\n            require(claimable(epoch, msg.sender), \"Not eligible for claim\");\n            Round memory round = rounds[epoch];\n            if(rounds[epoch].closePrice > rounds[epoch].startPrice) {\n                require(ledger[epoch][msg.sender].upAmount > 0, \"It is 0 bet\");\n                uint256 rewardAmount = round.totalAmount.mul(rewardRate).div(TOTAL_RATE);\n                reward = ledger[epoch][msg.sender].upAmount.mul(rewardAmount).div(round.rewardBaseCalAmount);\n            }\n            else if (rounds[epoch].closePrice < rounds[epoch].startPrice) {\n                require(ledger[epoch][msg.sender].downAmount > 0, \"It is 0 bet\");\n                uint256 rewardAmount = round.totalAmount.mul(rewardRate).div(TOTAL_RATE);\n                reward = ledger[epoch][msg.sender].downAmount.mul(rewardAmount).div(round.rewardBaseCalAmount);\n            }\n            else {\n                require(ledger[epoch][msg.sender].downAmount.add(ledger[epoch][msg.sender].upAmount) > 0, \"It is 0 bet\");\n                uint256 rewardAmount = round.totalAmount.mul(rewardRate).div(TOTAL_RATE);\n                uint256 totalBet = ledger[epoch][msg.sender].downAmount.add(ledger[epoch][msg.sender].upAmount);\n                reward = totalBet.mul(rewardAmount).div(round.rewardBaseCalAmount);\n            }          \n        }\n        // Round invalid, refund bet amount\n        else {\n            require(refundable(epoch, msg.sender), \"Not eligible for refund\");\n            uint256 totalBet = ledger[epoch][msg.sender].downAmount.add(ledger[epoch][msg.sender].upAmount);\n            reward = totalBet;\n        }\n\n        BetInfo storage betInfo = ledger[epoch][msg.sender];\n        betInfo.claimed = true;\n        _safeTransferBNB(address(msg.sender), reward);\n\n        emit Claim(msg.sender, epoch, reward);\n    }\n\n    /**\n     * @dev Claim all rewards in treasury\n     * callable by admin\n     */\n    function claimTreasury() internal {\n        uint256 currentTreasuryAmount = treasuryAmount;\n        treasuryAmount = 0;\n        _safeTransferBNB(adminAddress, currentTreasuryAmount);\n\n        // emit ClaimTreasury(currentTreasuryAmount);\n    }\n   \n    /**\n     * @dev Get the claimable stats of specific epoch and user account\n     */\n    function claimable(uint256 epoch, address user) public view returns (bool) {\n        BetInfo memory betInfo = ledger[epoch][user];\n        Round memory round = rounds[epoch];      \n        return round.oracleCalled;\n    }\n\n    /**\n     * @dev Get the refundable stats of specific epoch and user account\n     */\n    function refundable(uint256 epoch, address user) public view returns (bool) {\n        BetInfo memory betInfo = ledger[epoch][user];\n        Round memory round = rounds[epoch];\n        return !round.oracleCalled && block.timestamp > round.endTime.add(bufferTime);\n    }   \n\n    /**\n     * @dev Calculate rewards for round\n     */\n    function _calculateRewards(uint256 epoch) internal {\n        require(rewardRate.add(treasuryRate) == TOTAL_RATE, \"rewardRate and treasuryRate must add up to TOTAL_RATE\");\n        require(rounds[epoch].rewardBaseCalAmount == 0, \"Rewards calculated\");\n        Round storage round = rounds[epoch];\n        uint256 rewardBaseCalAmount;\n        uint256 rewardAmount;\n        uint256 treasuryAmt;\n\n        rewardAmount = round.totalAmount.mul(rewardRate).div(TOTAL_RATE);\n        treasuryAmt = round.totalAmount.mul(treasuryRate).div(TOTAL_RATE);\n        // Up wins\n        if (round.closePrice > round.startPrice) {\n            rewardBaseCalAmount = round.upAmount;\n        }\n        // Down wins\n        else if (round.closePrice < round.startPrice) {\n            rewardBaseCalAmount = round.downAmount;\n        }\n        // House wins\n        else {\n            rewardBaseCalAmount = round.totalAmount;\n        }\n        round.rewardBaseCalAmount = rewardBaseCalAmount;\n\n        // Add to treasury\n        treasuryAmount = treasuryAmount.add(treasuryAmt);\n\n        emit RewardsCalculated(epoch, rewardBaseCalAmount, round.totalAmount.mul(rewardRate).div(TOTAL_RATE), treasuryAmt);\n    }\n\n    /**\n     * @dev Get latest recorded price from oracle\n     * If it falls below allowed buffer or has not updated, it would be invalid\n     */\n    function _getPriceFromOracle() internal returns (int256) {\n        (uint80 roundId, int256 price, ,, ) = oracle.latestRoundData();\n        oracleLatestRoundId = uint256(roundId);\n        return price;\n    }\n\n    function _safeTransferBNB(address to, uint256 value) internal {\n        (bool success, ) = to.call{gas: 23000, value: value}(\"\");\n        require(success, \"TransferHelper: BNB_TRANSFER_FAILED\");\n    }\n   \n    /**\n     * @dev Determine if a round is valid for receiving bets\n     * Round must have started and locked\n     * Current time must be within startTime and endTime\n     */\n    function _bettable(uint256 epoch) internal view returns (bool) {\n        return\n            rounds[epoch].startTime != 0 &&\n            rounds[epoch].lockTime != 0 &&\n            block.timestamp > rounds[epoch].startTime &&\n            block.timestamp < rounds[epoch].lockTime;\n    }\n}",
  "sourcePath": "/home/seagod/Seagod/test/bnb_prediction_bet/contracts/BnbPricePredictionBet.sol",
  "compiler": {
    "name": "solc",
    "version": "0.8.6+commit.11564f7e.Emscripten.clang"
  },
  "schemaVersion": "3.4.1",
  "updatedAt": "2021-07-01T19:44:00.461Z",
  "networkType": "ethereum",
  "devdoc": {
    "kind": "dev",
    "methods": {
      "betDown()": {
        "details": "Bet bear position"
      },
      "betUp()": {
        "details": "Bet bull position"
      },
      "claimable(uint256,address)": {
        "details": "Get the claimable stats of specific epoch and user account"
      },
      "genesisStartRound()": {
        "details": "Start genesis round"
      },
      "owner()": {
        "details": "Returns the address of the current owner."
      },
      "refundable(uint256,address)": {
        "details": "Get the refundable stats of specific epoch and user account"
      },
      "renounceOwnership()": {
        "details": "Leaves the contract without owner. It will not be possible to call `onlyOwner` functions anymore. Can only be called by the current owner. NOTE: Renouncing ownership will leave the contract without an owner, thereby removing any functionality that is only available to the owner."
      },
      "transferOwnership(address)": {
        "details": "Transfers ownership of the contract to a new account (`newOwner`). Can only be called by the current owner."
      }
    },
    "version": 1
  },
  "userdoc": {
    "kind": "user",
    "methods": {},
    "version": 1
  }
}