{
  "contractName": "BnbPricePredictionBet",
  "abi": [
    {
      "inputs": [
        {
          "internalType": "address",
          "name": "_operatorAddress",
          "type": "address"
        },
        {
          "internalType": "uint256",
          "name": "_roundTime",
          "type": "uint256"
        },
        {
          "internalType": "uint256",
          "name": "_betTime",
          "type": "uint256"
        },
        {
          "internalType": "uint256",
          "name": "_minBetAmount",
          "type": "uint256"
        },
        {
          "internalType": "uint256",
          "name": "_oracleUpdateAllowance",
          "type": "uint256"
        }
      ],
      "stateMutability": "nonpayable",
      "type": "constructor"
    },
    {
      "anonymous": false,
      "inputs": [
        {
          "indexed": true,
          "internalType": "address",
          "name": "sender",
          "type": "address"
        },
        {
          "indexed": true,
          "internalType": "uint256",
          "name": "currentEpoch",
          "type": "uint256"
        },
        {
          "indexed": false,
          "internalType": "uint256",
          "name": "amount",
          "type": "uint256"
        }
      ],
      "name": "BetBear",
      "type": "event"
    },
    {
      "anonymous": false,
      "inputs": [
        {
          "indexed": true,
          "internalType": "address",
          "name": "sender",
          "type": "address"
        },
        {
          "indexed": true,
          "internalType": "uint256",
          "name": "currentEpoch",
          "type": "uint256"
        },
        {
          "indexed": false,
          "internalType": "uint256",
          "name": "amount",
          "type": "uint256"
        }
      ],
      "name": "BetBull",
      "type": "event"
    },
    {
      "anonymous": false,
      "inputs": [
        {
          "indexed": true,
          "internalType": "address",
          "name": "sender",
          "type": "address"
        },
        {
          "indexed": true,
          "internalType": "uint256",
          "name": "currentEpoch",
          "type": "uint256"
        },
        {
          "indexed": false,
          "internalType": "uint256",
          "name": "amount",
          "type": "uint256"
        }
      ],
      "name": "Claim",
      "type": "event"
    },
    {
      "anonymous": false,
      "inputs": [
        {
          "indexed": false,
          "internalType": "uint256",
          "name": "amount",
          "type": "uint256"
        }
      ],
      "name": "ClaimTreasury",
      "type": "event"
    },
    {
      "anonymous": false,
      "inputs": [
        {
          "indexed": true,
          "internalType": "uint256",
          "name": "epoch",
          "type": "uint256"
        },
        {
          "indexed": false,
          "internalType": "uint256",
          "name": "blockTime",
          "type": "uint256"
        },
        {
          "indexed": false,
          "internalType": "int256",
          "name": "price",
          "type": "int256"
        }
      ],
      "name": "EndRound",
      "type": "event"
    },
    {
      "anonymous": false,
      "inputs": [
        {
          "indexed": true,
          "internalType": "uint256",
          "name": "epoch",
          "type": "uint256"
        },
        {
          "indexed": false,
          "internalType": "uint256",
          "name": "blockTime",
          "type": "uint256"
        },
        {
          "indexed": false,
          "internalType": "int256",
          "name": "price",
          "type": "int256"
        }
      ],
      "name": "LockRound",
      "type": "event"
    },
    {
      "anonymous": false,
      "inputs": [
        {
          "indexed": true,
          "internalType": "uint256",
          "name": "epoch",
          "type": "uint256"
        },
        {
          "indexed": false,
          "internalType": "uint256",
          "name": "minBetAmount",
          "type": "uint256"
        }
      ],
      "name": "MinBetAmountUpdated",
      "type": "event"
    },
    {
      "anonymous": false,
      "inputs": [
        {
          "indexed": true,
          "internalType": "address",
          "name": "previousOwner",
          "type": "address"
        },
        {
          "indexed": true,
          "internalType": "address",
          "name": "newOwner",
          "type": "address"
        }
      ],
      "name": "OwnershipTransferred",
      "type": "event"
    },
    {
      "anonymous": false,
      "inputs": [
        {
          "indexed": false,
          "internalType": "uint256",
          "name": "epoch",
          "type": "uint256"
        }
      ],
      "name": "Pause",
      "type": "event"
    },
    {
      "anonymous": false,
      "inputs": [
        {
          "indexed": false,
          "internalType": "address",
          "name": "account",
          "type": "address"
        }
      ],
      "name": "Paused",
      "type": "event"
    },
    {
      "anonymous": false,
      "inputs": [
        {
          "indexed": true,
          "internalType": "uint256",
          "name": "epoch",
          "type": "uint256"
        },
        {
          "indexed": false,
          "internalType": "uint256",
          "name": "rewardRate",
          "type": "uint256"
        },
        {
          "indexed": false,
          "internalType": "uint256",
          "name": "treasuryRate",
          "type": "uint256"
        }
      ],
      "name": "RatesUpdated",
      "type": "event"
    },
    {
      "anonymous": false,
      "inputs": [
        {
          "indexed": true,
          "internalType": "uint256",
          "name": "epoch",
          "type": "uint256"
        },
        {
          "indexed": false,
          "internalType": "uint256",
          "name": "rewardBaseCalAmount",
          "type": "uint256"
        },
        {
          "indexed": false,
          "internalType": "uint256",
          "name": "rewardAmount",
          "type": "uint256"
        },
        {
          "indexed": false,
          "internalType": "uint256",
          "name": "treasuryAmount",
          "type": "uint256"
        }
      ],
      "name": "RewardsCalculated",
      "type": "event"
    },
    {
      "anonymous": false,
      "inputs": [
        {
          "indexed": true,
          "internalType": "uint256",
          "name": "epoch",
          "type": "uint256"
        },
        {
          "indexed": false,
          "internalType": "uint256",
          "name": "blockTime",
          "type": "uint256"
        }
      ],
      "name": "StartRound",
      "type": "event"
    },
    {
      "anonymous": false,
      "inputs": [
        {
          "indexed": false,
          "internalType": "uint256",
          "name": "epoch",
          "type": "uint256"
        }
      ],
      "name": "Unpause",
      "type": "event"
    },
    {
      "anonymous": false,
      "inputs": [
        {
          "indexed": false,
          "internalType": "address",
          "name": "account",
          "type": "address"
        }
      ],
      "name": "Unpaused",
      "type": "event"
    },
    {
      "inputs": [],
      "name": "TOTAL_RATE",
      "outputs": [
        {
          "internalType": "uint256",
          "name": "",
          "type": "uint256"
        }
      ],
      "stateMutability": "view",
      "type": "function"
    },
    {
      "inputs": [],
      "name": "adminAddress",
      "outputs": [
        {
          "internalType": "address",
          "name": "",
          "type": "address"
        }
      ],
      "stateMutability": "view",
      "type": "function"
    },
    {
      "inputs": [],
      "name": "betTime",
      "outputs": [
        {
          "internalType": "uint256",
          "name": "",
          "type": "uint256"
        }
      ],
      "stateMutability": "view",
      "type": "function"
    },
    {
      "inputs": [],
      "name": "bufferTime",
      "outputs": [
        {
          "internalType": "uint256",
          "name": "",
          "type": "uint256"
        }
      ],
      "stateMutability": "view",
      "type": "function"
    },
    {
      "inputs": [],
      "name": "currentEpoch",
      "outputs": [
        {
          "internalType": "uint256",
          "name": "",
          "type": "uint256"
        }
      ],
      "stateMutability": "view",
      "type": "function"
    },
    {
      "inputs": [],
      "name": "genesisLockOnce",
      "outputs": [
        {
          "internalType": "bool",
          "name": "",
          "type": "bool"
        }
      ],
      "stateMutability": "view",
      "type": "function"
    },
    {
      "inputs": [],
      "name": "genesisStartOnce",
      "outputs": [
        {
          "internalType": "bool",
          "name": "",
          "type": "bool"
        }
      ],
      "stateMutability": "view",
      "type": "function"
    },
    {
      "inputs": [
        {
          "internalType": "uint256",
          "name": "",
          "type": "uint256"
        },
        {
          "internalType": "address",
          "name": "",
          "type": "address"
        }
      ],
      "name": "ledger",
      "outputs": [
        {
          "internalType": "enum BnbPricePredictionBet.Position",
          "name": "position",
          "type": "uint8"
        },
        {
          "internalType": "uint256",
          "name": "amount",
          "type": "uint256"
        },
        {
          "internalType": "bool",
          "name": "claimed",
          "type": "bool"
        }
      ],
      "stateMutability": "view",
      "type": "function"
    },
    {
      "inputs": [],
      "name": "minBetAmount",
      "outputs": [
        {
          "internalType": "uint256",
          "name": "",
          "type": "uint256"
        }
      ],
      "stateMutability": "view",
      "type": "function"
    },
    {
      "inputs": [],
      "name": "operatorAddress",
      "outputs": [
        {
          "internalType": "address",
          "name": "",
          "type": "address"
        }
      ],
      "stateMutability": "view",
      "type": "function"
    },
    {
      "inputs": [],
      "name": "oracleLatestRoundId",
      "outputs": [
        {
          "internalType": "uint256",
          "name": "",
          "type": "uint256"
        }
      ],
      "stateMutability": "view",
      "type": "function"
    },
    {
      "inputs": [],
      "name": "oracleUpdateAllowance",
      "outputs": [
        {
          "internalType": "uint256",
          "name": "",
          "type": "uint256"
        }
      ],
      "stateMutability": "view",
      "type": "function"
    },
    {
      "inputs": [],
      "name": "owner",
      "outputs": [
        {
          "internalType": "address",
          "name": "",
          "type": "address"
        }
      ],
      "stateMutability": "view",
      "type": "function"
    },
    {
      "inputs": [],
      "name": "paused",
      "outputs": [
        {
          "internalType": "bool",
          "name": "",
          "type": "bool"
        }
      ],
      "stateMutability": "view",
      "type": "function"
    },
    {
      "inputs": [],
      "name": "renounceOwnership",
      "outputs": [],
      "stateMutability": "nonpayable",
      "type": "function"
    },
    {
      "inputs": [],
      "name": "rewardRate",
      "outputs": [
        {
          "internalType": "uint256",
          "name": "",
          "type": "uint256"
        }
      ],
      "stateMutability": "view",
      "type": "function"
    },
    {
      "inputs": [],
      "name": "roundTime",
      "outputs": [
        {
          "internalType": "uint256",
          "name": "",
          "type": "uint256"
        }
      ],
      "stateMutability": "view",
      "type": "function"
    },
    {
      "inputs": [
        {
          "internalType": "uint256",
          "name": "",
          "type": "uint256"
        }
      ],
      "name": "rounds",
      "outputs": [
        {
          "internalType": "uint256",
          "name": "epoch",
          "type": "uint256"
        },
        {
          "internalType": "uint256",
          "name": "startTime",
          "type": "uint256"
        },
        {
          "internalType": "uint256",
          "name": "lockTime",
          "type": "uint256"
        },
        {
          "internalType": "uint256",
          "name": "endTime",
          "type": "uint256"
        },
        {
          "internalType": "int256",
          "name": "lockPrice",
          "type": "int256"
        },
        {
          "internalType": "int256",
          "name": "closePrice",
          "type": "int256"
        },
        {
          "internalType": "uint256",
          "name": "totalAmount",
          "type": "uint256"
        },
        {
          "internalType": "uint256",
          "name": "bullAmount",
          "type": "uint256"
        },
        {
          "internalType": "uint256",
          "name": "bearAmount",
          "type": "uint256"
        },
        {
          "internalType": "uint256",
          "name": "rewardBaseCalAmount",
          "type": "uint256"
        },
        {
          "internalType": "uint256",
          "name": "rewardAmount",
          "type": "uint256"
        },
        {
          "internalType": "bool",
          "name": "oracleCalled",
          "type": "bool"
        }
      ],
      "stateMutability": "view",
      "type": "function"
    },
    {
      "inputs": [
        {
          "internalType": "address",
          "name": "newOwner",
          "type": "address"
        }
      ],
      "name": "transferOwnership",
      "outputs": [],
      "stateMutability": "nonpayable",
      "type": "function"
    },
    {
      "inputs": [],
      "name": "treasuryAmount",
      "outputs": [
        {
          "internalType": "uint256",
          "name": "",
          "type": "uint256"
        }
      ],
      "stateMutability": "view",
      "type": "function"
    },
    {
      "inputs": [],
      "name": "treasuryRate",
      "outputs": [
        {
          "internalType": "uint256",
          "name": "",
          "type": "uint256"
        }
      ],
      "stateMutability": "view",
      "type": "function"
    },
    {
      "inputs": [
        {
          "internalType": "address",
          "name": "",
          "type": "address"
        },
        {
          "internalType": "uint256",
          "name": "",
          "type": "uint256"
        }
      ],
      "name": "userRounds",
      "outputs": [
        {
          "internalType": "uint256",
          "name": "",
          "type": "uint256"
        }
      ],
      "stateMutability": "view",
      "type": "function"
    },
    {
      "inputs": [
        {
          "internalType": "address",
          "name": "_adminAddress",
          "type": "address"
        }
      ],
      "name": "setAdmin",
      "outputs": [],
      "stateMutability": "nonpayable",
      "type": "function"
    },
    {
      "inputs": [
        {
          "internalType": "address",
          "name": "_operatorAddress",
          "type": "address"
        }
      ],
      "name": "setOperator",
      "outputs": [],
      "stateMutability": "nonpayable",
      "type": "function"
    },
    {
      "inputs": [
        {
          "internalType": "uint256",
          "name": "_roundTime",
          "type": "uint256"
        }
      ],
      "name": "setRoundTime",
      "outputs": [],
      "stateMutability": "nonpayable",
      "type": "function"
    },
    {
      "inputs": [
        {
          "internalType": "uint256",
          "name": "_betTime",
          "type": "uint256"
        }
      ],
      "name": "setBetTime",
      "outputs": [],
      "stateMutability": "nonpayable",
      "type": "function"
    },
    {
      "inputs": [
        {
          "internalType": "address",
          "name": "_oracle",
          "type": "address"
        }
      ],
      "name": "setOracle",
      "outputs": [],
      "stateMutability": "nonpayable",
      "type": "function"
    },
    {
      "inputs": [
        {
          "internalType": "uint256",
          "name": "_oracleUpdateAllowance",
          "type": "uint256"
        }
      ],
      "name": "setOracleUpdateAllowance",
      "outputs": [],
      "stateMutability": "nonpayable",
      "type": "function"
    },
    {
      "inputs": [
        {
          "internalType": "uint256",
          "name": "_rewardRate",
          "type": "uint256"
        }
      ],
      "name": "setRewardRate",
      "outputs": [],
      "stateMutability": "nonpayable",
      "type": "function"
    },
    {
      "inputs": [
        {
          "internalType": "uint256",
          "name": "_treasuryRate",
          "type": "uint256"
        }
      ],
      "name": "setTreasuryRate",
      "outputs": [],
      "stateMutability": "nonpayable",
      "type": "function"
    },
    {
      "inputs": [
        {
          "internalType": "uint256",
          "name": "_minBetAmount",
          "type": "uint256"
        }
      ],
      "name": "setMinBetAmount",
      "outputs": [],
      "stateMutability": "nonpayable",
      "type": "function"
    },
    {
      "inputs": [],
      "name": "genesisStartRound",
      "outputs": [],
      "stateMutability": "nonpayable",
      "type": "function"
    },
    {
      "inputs": [],
      "name": "genesisLockRound",
      "outputs": [],
      "stateMutability": "nonpayable",
      "type": "function"
    },
    {
      "inputs": [],
      "name": "lockRound",
      "outputs": [],
      "stateMutability": "nonpayable",
      "type": "function"
    },
    {
      "inputs": [],
      "name": "nextRound",
      "outputs": [],
      "stateMutability": "nonpayable",
      "type": "function"
    },
    {
      "inputs": [],
      "name": "betBear",
      "outputs": [],
      "stateMutability": "payable",
      "type": "function"
    },
    {
      "inputs": [],
      "name": "betBull",
      "outputs": [],
      "stateMutability": "payable",
      "type": "function"
    },
    {
      "inputs": [
        {
          "internalType": "uint256",
          "name": "epoch",
          "type": "uint256"
        }
      ],
      "name": "claim",
      "outputs": [],
      "stateMutability": "nonpayable",
      "type": "function"
    },
    {
      "inputs": [],
      "name": "claimTreasury",
      "outputs": [],
      "stateMutability": "nonpayable",
      "type": "function"
    },
    {
      "inputs": [
        {
          "internalType": "address",
          "name": "user",
          "type": "address"
        },
        {
          "internalType": "uint256",
          "name": "cursor",
          "type": "uint256"
        },
        {
          "internalType": "uint256",
          "name": "size",
          "type": "uint256"
        }
      ],
      "name": "getUserRounds",
      "outputs": [
        {
          "internalType": "uint256[]",
          "name": "",
          "type": "uint256[]"
        },
        {
          "internalType": "uint256",
          "name": "",
          "type": "uint256"
        }
      ],
      "stateMutability": "view",
      "type": "function"
    },
    {
      "inputs": [],
      "name": "pause",
      "outputs": [],
      "stateMutability": "nonpayable",
      "type": "function"
    },
    {
      "inputs": [],
      "name": "unpause",
      "outputs": [],
      "stateMutability": "nonpayable",
      "type": "function"
    },
    {
      "inputs": [
        {
          "internalType": "uint256",
          "name": "epoch",
          "type": "uint256"
        },
        {
          "internalType": "address",
          "name": "user",
          "type": "address"
        }
      ],
      "name": "claimable",
      "outputs": [
        {
          "internalType": "bool",
          "name": "",
          "type": "bool"
        }
      ],
      "stateMutability": "view",
      "type": "function"
    },
    {
      "inputs": [
        {
          "internalType": "uint256",
          "name": "epoch",
          "type": "uint256"
        },
        {
          "internalType": "address",
          "name": "user",
          "type": "address"
        }
      ],
      "name": "refundable",
      "outputs": [
        {
          "internalType": "bool",
          "name": "",
          "type": "bool"
        }
      ],
      "stateMutability": "view",
      "type": "function"
    }
  ],
  "bytecode": "0x60806040526060600d556004600e556000601160006101000a81548160ff0219169083151502179055506000601160016101000a81548160ff0219169083151502179055503480156200005157600080fd5b5060405162005f0f38038062005f0f83398181016040528101906200007791906200029e565b60006200009262000268640100000000026401000000009004565b9050806000806101000a81548173ffffffffffffffffffffffffffffffffffffffff021916908373ffffffffffffffffffffffffffffffffffffffff1602179055508073ffffffffffffffffffffffffffffffffffffffff16600073ffffffffffffffffffffffffffffffffffffffff167f8be0079c531659141344cd1fd0a4f28419497f9722a3daafe3b4186f6b6457e060405160405180910390a35060008060146101000a81548160ff021916908315150217905550732514895c72f50d8bd4b4f9b1110f0d6bd2c97526600b60006101000a81548173ffffffffffffffffffffffffffffffffffffffff021916908373ffffffffffffffffffffffffffffffffffffffff160217905550620001b862000268640100000000026401000000009004565b600860006101000a81548173ffffffffffffffffffffffffffffffffffffffff021916908373ffffffffffffffffffffffffffffffffffffffff16021790555084600960006101000a81548173ffffffffffffffffffffffffffffffffffffffff021916908373ffffffffffffffffffffffffffffffffffffffff160217905550836005819055508260068190555081600f8190555080601081905550600260078190555050505050506200039d565b600033905090565b600081519050620002818162000369565b92915050565b600081519050620002988162000383565b92915050565b600080600080600060a08688031215620002bd57620002bc62000364565b5b6000620002cd8882890162000270565b9550506020620002e08882890162000287565b9450506040620002f38882890162000287565b9350506060620003068882890162000287565b9250506080620003198882890162000287565b9150509295509295909350565b600062000333826200033a565b9050919050565b600073ffffffffffffffffffffffffffffffffffffffff82169050919050565b6000819050919050565b600080fd5b620003748162000326565b81146200038057600080fd5b50565b6200038e816200035a565b81146200039a57600080fd5b50565b615b6280620003ad6000396000f3fe608060405260043610610282576000357c0100000000000000000000000000000000000000000000000000000000900480638456cb5911610161578063d0bf9c54116100d3578063ee5f8c8f11610097578063ee5f8c8f1461086f578063f2fde38b1461089a578063f7fdec28146108c3578063fa65cb04146108ee578063fa968eea14610917578063fc6f94681461094257610282565b8063d0bf9c541461079c578063d9d55eac146107c5578063dd1f7596146107dc578063e4b7251614610819578063ec3247031461084457610282565b8063a0c7f71c11610125578063a0c7f71c1461068c578063b29c299b146106c9578063b3ab15fb146106f4578063ba7b67031461071d578063c10ba76b14610748578063cf2f50391461077357610282565b80638456cb591461059b5780638c65c81f146105b25780638da5cb5b146105fa578063951fd600146106255780639e447fc61461066357610282565b80636c188593116101fa578063728af96f116101be578063728af96f146104be57806376671808146104d55780637adbf973146105005780637b0a47ee146105295780637bf4125414610554578063821daba11461059157610282565b80636c188593146103ed578063704b6c0214610416578063709228961461043f578063715018a6146104685780637285c58b1461047f57610282565b8063379607f51161024c578063379607f5146103295780633f4ba83a14610352578063452fd75a1461036957806347e40553146103805780635c975abb1461039757806360554011146103c257610282565b80623bdc741461028757806288160f1461029e5780630f74174f146102a8578063127effb2146102d3578063368acb09146102fe575b600080fd5b34801561029357600080fd5b5061029c61096d565b005b6102a6610a72565b005b3480156102b457600080fd5b506102bd610e3e565b6040516102ca919061479c565b60405180910390f35b3480156102df57600080fd5b506102e8610e51565b6040516102f59190614751565b60405180910390f35b34801561030a57600080fd5b50610313610e77565b6040516103209190614cce565b60405180910390f35b34801561033557600080fd5b50610350600480360381019061034b919061400c565b610e7d565b005b34801561035e57600080fd5b506103676113a0565b005b34801561037557600080fd5b5061037e6114f0565b005b34801561038c57600080fd5b50610395611655565b005b3480156103a357600080fd5b506103ac6117da565b6040516103b9919061479c565b60405180910390f35b3480156103ce57600080fd5b506103d76117f0565b6040516103e49190614cce565b60405180910390f35b3480156103f957600080fd5b50610414600480360381019061040f919061400c565b6117f6565b005b34801561042257600080fd5b5061043d60048036038101906104389190613f4c565b6118cc565b005b34801561044b57600080fd5b506104666004803603810190610461919061400c565b6119fc565b005b34801561047457600080fd5b5061047d611adb565b005b34801561048b57600080fd5b506104a660048036038101906104a19190614039565b611c15565b6040516104b5939291906147b7565b60405180910390f35b3480156104ca57600080fd5b506104d3611c66565b005b3480156104e157600080fd5b506104ea611d59565b6040516104f79190614cce565b60405180910390f35b34801561050c57600080fd5b5061052760048036038101906105229190613f4c565b611d5f565b005b34801561053557600080fd5b5061053e611ea3565b60405161054b9190614cce565b60405180910390f35b34801561056057600080fd5b5061057b60048036038101906105769190614039565b611ea9565b604051610588919061479c565b60405180910390f35b61059961205a565b005b3480156105a757600080fd5b506105b0612426565b005b3480156105be57600080fd5b506105d960048036038101906105d4919061400c565b612599565b6040516105f19c9b9a99989796959493929190614d72565b60405180910390f35b34801561060657600080fd5b5061060f612606565b60405161061c9190614751565b60405180910390f35b34801561063157600080fd5b5061064c60048036038101906106479190613fb9565b61262f565b60405161065a92919061476c565b60405180910390f35b34801561066f57600080fd5b5061068a6004803603810190610685919061400c565b6127ea565b005b34801561069857600080fd5b506106b360048036038101906106ae9190614039565b612922565b6040516106c0919061479c565b60405180910390f35b3480156106d557600080fd5b506106de612b3c565b6040516106eb9190614cce565b60405180910390f35b34801561070057600080fd5b5061071b60048036038101906107169190613f4c565b612b41565b005b34801561072957600080fd5b50610732612c85565b60405161073f9190614cce565b60405180910390f35b34801561075457600080fd5b5061075d612c8b565b60405161076a9190614cce565b60405180910390f35b34801561077f57600080fd5b5061079a6004803603810190610795919061400c565b612c91565b005b3480156107a857600080fd5b506107c360048036038101906107be919061400c565b612d2b565b005b3480156107d157600080fd5b506107da612e63565b005b3480156107e857600080fd5b5061080360048036038101906107fe9190613f79565b61307f565b6040516108109190614cce565b60405180910390f35b34801561082557600080fd5b5061082e6130b0565b60405161083b9190614cce565b60405180910390f35b34801561085057600080fd5b506108596130b6565b6040516108669190614cce565b60405180910390f35b34801561087b57600080fd5b506108846130bc565b6040516108919190614cce565b60405180910390f35b3480156108a657600080fd5b506108c160048036038101906108bc9190613f4c565b6130c2565b005b3480156108cf57600080fd5b506108d861326b565b6040516108e5919061479c565b60405180910390f35b3480156108fa57600080fd5b506109156004803603810190610910919061400c565b61327e565b005b34801561092357600080fd5b5061092c613318565b6040516109399190614cce565b60405180910390f35b34801561094e57600080fd5b5061095761331e565b6040516109649190614751565b60405180910390f35b600860009054906101000a900473ffffffffffffffffffffffffffffffffffffffff1673ffffffffffffffffffffffffffffffffffffffff163373ffffffffffffffffffffffffffffffffffffffff16146109fd576040517f08c379a00000000000000000000000000000000000000000000000000000000081526004016109f490614b2e565b60405180910390fd5b6000600a5490506000600a81905550610a38600860009054906101000a900473ffffffffffffffffffffffffffffffffffffffff1682613344565b7f609175abb7f12481e4f200d1ef4fc834e6caac3d9eadba42d664352f6d0932ca81604051610a679190614cce565b60405180910390a150565b610a7a6117da565b15610aba576040517f08c379a0000000000000000000000000000000000000000000000000000000008152600401610ab1906149ce565b60405180910390fd5b610ac3336133f9565b15610b03576040517f08c379a0000000000000000000000000000000000000000000000000000000008152600401610afa90614aae565b60405180910390fd5b3273ffffffffffffffffffffffffffffffffffffffff163373ffffffffffffffffffffffffffffffffffffffff1614610b71576040517f08c379a0000000000000000000000000000000000000000000000000000000008152600401610b68906147ee565b60405180910390fd5b610b7c60045461340c565b610bbb576040517f08c379a0000000000000000000000000000000000000000000000000000000008152600401610bb290614ace565b60405180910390fd5b600f54341015610c00576040517f08c379a0000000000000000000000000000000000000000000000000000000008152600401610bf79061498e565b60405180910390fd5b600060026000600454815260200190815260200160002060003373ffffffffffffffffffffffffffffffffffffffff1673ffffffffffffffffffffffffffffffffffffffff1681526020019081526020016000206001015414610c98576040517f08c379a0000000000000000000000000000000000000000000000000000000008152600401610c8f90614c0e565b60405180910390fd5b600034905060006001600060045481526020019081526020016000209050610ccd82826006015461349490919063ffffffff16565b8160060181905550610cec82826008015461349490919063ffffffff16565b8160080181905550600060026000600454815260200190815260200160002060003373ffffffffffffffffffffffffffffffffffffffff1673ffffffffffffffffffffffffffffffffffffffff168152602001908152602001600020905060018160000160006101000a81548160ff02191690836001811115610d7257610d716150ca565b5b0217905550828160010181905550600360003373ffffffffffffffffffffffffffffffffffffffff1673ffffffffffffffffffffffffffffffffffffffff16815260200190815260200160002060045490806001815401808255809150506001900390600052602060002001600090919091909150556004543373ffffffffffffffffffffffffffffffffffffffff167f0d8c1fe3e67ab767116a81f122b83c2557a8c2564019cb7c4f83de1aeb1f1f0d85604051610e319190614cce565b60405180910390a3505050565b601160019054906101000a900460ff1681565b600960009054906101000a900473ffffffffffffffffffffffffffffffffffffffff1681565b600a5481565b610e86336133f9565b15610ec6576040517f08c379a0000000000000000000000000000000000000000000000000000000008152600401610ebd90614aae565b60405180910390fd5b3273ffffffffffffffffffffffffffffffffffffffff163373ffffffffffffffffffffffffffffffffffffffff1614610f34576040517f08c379a0000000000000000000000000000000000000000000000000000000008152600401610f2b906147ee565b60405180910390fd5b600060016000838152602001908152602001600020600101541415610f8e576040517f08c379a0000000000000000000000000000000000000000000000000000000008152600401610f8590614bce565b60405180910390fd5b60016000828152602001908152602001600020600301544211610fe6576040517f08c379a0000000000000000000000000000000000000000000000000000000008152600401610fdd906149ae565b60405180910390fd5b6002600082815260200190815260200160002060003373ffffffffffffffffffffffffffffffffffffffff1673ffffffffffffffffffffffffffffffffffffffff16815260200190815260200160002060020160009054906101000a900460ff1615611087576040517f08c379a000000000000000000000000000000000000000000000000000000000815260040161107e90614cae565b60405180910390fd5b600060016000838152602001908152602001600020600b0160009054906101000a900460ff1615611231576110bc8233612922565b6110fb576040517f08c379a00000000000000000000000000000000000000000000000000000000081526004016110f2906148ee565b60405180910390fd5b6000600160008481526020019081526020016000206040518061018001604052908160008201548152602001600182015481526020016002820154815260200160038201548152602001600482015481526020016005820154815260200160068201548152602001600782015481526020016008820154815260200160098201548152602001600a8201548152602001600b820160009054906101000a900460ff161515151581525050905061122981610120015161121b8361014001516002600088815260200190815260200160002060003373ffffffffffffffffffffffffffffffffffffffff1673ffffffffffffffffffffffffffffffffffffffff168152602001908152602001600020600101546134aa90919063ffffffff16565b6134c090919063ffffffff16565b9150506112d1565b61123b8233611ea9565b61127a576040517f08c379a00000000000000000000000000000000000000000000000000000000081526004016112719061484e565b60405180910390fd5b6002600083815260200190815260200160002060003373ffffffffffffffffffffffffffffffffffffffff1673ffffffffffffffffffffffffffffffffffffffff1681526020019081526020016000206001015490505b60006002600084815260200190815260200160002060003373ffffffffffffffffffffffffffffffffffffffff1673ffffffffffffffffffffffffffffffffffffffff168152602001908152602001600020905060018160020160006101000a81548160ff02191690831515021790555061134c3383613344565b823373ffffffffffffffffffffffffffffffffffffffff167f34fcbac0073d7c3d388e51312faf357774904998eeb8fca628b9e6f65ee1cbf7846040516113939190614cce565b60405180910390a3505050565b600860009054906101000a900473ffffffffffffffffffffffffffffffffffffffff1673ffffffffffffffffffffffffffffffffffffffff163373ffffffffffffffffffffffffffffffffffffffff1614611430576040517f08c379a000000000000000000000000000000000000000000000000000000000815260040161142790614b2e565b60405180910390fd5b6114386117da565b611477576040517f08c379a000000000000000000000000000000000000000000000000000000000815260040161146e9061480e565b60405180910390fd5b6000601160006101000a81548160ff0219169083151502179055506000601160016101000a81548160ff0219169083151502179055506114b56134d6565b7faaa520fdd7d2c83061d632fa017b0432407e798818af63ea908589fceda39ab76004546040516114e69190614cce565b60405180910390a1565b600960009054906101000a900473ffffffffffffffffffffffffffffffffffffffff1673ffffffffffffffffffffffffffffffffffffffff163373ffffffffffffffffffffffffffffffffffffffff1614611580576040517f08c379a000000000000000000000000000000000000000000000000000000000815260040161157790614bae565b60405180910390fd5b6115886117da565b156115c8576040517f08c379a00000000000000000000000000000000000000000000000000000000081526004016115bf906149ce565b60405180910390fd5b601160009054906101000a900460ff1615611618576040517f08c379a000000000000000000000000000000000000000000000000000000000815260040161160f90614b0e565b60405180910390fd5b60016004546116279190614e81565b600481905550611638600454613577565b6001601160006101000a81548160ff021916908315150217905550565b600960009054906101000a900473ffffffffffffffffffffffffffffffffffffffff1673ffffffffffffffffffffffffffffffffffffffff163373ffffffffffffffffffffffffffffffffffffffff16146116e5576040517f08c379a00000000000000000000000000000000000000000000000000000000081526004016116dc90614bae565b60405180910390fd5b6116ed6117da565b1561172d576040517f08c379a0000000000000000000000000000000000000000000000000000000008152600401611724906149ce565b60405180910390fd5b601160009054906101000a900460ff1680156117555750601160019054906101000a900460ff165b611794576040517f08c379a000000000000000000000000000000000000000000000000000000000815260040161178b90614b4e565b60405180910390fd5b600061179e61362d565b90506117ac600454826137c0565b6117b76004546138ee565b60016004546117c69190614e81565b6004819055506117d7600454613aeb565b50565b60008060149054906101000a900460ff16905090565b60105481565b600860009054906101000a900473ffffffffffffffffffffffffffffffffffffffff1673ffffffffffffffffffffffffffffffffffffffff163373ffffffffffffffffffffffffffffffffffffffff1614611886576040517f08c379a000000000000000000000000000000000000000000000000000000000815260040161187d90614b2e565b60405180910390fd5b80600f819055506004547f82480e97991520549ac4b5d0e1d97edb3bfac2666202923b6903d2a953dc7608600f546040516118c19190614cce565b60405180910390a250565b6118d4613c11565b73ffffffffffffffffffffffffffffffffffffffff166118f2612606565b73ffffffffffffffffffffffffffffffffffffffff1614611948576040517f08c379a000000000000000000000000000000000000000000000000000000000815260040161193f90614a6e565b60405180910390fd5b600073ffffffffffffffffffffffffffffffffffffffff168173ffffffffffffffffffffffffffffffffffffffff1614156119b8576040517f08c379a00000000000000000000000000000000000000000000000000000000081526004016119af906149ee565b60405180910390fd5b80600860006101000a81548173ffffffffffffffffffffffffffffffffffffffff021916908373ffffffffffffffffffffffffffffffffffffffff16021790555050565b600860009054906101000a900473ffffffffffffffffffffffffffffffffffffffff1673ffffffffffffffffffffffffffffffffffffffff163373ffffffffffffffffffffffffffffffffffffffff1614611a8c576040517f08c379a0000000000000000000000000000000000000000000000000000000008152600401611a8390614b2e565b60405180910390fd5b600554811115611ad1576040517f08c379a0000000000000000000000000000000000000000000000000000000008152600401611ac890614a8e565b60405180910390fd5b8060068190555050565b611ae3613c11565b73ffffffffffffffffffffffffffffffffffffffff16611b01612606565b73ffffffffffffffffffffffffffffffffffffffff1614611b57576040517f08c379a0000000000000000000000000000000000000000000000000000000008152600401611b4e90614a6e565b60405180910390fd5b600073ffffffffffffffffffffffffffffffffffffffff1660008054906101000a900473ffffffffffffffffffffffffffffffffffffffff1673ffffffffffffffffffffffffffffffffffffffff167f8be0079c531659141344cd1fd0a4f28419497f9722a3daafe3b4186f6b6457e060405160405180910390a360008060006101000a81548173ffffffffffffffffffffffffffffffffffffffff021916908373ffffffffffffffffffffffffffffffffffffffff160217905550565b6002602052816000526040600020602052806000526040600020600091509150508060000160009054906101000a900460ff16908060010154908060020160009054906101000a900460ff16905083565b600960009054906101000a900473ffffffffffffffffffffffffffffffffffffffff1673ffffffffffffffffffffffffffffffffffffffff163373ffffffffffffffffffffffffffffffffffffffff1614611cf6576040517f08c379a0000000000000000000000000000000000000000000000000000000008152600401611ced90614bae565b60405180910390fd5b611cfe6117da565b15611d3e576040517f08c379a0000000000000000000000000000000000000000000000000000000008152600401611d35906149ce565b60405180910390fd5b6000611d4861362d565b9050611d5660045482613c19565b50565b60045481565b600860009054906101000a900473ffffffffffffffffffffffffffffffffffffffff1673ffffffffffffffffffffffffffffffffffffffff163373ffffffffffffffffffffffffffffffffffffffff1614611def576040517f08c379a0000000000000000000000000000000000000000000000000000000008152600401611de690614b2e565b60405180910390fd5b600073ffffffffffffffffffffffffffffffffffffffff168173ffffffffffffffffffffffffffffffffffffffff161415611e5f576040517f08c379a0000000000000000000000000000000000000000000000000000000008152600401611e56906149ee565b60405180910390fd5b80600b60006101000a81548173ffffffffffffffffffffffffffffffffffffffff021916908373ffffffffffffffffffffffffffffffffffffffff16021790555050565b600d5481565b6000806002600085815260200190815260200160002060008473ffffffffffffffffffffffffffffffffffffffff1673ffffffffffffffffffffffffffffffffffffffff1681526020019081526020016000206040518060600160405290816000820160009054906101000a900460ff166001811115611f2c57611f2b6150ca565b5b6001811115611f3e57611f3d6150ca565b5b8152602001600182015481526020016002820160009054906101000a900460ff16151515158152505090506000600160008681526020019081526020016000206040518061018001604052908160008201548152602001600182015481526020016002820154815260200160038201548152602001600482015481526020016005820154815260200160068201548152602001600782015481526020016008820154815260200160098201548152602001600a8201548152602001600b820160009054906101000a900460ff161515151581525050905080610160015115801561203f575061203c600754826060015161349490919063ffffffff16565b42115b801561205057506000826020015114155b9250505092915050565b6120626117da565b156120a2576040517f08c379a0000000000000000000000000000000000000000000000000000000008152600401612099906149ce565b60405180910390fd5b6120ab336133f9565b156120eb576040517f08c379a00000000000000000000000000000000000000000000000000000000081526004016120e290614aae565b60405180910390fd5b3273ffffffffffffffffffffffffffffffffffffffff163373ffffffffffffffffffffffffffffffffffffffff1614612159576040517f08c379a0000000000000000000000000000000000000000000000000000000008152600401612150906147ee565b60405180910390fd5b61216460045461340c565b6121a3576040517f08c379a000000000000000000000000000000000000000000000000000000000815260040161219a90614ace565b60405180910390fd5b600f543410156121e8576040517f08c379a00000000000000000000000000000000000000000000000000000000081526004016121df9061498e565b60405180910390fd5b600060026000600454815260200190815260200160002060003373ffffffffffffffffffffffffffffffffffffffff1673ffffffffffffffffffffffffffffffffffffffff1681526020019081526020016000206001015414612280576040517f08c379a000000000000000000000000000000000000000000000000000000000815260040161227790614c0e565b60405180910390fd5b6000349050600060016000600454815260200190815260200160002090506122b582826006015461349490919063ffffffff16565b81600601819055506122d482826007015461349490919063ffffffff16565b8160070181905550600060026000600454815260200190815260200160002060003373ffffffffffffffffffffffffffffffffffffffff1673ffffffffffffffffffffffffffffffffffffffff168152602001908152602001600020905060008160000160006101000a81548160ff0219169083600181111561235a576123596150ca565b5b0217905550828160010181905550600360003373ffffffffffffffffffffffffffffffffffffffff1673ffffffffffffffffffffffffffffffffffffffff16815260200190815260200160002060045490806001815401808255809150506001900390600052602060002001600090919091909150556004543373ffffffffffffffffffffffffffffffffffffffff167f438122d8cff518d18388099a5181f0d17a12b4f1b55faedf6e4a6acee0060c12856040516124199190614cce565b60405180910390a3505050565b600860009054906101000a900473ffffffffffffffffffffffffffffffffffffffff1673ffffffffffffffffffffffffffffffffffffffff163373ffffffffffffffffffffffffffffffffffffffff1614806124cf5750600960009054906101000a900473ffffffffffffffffffffffffffffffffffffffff1673ffffffffffffffffffffffffffffffffffffffff163373ffffffffffffffffffffffffffffffffffffffff16145b61250e576040517f08c379a000000000000000000000000000000000000000000000000000000000815260040161250590614a2e565b60405180910390fd5b6125166117da565b15612556576040517f08c379a000000000000000000000000000000000000000000000000000000000815260040161254d906149ce565b60405180910390fd5b61255e613d47565b7f68b095021b1f40fe513109f513c66692f0b3219aee674a69f4efc57badb8201d60045460405161258f9190614cce565b60405180910390a1565b600160205280600052604060002060009150905080600001549080600101549080600201549080600301549080600401549080600501549080600601549080600701549080600801549080600901549080600a01549080600b0160009054906101000a900460ff1690508c565b60008060009054906101000a900473ffffffffffffffffffffffffffffffffffffffff16905090565b606060008083905084600360008873ffffffffffffffffffffffffffffffffffffffff1673ffffffffffffffffffffffffffffffffffffffff168152602001908152602001600020805490506126859190614f62565b8111156126dd5784600360008873ffffffffffffffffffffffffffffffffffffffff1673ffffffffffffffffffffffffffffffffffffffff168152602001908152602001600020805490506126da9190614f62565b90505b60008167ffffffffffffffff8111156126f9576126f8615128565b5b6040519080825280602002602001820160405280156127275781602001602082028036833780820191505090505b50905060005b828110156127ce57600360008973ffffffffffffffffffffffffffffffffffffffff1673ffffffffffffffffffffffffffffffffffffffff16815260200190815260200160002081886127809190614e81565b81548110612791576127906150f9565b5b90600052602060002001548282815181106127af576127ae6150f9565b5b60200260200101818152505080806127c690615023565b91505061272d565b508082876127dc9190614e81565b935093505050935093915050565b600860009054906101000a900473ffffffffffffffffffffffffffffffffffffffff1673ffffffffffffffffffffffffffffffffffffffff163373ffffffffffffffffffffffffffffffffffffffff161461287a576040517f08c379a000000000000000000000000000000000000000000000000000000000815260040161287190614b2e565b60405180910390fd5b60648111156128be576040517f08c379a00000000000000000000000000000000000000000000000000000000081526004016128b590614bee565b60405180910390fd5b80600d819055506128d9816064613dea90919063ffffffff16565b600e819055506004547f023010bc68e7f4c0be9887f513c570c7a0f5f511b9716abccd42bf3b8943532b600d54600e54604051612917929190614d12565b60405180910390a250565b6000806002600085815260200190815260200160002060008473ffffffffffffffffffffffffffffffffffffffff1673ffffffffffffffffffffffffffffffffffffffff1681526020019081526020016000206040518060600160405290816000820160009054906101000a900460ff1660018111156129a5576129a46150ca565b5b60018111156129b7576129b66150ca565b5b8152602001600182015481526020016002820160009054906101000a900460ff16151515158152505090506000600160008681526020019081526020016000206040518061018001604052908160008201548152602001600182015481526020016002820154815260200160038201548152602001600482015481526020016005820154815260200160068201548152602001600782015481526020016008820154815260200160098201548152602001600a8201548152602001600b820160009054906101000a900460ff16151515158152505090508061016001518015612b32575080608001518160a00151138015612ada575060006001811115612ac157612ac06150ca565b5b82600001516001811115612ad857612ad76150ca565b5b145b80612b1f575080608001518160a00151128015612b1e5750600180811115612b0557612b046150ca565b5b82600001516001811115612b1c57612b1b6150ca565b5b145b5b80612b31575080608001518160a00151145b5b9250505092915050565b606481565b600860009054906101000a900473ffffffffffffffffffffffffffffffffffffffff1673ffffffffffffffffffffffffffffffffffffffff163373ffffffffffffffffffffffffffffffffffffffff1614612bd1576040517f08c379a0000000000000000000000000000000000000000000000000000000008152600401612bc890614b2e565b60405180910390fd5b600073ffffffffffffffffffffffffffffffffffffffff168173ffffffffffffffffffffffffffffffffffffffff161415612c41576040517f08c379a0000000000000000000000000000000000000000000000000000000008152600401612c38906149ee565b60405180910390fd5b80600960006101000a81548173ffffffffffffffffffffffffffffffffffffffff021916908373ffffffffffffffffffffffffffffffffffffffff16021790555050565b60075481565b60065481565b600860009054906101000a900473ffffffffffffffffffffffffffffffffffffffff1673ffffffffffffffffffffffffffffffffffffffff163373ffffffffffffffffffffffffffffffffffffffff1614612d21576040517f08c379a0000000000000000000000000000000000000000000000000000000008152600401612d1890614b2e565b60405180910390fd5b8060108190555050565b600860009054906101000a900473ffffffffffffffffffffffffffffffffffffffff1673ffffffffffffffffffffffffffffffffffffffff163373ffffffffffffffffffffffffffffffffffffffff1614612dbb576040517f08c379a0000000000000000000000000000000000000000000000000000000008152600401612db290614b2e565b60405180910390fd5b6064811115612dff576040517f08c379a0000000000000000000000000000000000000000000000000000000008152600401612df690614c2e565b60405180910390fd5b612e13816064613dea90919063ffffffff16565b600d8190555080600e819055506004547f023010bc68e7f4c0be9887f513c570c7a0f5f511b9716abccd42bf3b8943532b600d54600e54604051612e58929190614d12565b60405180910390a250565b600960009054906101000a900473ffffffffffffffffffffffffffffffffffffffff1673ffffffffffffffffffffffffffffffffffffffff163373ffffffffffffffffffffffffffffffffffffffff1614612ef3576040517f08c379a0000000000000000000000000000000000000000000000000000000008152600401612eea90614bae565b60405180910390fd5b612efb6117da565b15612f3b576040517f08c379a0000000000000000000000000000000000000000000000000000000008152600401612f32906149ce565b60405180910390fd5b601160009054906101000a900460ff16612f8a576040517f08c379a0000000000000000000000000000000000000000000000000000000008152600401612f819061488e565b60405180910390fd5b601160019054906101000a900460ff1615612fda576040517f08c379a0000000000000000000000000000000000000000000000000000000008152600401612fd19061492e565b60405180910390fd5b6130076007546001600060045481526020019081526020016000206002015461349490919063ffffffff16565b421115613049576040517f08c379a00000000000000000000000000000000000000000000000000000000081526004016130409061482e565b60405180910390fd5b600061305361362d565b905061306160045482613c19565b6001601160016101000a81548160ff02191690831515021790555050565b6003602052816000526040600020818154811061309b57600080fd5b90600052602060002001600091509150505481565b600e5481565b600c5481565b60055481565b6130ca613c11565b73ffffffffffffffffffffffffffffffffffffffff166130e8612606565b73ffffffffffffffffffffffffffffffffffffffff161461313e576040517f08c379a000000000000000000000000000000000000000000000000000000000815260040161313590614a6e565b60405180910390fd5b600073ffffffffffffffffffffffffffffffffffffffff168173ffffffffffffffffffffffffffffffffffffffff1614156131ae576040517f08c379a00000000000000000000000000000000000000000000000000000000081526004016131a5906148ae565b60405180910390fd5b8073ffffffffffffffffffffffffffffffffffffffff1660008054906101000a900473ffffffffffffffffffffffffffffffffffffffff1673ffffffffffffffffffffffffffffffffffffffff167f8be0079c531659141344cd1fd0a4f28419497f9722a3daafe3b4186f6b6457e060405160405180910390a3806000806101000a81548173ffffffffffffffffffffffffffffffffffffffff021916908373ffffffffffffffffffffffffffffffffffffffff16021790555050565b601160009054906101000a900460ff1681565b600860009054906101000a900473ffffffffffffffffffffffffffffffffffffffff1673ffffffffffffffffffffffffffffffffffffffff163373ffffffffffffffffffffffffffffffffffffffff161461330e576040517f08c379a000000000000000000000000000000000000000000000000000000000815260040161330590614b2e565b60405180910390fd5b8060058190555050565b600f5481565b600860009054906101000a900473ffffffffffffffffffffffffffffffffffffffff1681565b60008273ffffffffffffffffffffffffffffffffffffffff166159d88360405161336d9061473c565b600060405180830381858888f193505050503d80600081146133ab576040519150601f19603f3d011682016040523d82523d6000602084013e6133b0565b606091505b50509050806133f4576040517f08c379a00000000000000000000000000000000000000000000000000000000081526004016133eb90614b8e565b60405180910390fd5b505050565b600080823b905060008111915050919050565b60008060016000848152602001908152602001600020600101541415801561344b57506000600160008481526020019081526020016000206002015414155b801561346c5750600160008381526020019081526020016000206001015442115b801561348d5750600160008381526020019081526020016000206002015442105b9050919050565b600081836134a29190614e81565b905092915050565b600081836134b89190614f08565b905092915050565b600081836134ce9190614ed7565b905092915050565b6134de6117da565b61351d576040517f08c379a00000000000000000000000000000000000000000000000000000000081526004016135149061480e565b60405180910390fd5b60008060146101000a81548160ff0219169083151502179055507f5db9ee0a495bf2e6ff9c91a7834c1ba4fdd244a5e8aa4e537bd38aeae4b073aa613560613c11565b60405161356d9190614751565b60405180910390a1565b60006001600083815260200190815260200160002090504281600101819055506135ac6006544261349490919063ffffffff16565b81600201819055506135d66006546005546135c79190614e81565b4261349490919063ffffffff16565b816003018190555081816000018190555060008160060181905550817f0e5543feb86a4cd302f2b88b26c42be2d1673013a34e1f98bd6d524dd3b4ab41426040516136219190614cce565b60405180910390a25050565b6000806136456010544261349490919063ffffffff16565b90506000806000600b60009054906101000a900473ffffffffffffffffffffffffffffffffffffffff1673ffffffffffffffffffffffffffffffffffffffff1663feaf968c6040518163ffffffff167c010000000000000000000000000000000000000000000000000000000002815260040160a06040518083038186803b1580156136d057600080fd5b505afa1580156136e4573d6000803e3d6000fd5b505050506040513d601f19601f820116820180604052508101906137089190614079565b509350509250925083811115613753576040517f08c379a000000000000000000000000000000000000000000000000000000000815260040161374a90614c8e565b60405180910390fd5b600c548369ffffffffffffffffffff16116137a3576040517f08c379a000000000000000000000000000000000000000000000000000000000815260040161379a906148ce565b60405180910390fd5b8269ffffffffffffffffffff16600c819055508194505050505090565b60006001600084815260200190815260200160002060020154141561381a576040517f08c379a000000000000000000000000000000000000000000000000000000000815260040161381190614aee565b60405180910390fd5b6001600083815260200190815260200160002060030154421015613873576040517f08c379a000000000000000000000000000000000000000000000000000000000815260040161386a9061490e565b60405180910390fd5b61389e600754600160008581526020019081526020016000206003015461349490919063ffffffff16565b4211156138e0576040517f08c379a00000000000000000000000000000000000000000000000000000000081526004016138d790614b6e565b60405180910390fd5b6138ea8282613e00565b5050565b6064613907600e54600d5461349490919063ffffffff16565b14613947576040517f08c379a000000000000000000000000000000000000000000000000000000000815260040161393e90614a0e565b60405180910390fd5b600060016000838152602001908152602001600020600901541480156139835750600060016000838152602001908152602001600020600a0154145b6139c2576040517f08c379a00000000000000000000000000000000000000000000000000000000081526004016139b99061496e565b60405180910390fd5b60006001600083815260200190815260200160002090506000806000613a0a60646139fc600d5487600601546134aa90919063ffffffff16565b6134c090919063ffffffff16565b9150613a386064613a2a600e5487600601546134aa90919063ffffffff16565b6134c090919063ffffffff16565b9050836004015484600501541315613a565783600701549250613a7b565b836004015484600501541215613a725783600801549250613a7a565b836006015492505b5b8284600901819055508184600a0181905550613aa281600a5461349490919063ffffffff16565b600a81905550847f6dfdfcb09c8804d0058826cd2539f1acfbe3cb887c9be03d928035bce0f1a58d848484604051613adc93929190614d3b565b60405180910390a25050505050565b601160009054906101000a900460ff16613b3a576040517f08c379a0000000000000000000000000000000000000000000000000000000008152600401613b319061488e565b60405180910390fd5b600060016000600184613b4d9190614f62565b8152602001908152602001600020600301541415613ba0576040517f08c379a0000000000000000000000000000000000000000000000000000000008152600401613b9790614a4e565b60405180910390fd5b60016000600183613bb19190614f62565b815260200190815260200160002060030154421015613c05576040517f08c379a0000000000000000000000000000000000000000000000000000000008152600401613bfc9061494e565b60405180910390fd5b613c0e81613577565b50565b600033905090565b600060016000848152602001908152602001600020600101541415613c73576040517f08c379a0000000000000000000000000000000000000000000000000000000008152600401613c6a9061486e565b60405180910390fd5b6001600083815260200190815260200160002060020154421015613ccc576040517f08c379a0000000000000000000000000000000000000000000000000000000008152600401613cc390614c6e565b60405180910390fd5b613cf7600754600160008581526020019081526020016000206002015461349490919063ffffffff16565b421115613d39576040517f08c379a0000000000000000000000000000000000000000000000000000000008152600401613d3090614c4e565b60405180910390fd5b613d438282613e80565b5050565b613d4f6117da565b15613d8f576040517f08c379a0000000000000000000000000000000000000000000000000000000008152600401613d86906149ce565b60405180910390fd5b6001600060146101000a81548160ff0219169083151502179055507f62e78cea01bee320cd4e420270b5ea74000d11b0c9f74754ebdbfc544b05a258613dd3613c11565b604051613de09190614751565b60405180910390a1565b60008183613df89190614f62565b905092915050565b6000600160008481526020019081526020016000209050818160050181905550600181600b0160006101000a81548160ff021916908315150217905550827fb6ff1fe915db84788cbbbc017f0d2bef9485fad9fd0bd8ce9340fde0d8410dd8428360050154604051613e73929190614ce9565b60405180910390a2505050565b6000600160008481526020019081526020016000209050818160040181905550827f482e76a65b448a42deef26e99e58fb20c85e26f075defff8df6aa80459b39006428360040154604051613ed6929190614ce9565b60405180910390a2505050565b600081359050613ef281615ad0565b92915050565b600081519050613f0781615ae7565b92915050565b600081359050613f1c81615afe565b92915050565b600081519050613f3181615afe565b92915050565b600081519050613f4681615b15565b92915050565b600060208284031215613f6257613f61615157565b5b6000613f7084828501613ee3565b91505092915050565b60008060408385031215613f9057613f8f615157565b5b6000613f9e85828601613ee3565b9250506020613faf85828601613f0d565b9150509250929050565b600080600060608486031215613fd257613fd1615157565b5b6000613fe086828701613ee3565b9350506020613ff186828701613f0d565b925050604061400286828701613f0d565b9150509250925092565b60006020828403121561402257614021615157565b5b600061403084828501613f0d565b91505092915050565b600080604083850312156140505761404f615157565b5b600061405e85828601613f0d565b925050602061406f85828601613ee3565b9150509250929050565b600080600080600060a0868803121561409557614094615157565b5b60006140a388828901613f37565b95505060206140b488828901613ef8565b94505060406140c588828901613f22565b93505060606140d688828901613f22565b92505060806140e788828901613f37565b9150509295509295909350565b6000614100838361471e565b60208301905092915050565b61411581614f96565b82525050565b600061412682614e3c565b6141308185614e54565b935061413b83614e2c565b8060005b8381101561416c57815161415388826140f4565b975061415e83614e47565b92505060018101905061413f565b5085935050505092915050565b61418281614fa8565b82525050565b61419181615011565b82525050565b6141a081614fc7565b82525050565b60006141b3601a83614e70565b91506141be8261515c565b602082019050919050565b60006141d6601483614e70565b91506141e182615185565b602082019050919050565b60006141f9602783614e70565b9150614204826151ae565b604082019050919050565b600061421c601783614e70565b9150614227826151fd565b602082019050919050565b600061423f602b83614e70565b915061424a82615226565b604082019050919050565b6000614262603183614e70565b915061426d82615275565b604082019050919050565b6000614285602683614e70565b9150614290826152c4565b604082019050919050565b60006142a8603d83614e70565b91506142b382615313565b604082019050919050565b60006142cb601683614e70565b91506142d682615362565b602082019050919050565b60006142ee602083614e70565b91506142f98261538b565b602082019050919050565b6000614311602283614e70565b915061431c826153b4565b604082019050919050565b6000614334603083614e70565b915061433f82615403565b604082019050919050565b6000614357601283614e70565b915061436282615452565b602082019050919050565b600061437a602c83614e70565b91506143858261547b565b604082019050919050565b600061439d601383614e70565b91506143a8826154ca565b602082019050919050565b60006143c0601083614e70565b91506143cb826154f3565b602082019050919050565b60006143e3601683614e70565b91506143ee8261551c565b602082019050919050565b6000614406603583614e70565b915061441182615545565b604082019050919050565b6000614429601683614e70565b915061443482615594565b602082019050919050565b600061444c602e83614e70565b9150614457826155bd565b604082019050919050565b600061446f602083614e70565b915061447a8261560c565b602082019050919050565b6000614492601d83614e70565b915061449d82615635565b602082019050919050565b60006144b5601483614e70565b91506144c08261565e565b602082019050919050565b60006144d8601283614e70565b91506144e382615687565b602082019050919050565b60006144fb602983614e70565b9150614506826156b0565b604082019050919050565b600061451e602383614e70565b9150614529826156ff565b604082019050919050565b6000614541600b83614e70565b915061454c8261574e565b602082019050919050565b6000614564604683614e70565b915061456f82615777565b606082019050919050565b6000614587602483614e70565b9150614592826157ec565b604082019050919050565b60006145aa602383614e70565b91506145b58261583b565b604082019050919050565b60006145cd600083614e65565b91506145d88261588a565b600082019050919050565b60006145f0600e83614e70565b91506145fb8261588d565b602082019050919050565b6000614613601583614e70565b915061461e826158b6565b602082019050919050565b6000614636602383614e70565b9150614641826158df565b604082019050919050565b6000614659601b83614e70565b91506146648261592e565b602082019050919050565b600061467c602583614e70565b915061468782615957565b604082019050919050565b600061469f602583614e70565b91506146aa826159a6565b604082019050919050565b60006146c2602283614e70565b91506146cd826159f5565b604082019050919050565b60006146e5602e83614e70565b91506146f082615a44565b604082019050919050565b6000614708600f83614e70565b915061471382615a93565b602082019050919050565b61472781614ff1565b82525050565b61473681614ff1565b82525050565b6000614747826145c0565b9150819050919050565b6000602082019050614766600083018461410c565b92915050565b60006040820190508181036000830152614786818561411b565b9050614795602083018461472d565b9392505050565b60006020820190506147b16000830184614179565b92915050565b60006060820190506147cc6000830186614188565b6147d9602083018561472d565b6147e66040830184614179565b949350505050565b60006020820190508181036000830152614807816141a6565b9050919050565b60006020820190508181036000830152614827816141c9565b9050919050565b60006020820190508181036000830152614847816141ec565b9050919050565b600060208201905081810360008301526148678161420f565b9050919050565b6000602082019050818103600083015261488781614232565b9050919050565b600060208201905081810360008301526148a781614255565b9050919050565b600060208201905081810360008301526148c781614278565b9050919050565b600060208201905081810360008301526148e78161429b565b9050919050565b60006020820190508181036000830152614907816142be565b9050919050565b60006020820190508181036000830152614927816142e1565b9050919050565b6000602082019050818103600083015261494781614304565b9050919050565b6000602082019050818103600083015261496781614327565b9050919050565b600060208201905081810360008301526149878161434a565b9050919050565b600060208201905081810360008301526149a78161436d565b9050919050565b600060208201905081810360008301526149c781614390565b9050919050565b600060208201905081810360008301526149e7816143b3565b9050919050565b60006020820190508181036000830152614a07816143d6565b9050919050565b60006020820190508181036000830152614a27816143f9565b9050919050565b60006020820190508181036000830152614a478161441c565b9050919050565b60006020820190508181036000830152614a678161443f565b9050919050565b60006020820190508181036000830152614a8781614462565b9050919050565b60006020820190508181036000830152614aa781614485565b9050919050565b60006020820190508181036000830152614ac7816144a8565b9050919050565b60006020820190508181036000830152614ae7816144cb565b9050919050565b60006020820190508181036000830152614b07816144ee565b9050919050565b60006020820190508181036000830152614b2781614511565b9050919050565b60006020820190508181036000830152614b4781614534565b9050919050565b60006020820190508181036000830152614b6781614557565b9050919050565b60006020820190508181036000830152614b878161457a565b9050919050565b60006020820190508181036000830152614ba78161459d565b9050919050565b60006020820190508181036000830152614bc7816145e3565b9050919050565b60006020820190508181036000830152614be781614606565b9050919050565b60006020820190508181036000830152614c0781614629565b9050919050565b60006020820190508181036000830152614c278161464c565b9050919050565b60006020820190508181036000830152614c478161466f565b9050919050565b60006020820190508181036000830152614c6781614692565b9050919050565b60006020820190508181036000830152614c87816146b5565b9050919050565b60006020820190508181036000830152614ca7816146d8565b9050919050565b60006020820190508181036000830152614cc7816146fb565b9050919050565b6000602082019050614ce3600083018461472d565b92915050565b6000604082019050614cfe600083018561472d565b614d0b6020830184614197565b9392505050565b6000604082019050614d27600083018561472d565b614d34602083018461472d565b9392505050565b6000606082019050614d50600083018661472d565b614d5d602083018561472d565b614d6a604083018461472d565b949350505050565b600061018082019050614d88600083018f61472d565b614d95602083018e61472d565b614da2604083018d61472d565b614daf606083018c61472d565b614dbc608083018b614197565b614dc960a083018a614197565b614dd660c083018961472d565b614de360e083018861472d565b614df161010083018761472d565b614dff61012083018661472d565b614e0d61014083018561472d565b614e1b610160830184614179565b9d9c50505050505050505050505050565b6000819050602082019050919050565b600081519050919050565b6000602082019050919050565b600082825260208201905092915050565b600081905092915050565b600082825260208201905092915050565b6000614e8c82614ff1565b9150614e9783614ff1565b9250827fffffffffffffffffffffffffffffffffffffffffffffffffffffffffffffffff03821115614ecc57614ecb61506c565b5b828201905092915050565b6000614ee282614ff1565b9150614eed83614ff1565b925082614efd57614efc61509b565b5b828204905092915050565b6000614f1382614ff1565b9150614f1e83614ff1565b9250817fffffffffffffffffffffffffffffffffffffffffffffffffffffffffffffffff0483118215151615614f5757614f5661506c565b5b828202905092915050565b6000614f6d82614ff1565b9150614f7883614ff1565b925082821015614f8b57614f8a61506c565b5b828203905092915050565b6000614fa182614fd1565b9050919050565b60008115159050919050565b6000819050614fc282615abc565b919050565b6000819050919050565b600073ffffffffffffffffffffffffffffffffffffffff82169050919050565b6000819050919050565b600069ffffffffffffffffffff82169050919050565b600061501c82614fb4565b9050919050565b600061502e82614ff1565b91507fffffffffffffffffffffffffffffffffffffffffffffffffffffffffffffffff8214156150615761506061506c565b5b600182019050919050565b7f4e487b7100000000000000000000000000000000000000000000000000000000600052601160045260246000fd5b7f4e487b7100000000000000000000000000000000000000000000000000000000600052601260045260246000fd5b7f4e487b7100000000000000000000000000000000000000000000000000000000600052602160045260246000fd5b7f4e487b7100000000000000000000000000000000000000000000000000000000600052603260045260246000fd5b7f4e487b7100000000000000000000000000000000000000000000000000000000600052604160045260246000fd5b600080fd5b7f70726f787920636f6e7472616374206e6f7420616c6c6f776564000000000000600082015250565b7f5061757361626c653a206e6f7420706175736564000000000000000000000000600082015250565b7f43616e206f6e6c79206c6f636b20726f756e642077697468696e20627566666560008201527f7254696d652d2d00000000000000000000000000000000000000000000000000602082015250565b7f4e6f7420656c696769626c6520666f7220726566756e64000000000000000000600082015250565b7f43616e206f6e6c79206c6f636b20726f756e6420616674657220726f756e642060008201527f6861732073746172746564000000000000000000000000000000000000000000602082015250565b7f43616e206f6e6c792072756e2061667465722067656e6573697353746172745260008201527f6f756e6420697320747269676765726564000000000000000000000000000000602082015250565b7f4f776e61626c653a206e6577206f776e657220697320746865207a65726f206160008201527f6464726573730000000000000000000000000000000000000000000000000000602082015250565b7f4f7261636c652075706461746520726f756e644964206d757374206265206c6160008201527f72676572207468616e206f7261636c654c6174657374526f756e644964000000602082015250565b7f4e6f7420656c696769626c6520666f7220636c61696d00000000000000000000600082015250565b7f43616e206f6e6c7920656e6420726f756e6420616674657220656e6454696d65600082015250565b7f43616e206f6e6c792072756e2067656e657369734c6f636b526f756e64206f6e60008201527f6365000000000000000000000000000000000000000000000000000000000000602082015250565b7f43616e206f6e6c79207374617274206e657720726f756e64206166746572207260008201527f6f756e64206e2d3120656e6454696d6500000000000000000000000000000000602082015250565b7f526577617264732063616c63756c617465640000000000000000000000000000600082015250565b7f42657420616d6f756e74206d7573742062652067726561746572207468616e2060008201527f6d696e426574416d6f756e740000000000000000000000000000000000000000602082015250565b7f526f756e6420686173206e6f7420656e64656400000000000000000000000000600082015250565b7f5061757361626c653a2070617573656400000000000000000000000000000000600082015250565b7f43616e6e6f74206265207a65726f206164647265737300000000000000000000600082015250565b7f7265776172645261746520616e6420747265617375727952617465206d75737460008201527f2061646420757020746f20544f54414c5f524154450000000000000000000000602082015250565b7f61646d696e207c206f70657261746f723a207775743f00000000000000000000600082015250565b7f43616e206f6e6c7920737461727420726f756e6420616674657220726f756e6460008201527f206e2d312068617320656e646564000000000000000000000000000000000000602082015250565b7f4f776e61626c653a2063616c6c6572206973206e6f7420746865206f776e6572600082015250565b7f43616e6e6f74206265206d6f7265207468616e20726f756e6454696d65000000600082015250565b7f636f6e7472616374206e6f7420616c6c6f776564000000000000000000000000600082015250565b7f526f756e64206e6f74206265747461626c650000000000000000000000000000600082015250565b7f43616e206f6e6c7920656e6420726f756e6420616674657220726f756e64206860008201527f6173206c6f636b65640000000000000000000000000000000000000000000000602082015250565b7f43616e206f6e6c792072756e2067656e657369735374617274526f756e64206f60008201527f6e63650000000000000000000000000000000000000000000000000000000000602082015250565b7f61646d696e3a207775743f000000000000000000000000000000000000000000600082015250565b7f43616e206f6e6c792072756e2061667465722067656e6573697353746172745260008201527f6f756e6420616e642067656e657369734c6f636b526f756e642069732074726960208201527f6767657265640000000000000000000000000000000000000000000000000000604082015250565b7f43616e206f6e6c7920656e6420726f756e642077697468696e2062756666657260008201527f54696d6500000000000000000000000000000000000000000000000000000000602082015250565b7f5472616e7366657248656c7065723a20424e425f5452414e534645525f46414960008201527f4c45440000000000000000000000000000000000000000000000000000000000602082015250565b50565b7f6f70657261746f723a207775743f000000000000000000000000000000000000600082015250565b7f526f756e6420686173206e6f7420737461727465640000000000000000000000600082015250565b7f726577617264526174652063616e6e6f74206265206d6f7265207468616e203160008201527f3030250000000000000000000000000000000000000000000000000000000000602082015250565b7f43616e206f6e6c7920626574206f6e63652070657220726f756e640000000000600082015250565b7f7472656173757279526174652063616e6e6f74206265206d6f7265207468616e60008201527f2031303025000000000000000000000000000000000000000000000000000000602082015250565b7f43616e206f6e6c79206c6f636b20726f756e642077697468696e20627566666560008201527f7254696d65000000000000000000000000000000000000000000000000000000602082015250565b7f43616e206f6e6c79206c6f636b20726f756e64206166746572206c6f636b546960008201527f6d65000000000000000000000000000000000000000000000000000000000000602082015250565b7f4f7261636c6520757064617465206578636565646564206d61782074696d657360008201527f74616d7020616c6c6f77616e6365000000000000000000000000000000000000602082015250565b7f5265776172647320636c61696d65640000000000000000000000000000000000600082015250565b60028110615acd57615acc6150ca565b5b50565b615ad981614f96565b8114615ae457600080fd5b50565b615af081614fc7565b8114615afb57600080fd5b50565b615b0781614ff1565b8114615b1257600080fd5b50565b615b1e81614ffb565b8114615b2957600080fd5b5056fea264697066735822122002fd7ddbf79743f05d51c2efe6755baa1a309ef925ae7fcdbdbcac073c3528e764736f6c63430008060033",
  "immutableReferences": {},
  "source": "// SPDX-License-Identifier: MIT\npragma solidity ^0.8.0;\n\nimport \"@openzeppelin/contracts/utils/math/SafeMath.sol\";\nimport \"@openzeppelin/contracts/access/Ownable.sol\";\nimport \"@openzeppelin/contracts/security/Pausable.sol\";\nimport \"@chainlink/contracts/src/v0.8/interfaces/AggregatorV3Interface.sol\";\n\ncontract BnbPricePredictionBet is Ownable, Pausable {\n    using SafeMath for uint256;\n\n    struct Round {\n        uint256 epoch;\n        uint256 startTime;\n        uint256 lockTime;\n        uint256 endTime;\n        int256 lockPrice;\n        int256 closePrice;\n        uint256 totalAmount;\n        uint256 bullAmount;\n        uint256 bearAmount;\n        uint256 rewardBaseCalAmount;\n        uint256 rewardAmount;\n        bool oracleCalled;\n    }\n\n    enum Position {Bull, Bear}\n\n    struct BetInfo {\n        Position position;\n        uint256 amount;\n        bool claimed; // default false\n    }\n\n    mapping(uint256 => Round) public rounds;\n    mapping(uint256 => mapping(address => BetInfo)) public ledger;\n    mapping(address => uint256[]) public userRounds;\n    uint256 public currentEpoch;\n    uint256 public roundTime;\n    uint256 public betTime;\n    uint256 public bufferTime;\n    address public adminAddress;\n    address public operatorAddress;\n    uint256 public treasuryAmount;\n    AggregatorV3Interface internal oracle;\n    uint256 public oracleLatestRoundId;\n\n    uint256 public constant TOTAL_RATE = 100; // 100%\n    uint256 public rewardRate = 96; // 96%\n    uint256 public treasuryRate = 4; // 4%\n    uint256 public minBetAmount;\n    uint256 public oracleUpdateAllowance; // seconds\n\n    bool public genesisStartOnce = false;\n    bool public genesisLockOnce = false;\n\n    event StartRound(uint256 indexed epoch, uint256 blockTime);\n    event LockRound(uint256 indexed epoch, uint256 blockTime, int256 price);\n    event EndRound(uint256 indexed epoch, uint256 blockTime, int256 price);\n    event BetBull(address indexed sender, uint256 indexed currentEpoch, uint256 amount);\n    event BetBear(address indexed sender, uint256 indexed currentEpoch, uint256 amount);\n    event Claim(address indexed sender, uint256 indexed currentEpoch, uint256 amount);\n    event ClaimTreasury(uint256 amount);\n    event RatesUpdated(uint256 indexed epoch, uint256 rewardRate, uint256 treasuryRate);\n    event MinBetAmountUpdated(uint256 indexed epoch, uint256 minBetAmount);\n    event RewardsCalculated(\n        uint256 indexed epoch,\n        uint256 rewardBaseCalAmount,\n        uint256 rewardAmount,\n        uint256 treasuryAmount\n    );\n    event Pause(uint256 epoch);\n    event Unpause(uint256 epoch);\n\n    constructor(\n        address _operatorAddress,\n        uint256 _roundTime,\n        uint256 _betTime,\n        uint256 _minBetAmount,\n        uint256 _oracleUpdateAllowance\n    ) {\n        oracle = AggregatorV3Interface(0x2514895c72f50D8bd4B4F9b1110F0D6bD2c97526);\n        adminAddress = _msgSender();\n        operatorAddress = _operatorAddress;\n        roundTime = _roundTime;\n        betTime = _betTime;\n        minBetAmount = _minBetAmount;\n        oracleUpdateAllowance = _oracleUpdateAllowance;\n        bufferTime = 2;\n    }\n\n    modifier onlyAdmin() {\n        require(msg.sender == adminAddress, \"admin: wut?\");\n        _;\n    }\n\n    modifier onlyOperator() {\n        require(msg.sender == operatorAddress, \"operator: wut?\");\n        _;\n    }\n\n    modifier onlyAdminOrOperator() {\n        require(msg.sender == adminAddress || msg.sender == operatorAddress, \"admin | operator: wut?\");\n        _;\n    }\n\n    modifier notContract() {\n        require(!_isContract(msg.sender), \"contract not allowed\");\n        require(msg.sender == tx.origin, \"proxy contract not allowed\");\n        _;\n    }\n\n    /**\n     * @dev set admin address\n     * callable by owner\n     */\n    function setAdmin(address _adminAddress) external onlyOwner {\n        require(_adminAddress != address(0), \"Cannot be zero address\");\n        adminAddress = _adminAddress;\n    }\n\n    /**\n     * @dev set operator address\n     * callable by admin\n     */\n    function setOperator(address _operatorAddress) external onlyAdmin {\n        require(_operatorAddress != address(0), \"Cannot be zero address\");\n        operatorAddress = _operatorAddress;\n    }\n\n    /**\n     * @dev set interval blocks\n     * callable by admin\n     */\n    function setRoundTime(uint256 _roundTime) external onlyAdmin {\n        roundTime = _roundTime;\n    }\n\n    /**\n     * @dev set buffer blocks\n     * callable by admin\n     */\n    function setBetTime(uint256 _betTime) external onlyAdmin {\n        require(_betTime <= roundTime, \"Cannot be more than roundTime\");\n        betTime = _betTime;\n    }\n\n    /**\n     * @dev set Oracle address\n     * callable by admin\n     */\n    function setOracle(address _oracle) external onlyAdmin {\n        require(_oracle != address(0), \"Cannot be zero address\");\n        oracle = AggregatorV3Interface(_oracle);\n    }\n\n    /**\n     * @dev set oracle update allowance\n     * callable by admin\n     */\n    function setOracleUpdateAllowance(uint256 _oracleUpdateAllowance) external onlyAdmin {\n        oracleUpdateAllowance = _oracleUpdateAllowance;\n    }\n\n    /**\n     * @dev set reward rate\n     * callable by admin\n     */\n    function setRewardRate(uint256 _rewardRate) external onlyAdmin {\n        require(_rewardRate <= TOTAL_RATE, \"rewardRate cannot be more than 100%\");\n        rewardRate = _rewardRate;\n        treasuryRate = TOTAL_RATE.sub(_rewardRate);\n\n        emit RatesUpdated(currentEpoch, rewardRate, treasuryRate);\n    }\n\n    /**\n     * @dev set treasury rate\n     * callable by admin\n     */\n    function setTreasuryRate(uint256 _treasuryRate) external onlyAdmin {\n        require(_treasuryRate <= TOTAL_RATE, \"treasuryRate cannot be more than 100%\");\n        rewardRate = TOTAL_RATE.sub(_treasuryRate);\n        treasuryRate = _treasuryRate;\n\n        emit RatesUpdated(currentEpoch, rewardRate, treasuryRate);\n    }\n\n    /**\n     * @dev set minBetAmount\n     * callable by admin\n     */\n    function setMinBetAmount(uint256 _minBetAmount) external onlyAdmin {\n        minBetAmount = _minBetAmount;\n\n        emit MinBetAmountUpdated(currentEpoch, minBetAmount);\n    }\n\n    /**\n     * @dev Start genesis round\n     */\n    function genesisStartRound() external onlyOperator whenNotPaused {\n        require(!genesisStartOnce, \"Can only run genesisStartRound once\");\n\n        currentEpoch = currentEpoch + 1;\n        _startRound(currentEpoch);\n        genesisStartOnce = true;\n    }\n\n    /**\n     * @dev Lock genesis round\n     */\n    function genesisLockRound() external onlyOperator whenNotPaused {\n        require(genesisStartOnce, \"Can only run after genesisStartRound is triggered\");\n        require(!genesisLockOnce, \"Can only run genesisLockRound once\");\n        require(\n            block.timestamp <= rounds[currentEpoch].lockTime.add(bufferTime),\n            \"Can only lock round within bufferTime--\"\n        );\n\n        int256 currentPrice = _getPriceFromOracle();\n        _safeLockRound(currentEpoch, currentPrice);\n        genesisLockOnce = true;\n\n        // currentEpoch = currentEpoch + 1;\n        // _startRound(currentEpoch);\n    }\n\n    /**\n     * @dev Lock round\n     */\n    function lockRound() external onlyOperator whenNotPaused {\n        int256 currentPrice = _getPriceFromOracle();\n        _safeLockRound(currentEpoch, currentPrice);\n    }\n\n    /**\n     * @dev Start the next round n, end round n-1\n     */\n    function nextRound() external onlyOperator whenNotPaused {\n        require(\n            genesisStartOnce && genesisLockOnce,\n            \"Can only run after genesisStartRound and genesisLockRound is triggered\"\n        );\n\n        int256 currentPrice = _getPriceFromOracle();\n        // CurrentEpoch refers to previous round (n)\n        _safeEndRound(currentEpoch, currentPrice);\n        _calculateRewards(currentEpoch);\n\n        // Increment currentEpoch to current round (n)\n        currentEpoch = currentEpoch + 1;\n        _safeStartRound(currentEpoch);\n    }\n\n    /**\n     * @dev Bet bear position\n     */\n    function betBear() external payable whenNotPaused notContract {\n        require(_bettable(currentEpoch), \"Round not bettable\");\n        require(msg.value >= minBetAmount, \"Bet amount must be greater than minBetAmount\");\n        require(ledger[currentEpoch][msg.sender].amount == 0, \"Can only bet once per round\");\n\n        // Update round data\n        uint256 amount = msg.value;\n        Round storage round = rounds[currentEpoch];\n        round.totalAmount = round.totalAmount.add(amount);\n        round.bearAmount = round.bearAmount.add(amount);\n\n        // Update user data\n        BetInfo storage betInfo = ledger[currentEpoch][msg.sender];\n        betInfo.position = Position.Bear;\n        betInfo.amount = amount;\n        userRounds[msg.sender].push(currentEpoch);\n\n        emit BetBear(msg.sender, currentEpoch, amount);\n    }\n\n    /**\n     * @dev Bet bull position\n     */\n    function betBull() external payable whenNotPaused notContract {\n        require(_bettable(currentEpoch), \"Round not bettable\");\n        require(msg.value >= minBetAmount, \"Bet amount must be greater than minBetAmount\");\n        require(ledger[currentEpoch][msg.sender].amount == 0, \"Can only bet once per round\");\n\n        // Update round data\n        uint256 amount = msg.value;\n        Round storage round = rounds[currentEpoch];\n        round.totalAmount = round.totalAmount.add(amount);\n        round.bullAmount = round.bullAmount.add(amount);\n\n        // Update user data\n        BetInfo storage betInfo = ledger[currentEpoch][msg.sender];\n        betInfo.position = Position.Bull;\n        betInfo.amount = amount;\n        userRounds[msg.sender].push(currentEpoch);\n\n        emit BetBull(msg.sender, currentEpoch, amount);\n    }\n\n    /**\n     * @dev Claim reward\n     */\n    function claim(uint256 epoch) external notContract {\n        require(rounds[epoch].startTime != 0, \"Round has not started\");\n        require(block.timestamp > rounds[epoch].endTime, \"Round has not ended\");\n        require(!ledger[epoch][msg.sender].claimed, \"Rewards claimed\");\n\n        uint256 reward;\n        // Round valid, claim rewards\n        if (rounds[epoch].oracleCalled) {\n            require(claimable(epoch, msg.sender), \"Not eligible for claim\");\n            Round memory round = rounds[epoch];\n            reward = ledger[epoch][msg.sender].amount.mul(round.rewardAmount).div(round.rewardBaseCalAmount);\n        }\n        // Round invalid, refund bet amount\n        else {\n            require(refundable(epoch, msg.sender), \"Not eligible for refund\");\n            reward = ledger[epoch][msg.sender].amount;\n        }\n\n        BetInfo storage betInfo = ledger[epoch][msg.sender];\n        betInfo.claimed = true;\n        _safeTransferBNB(address(msg.sender), reward);\n\n        emit Claim(msg.sender, epoch, reward);\n    }\n\n    /**\n     * @dev Claim all rewards in treasury\n     * callable by admin\n     */\n    function claimTreasury() external onlyAdmin {\n        uint256 currentTreasuryAmount = treasuryAmount;\n        treasuryAmount = 0;\n        _safeTransferBNB(adminAddress, currentTreasuryAmount);\n\n        emit ClaimTreasury(currentTreasuryAmount);\n    }\n\n    /**\n     * @dev Return round epochs that a user has participated\n     */\n    function getUserRounds(\n        address user,\n        uint256 cursor,\n        uint256 size\n    ) external view returns (uint256[] memory, uint256) {\n        uint256 length = size;\n        if (length > userRounds[user].length - cursor) {\n            length = userRounds[user].length - cursor;\n        }\n\n        uint256[] memory values = new uint256[](length);\n        for (uint256 i = 0; i < length; i++) {\n            values[i] = userRounds[user][cursor + i];\n        }\n\n        return (values, cursor + length);\n    }\n\n    /**\n     * @dev called by the admin to pause, triggers stopped state\n     */\n    function pause() public onlyAdminOrOperator whenNotPaused {\n        _pause();\n\n        emit Pause(currentEpoch);\n    }\n\n    /**\n     * @dev called by the admin to unpause, returns to normal state\n     * Reset genesis state. Once paused, the rounds would need to be kickstarted by genesis\n     */\n    function unpause() public onlyAdmin whenPaused {\n        genesisStartOnce = false;\n        genesisLockOnce = false;\n        _unpause();\n\n        emit Unpause(currentEpoch);\n    }\n\n    /**\n     * @dev Get the claimable stats of specific epoch and user account\n     */\n    function claimable(uint256 epoch, address user) public view returns (bool) {\n        BetInfo memory betInfo = ledger[epoch][user];\n        Round memory round = rounds[epoch];\n        // if (round.lockPrice == round.closePrice) {\n        //     return false;\n        // }\n        return\n            round.oracleCalled &&\n            ((round.closePrice > round.lockPrice && betInfo.position == Position.Bull) ||\n                (round.closePrice < round.lockPrice && betInfo.position == Position.Bear) ||\n                round.closePrice == round.lockPrice );\n    }\n\n    /**\n     * @dev Get the refundable stats of specific epoch and user account\n     */\n    function refundable(uint256 epoch, address user) public view returns (bool) {\n        BetInfo memory betInfo = ledger[epoch][user];\n        Round memory round = rounds[epoch];\n        return !round.oracleCalled && block.timestamp > round.endTime.add(bufferTime) && betInfo.amount != 0;\n    }\n\n    /**\n     * @dev Start round\n     * Previous round n-2 must end\n     */\n    function _safeStartRound(uint256 epoch) internal {\n        require(genesisStartOnce, \"Can only run after genesisStartRound is triggered\");\n        require(rounds[epoch - 1].endTime != 0, \"Can only start round after round n-1 has ended\");\n        require(block.timestamp >= rounds[epoch - 1].endTime, \"Can only start new round after round n-1 endTime\");\n        _startRound(epoch);\n    }\n\n    function _startRound(uint256 epoch) internal {\n        Round storage round = rounds[epoch];\n        round.startTime = block.timestamp;\n        round.lockTime = block.timestamp.add(betTime);\n        round.endTime = block.timestamp.add(roundTime + betTime);\n        round.epoch = epoch;\n        round.totalAmount = 0;\n\n        emit StartRound(epoch, block.timestamp);\n    }\n\n    /**\n     * @dev Lock round\n     */\n    function _safeLockRound(uint256 epoch, int256 price) internal {\n        require(rounds[epoch].startTime != 0, \"Can only lock round after round has started\");\n        require(block.timestamp >= rounds[epoch].lockTime, \"Can only lock round after lockTime\");\n        require(block.timestamp <= rounds[epoch].lockTime.add(bufferTime), \"Can only lock round within bufferTime\");\n        _lockRound(epoch, price);\n    }\n\n    function _lockRound(uint256 epoch, int256 price) internal {\n        Round storage round = rounds[epoch];\n        round.lockPrice = price;\n\n        emit LockRound(epoch, block.timestamp, round.lockPrice);\n    }\n\n    /**\n     * @dev End round\n     */\n    function _safeEndRound(uint256 epoch, int256 price) internal {\n        require(rounds[epoch].lockTime != 0, \"Can only end round after round has locked\");\n        require(block.timestamp >= rounds[epoch].endTime, \"Can only end round after endTime\");\n        require(block.timestamp <= rounds[epoch].endTime.add(bufferTime), \"Can only end round within bufferTime\");\n        _endRound(epoch, price);\n    }\n\n    function _endRound(uint256 epoch, int256 price) internal {\n        Round storage round = rounds[epoch];\n        round.closePrice = price;\n        round.oracleCalled = true;\n\n        emit EndRound(epoch, block.timestamp, round.closePrice);\n    }\n\n    /**\n     * @dev Calculate rewards for round\n     */\n    function _calculateRewards(uint256 epoch) internal {\n        require(rewardRate.add(treasuryRate) == TOTAL_RATE, \"rewardRate and treasuryRate must add up to TOTAL_RATE\");\n        require(rounds[epoch].rewardBaseCalAmount == 0 && rounds[epoch].rewardAmount == 0, \"Rewards calculated\");\n        Round storage round = rounds[epoch];\n        uint256 rewardBaseCalAmount;\n        uint256 rewardAmount;\n        uint256 treasuryAmt;\n\n        rewardAmount = round.totalAmount.mul(rewardRate).div(TOTAL_RATE);\n        treasuryAmt = round.totalAmount.mul(treasuryRate).div(TOTAL_RATE);\n        // Bull wins\n        if (round.closePrice > round.lockPrice) {\n            rewardBaseCalAmount = round.bullAmount;\n        }\n        // Bear wins\n        else if (round.closePrice < round.lockPrice) {\n            rewardBaseCalAmount = round.bearAmount;\n        }\n        // House wins\n        else {\n            rewardBaseCalAmount = round.totalAmount;\n        }\n        round.rewardBaseCalAmount = rewardBaseCalAmount;\n        round.rewardAmount = rewardAmount;\n\n        // Add to treasury\n        treasuryAmount = treasuryAmount.add(treasuryAmt);\n\n        emit RewardsCalculated(epoch, rewardBaseCalAmount, rewardAmount, treasuryAmt);\n    }\n\n    /**\n     * @dev Get latest recorded price from oracle\n     * If it falls below allowed buffer or has not updated, it would be invalid\n     */\n    function _getPriceFromOracle() internal returns (int256) {\n        uint256 leastAllowedTimestamp = block.timestamp.add(oracleUpdateAllowance);\n        (uint80 roundId, int256 price, , uint256 timestamp, ) = oracle.latestRoundData();\n        require(timestamp <= leastAllowedTimestamp, \"Oracle update exceeded max timestamp allowance\");\n        require(roundId > oracleLatestRoundId, \"Oracle update roundId must be larger than oracleLatestRoundId\");\n        oracleLatestRoundId = uint256(roundId);\n        return price;\n    }\n\n    function _safeTransferBNB(address to, uint256 value) internal {\n        (bool success, ) = to.call{gas: 23000, value: value}(\"\");\n        require(success, \"TransferHelper: BNB_TRANSFER_FAILED\");\n    }\n\n    function _isContract(address addr) internal view returns (bool) {\n        uint256 size;\n        assembly {\n            size := extcodesize(addr)\n        }\n        return size > 0;\n    }\n\n    /**\n     * @dev Determine if a round is valid for receiving bets\n     * Round must have started and locked\n     * Current block must be within startTime and endTime\n     */\n    function _bettable(uint256 epoch) internal view returns (bool) {\n        return\n            rounds[epoch].startTime != 0 &&\n            rounds[epoch].lockTime != 0 &&\n            block.timestamp > rounds[epoch].startTime &&\n            block.timestamp < rounds[epoch].lockTime;\n    }\n}",
  "sourcePath": "/home/seagod/Seagod/test/bnb_prediction_bet/contracts/BnbPricePredictionBet.sol",
  "compiler": {
    "name": "solc",
    "version": "0.8.6+commit.11564f7e.Emscripten.clang"
  },
  "schemaVersion": "3.4.1",
  "updatedAt": "2021-06-30T12:07:13.824Z",
  "devdoc": {
    "kind": "dev",
    "methods": {
      "betBear()": {
        "details": "Bet bear position"
      },
      "betBull()": {
        "details": "Bet bull position"
      },
      "claim(uint256)": {
        "details": "Claim reward"
      },
      "claimTreasury()": {
        "details": "Claim all rewards in treasury callable by admin"
      },
      "claimable(uint256,address)": {
        "details": "Get the claimable stats of specific epoch and user account"
      },
      "genesisLockRound()": {
        "details": "Lock genesis round"
      },
      "genesisStartRound()": {
        "details": "Start genesis round"
      },
      "getUserRounds(address,uint256,uint256)": {
        "details": "Return round epochs that a user has participated"
      },
      "lockRound()": {
        "details": "Lock round"
      },
      "nextRound()": {
        "details": "Start the next round n, end round n-1"
      },
      "owner()": {
        "details": "Returns the address of the current owner."
      },
      "pause()": {
        "details": "called by the admin to pause, triggers stopped state"
      },
      "paused()": {
        "details": "Returns true if the contract is paused, and false otherwise."
      },
      "refundable(uint256,address)": {
        "details": "Get the refundable stats of specific epoch and user account"
      },
      "renounceOwnership()": {
        "details": "Leaves the contract without owner. It will not be possible to call `onlyOwner` functions anymore. Can only be called by the current owner. NOTE: Renouncing ownership will leave the contract without an owner, thereby removing any functionality that is only available to the owner."
      },
      "setAdmin(address)": {
        "details": "set admin address callable by owner"
      },
      "setBetTime(uint256)": {
        "details": "set buffer blocks callable by admin"
      },
      "setMinBetAmount(uint256)": {
        "details": "set minBetAmount callable by admin"
      },
      "setOperator(address)": {
        "details": "set operator address callable by admin"
      },
      "setOracle(address)": {
        "details": "set Oracle address callable by admin"
      },
      "setOracleUpdateAllowance(uint256)": {
        "details": "set oracle update allowance callable by admin"
      },
      "setRewardRate(uint256)": {
        "details": "set reward rate callable by admin"
      },
      "setRoundTime(uint256)": {
        "details": "set interval blocks callable by admin"
      },
      "setTreasuryRate(uint256)": {
        "details": "set treasury rate callable by admin"
      },
      "transferOwnership(address)": {
        "details": "Transfers ownership of the contract to a new account (`newOwner`). Can only be called by the current owner."
      },
      "unpause()": {
        "details": "called by the admin to unpause, returns to normal state Reset genesis state. Once paused, the rounds would need to be kickstarted by genesis"
      }
    },
    "version": 1
  },
  "userdoc": {
    "kind": "user",
    "methods": {},
    "version": 1
  }
}