{
  "contractName": "BnbPricePredictionBet",
  "abi": [
    {
      "inputs": [],
      "stateMutability": "nonpayable",
      "type": "constructor"
    },
    {
      "anonymous": false,
      "inputs": [
        {
          "indexed": true,
          "internalType": "address",
          "name": "sender",
          "type": "address"
        },
        {
          "indexed": true,
          "internalType": "uint256",
          "name": "currentEpoch",
          "type": "uint256"
        },
        {
          "indexed": false,
          "internalType": "uint256",
          "name": "amount",
          "type": "uint256"
        }
      ],
      "name": "BetDown",
      "type": "event"
    },
    {
      "anonymous": false,
      "inputs": [
        {
          "indexed": true,
          "internalType": "address",
          "name": "sender",
          "type": "address"
        },
        {
          "indexed": true,
          "internalType": "uint256",
          "name": "currentEpoch",
          "type": "uint256"
        },
        {
          "indexed": false,
          "internalType": "uint256",
          "name": "amount",
          "type": "uint256"
        }
      ],
      "name": "BetUp",
      "type": "event"
    },
    {
      "anonymous": false,
      "inputs": [
        {
          "indexed": true,
          "internalType": "address",
          "name": "sender",
          "type": "address"
        },
        {
          "indexed": true,
          "internalType": "uint256",
          "name": "currentEpoch",
          "type": "uint256"
        },
        {
          "indexed": false,
          "internalType": "uint256",
          "name": "amount",
          "type": "uint256"
        }
      ],
      "name": "Claim",
      "type": "event"
    },
    {
      "anonymous": false,
      "inputs": [
        {
          "indexed": false,
          "internalType": "uint256",
          "name": "amount",
          "type": "uint256"
        }
      ],
      "name": "ClaimTreasury",
      "type": "event"
    },
    {
      "anonymous": false,
      "inputs": [
        {
          "indexed": true,
          "internalType": "uint256",
          "name": "epoch",
          "type": "uint256"
        },
        {
          "indexed": false,
          "internalType": "uint256",
          "name": "blockTime",
          "type": "uint256"
        },
        {
          "indexed": false,
          "internalType": "int256",
          "name": "price",
          "type": "int256"
        }
      ],
      "name": "EndRound",
      "type": "event"
    },
    {
      "anonymous": false,
      "inputs": [
        {
          "indexed": true,
          "internalType": "address",
          "name": "previousOwner",
          "type": "address"
        },
        {
          "indexed": true,
          "internalType": "address",
          "name": "newOwner",
          "type": "address"
        }
      ],
      "name": "OwnershipTransferred",
      "type": "event"
    },
    {
      "anonymous": false,
      "inputs": [
        {
          "indexed": true,
          "internalType": "uint256",
          "name": "epoch",
          "type": "uint256"
        },
        {
          "indexed": false,
          "internalType": "uint256",
          "name": "startTime",
          "type": "uint256"
        },
        {
          "indexed": false,
          "internalType": "int256",
          "name": "price",
          "type": "int256"
        }
      ],
      "name": "ResetRound",
      "type": "event"
    },
    {
      "anonymous": false,
      "inputs": [
        {
          "indexed": true,
          "internalType": "uint256",
          "name": "epoch",
          "type": "uint256"
        },
        {
          "indexed": false,
          "internalType": "uint256",
          "name": "rewardBaseCalAmount",
          "type": "uint256"
        },
        {
          "indexed": false,
          "internalType": "uint256",
          "name": "rewardAmount",
          "type": "uint256"
        },
        {
          "indexed": false,
          "internalType": "uint256",
          "name": "treasuryAmount",
          "type": "uint256"
        }
      ],
      "name": "RewardsCalculated",
      "type": "event"
    },
    {
      "anonymous": false,
      "inputs": [
        {
          "indexed": true,
          "internalType": "uint256",
          "name": "epoch",
          "type": "uint256"
        },
        {
          "indexed": false,
          "internalType": "uint256",
          "name": "startTime",
          "type": "uint256"
        },
        {
          "indexed": false,
          "internalType": "int256",
          "name": "price",
          "type": "int256"
        }
      ],
      "name": "StartRound",
      "type": "event"
    },
    {
      "inputs": [],
      "name": "TOTAL_RATE",
      "outputs": [
        {
          "internalType": "uint256",
          "name": "",
          "type": "uint256"
        }
      ],
      "stateMutability": "view",
      "type": "function",
      "constant": true
    },
    {
      "inputs": [],
      "name": "adminAddress",
      "outputs": [
        {
          "internalType": "address",
          "name": "",
          "type": "address"
        }
      ],
      "stateMutability": "view",
      "type": "function",
      "constant": true
    },
    {
      "inputs": [],
      "name": "betTime",
      "outputs": [
        {
          "internalType": "uint256",
          "name": "",
          "type": "uint256"
        }
      ],
      "stateMutability": "view",
      "type": "function",
      "constant": true
    },
    {
      "inputs": [],
      "name": "bufferTime",
      "outputs": [
        {
          "internalType": "uint256",
          "name": "",
          "type": "uint256"
        }
      ],
      "stateMutability": "view",
      "type": "function",
      "constant": true
    },
    {
      "inputs": [],
      "name": "currentEpoch",
      "outputs": [
        {
          "internalType": "uint256",
          "name": "",
          "type": "uint256"
        }
      ],
      "stateMutability": "view",
      "type": "function",
      "constant": true
    },
    {
      "inputs": [],
      "name": "genesisLockOnce",
      "outputs": [
        {
          "internalType": "bool",
          "name": "",
          "type": "bool"
        }
      ],
      "stateMutability": "view",
      "type": "function",
      "constant": true
    },
    {
      "inputs": [],
      "name": "genesisStartOnce",
      "outputs": [
        {
          "internalType": "bool",
          "name": "",
          "type": "bool"
        }
      ],
      "stateMutability": "view",
      "type": "function",
      "constant": true
    },
    {
      "inputs": [
        {
          "internalType": "uint256",
          "name": "",
          "type": "uint256"
        },
        {
          "internalType": "address",
          "name": "",
          "type": "address"
        }
      ],
      "name": "ledger",
      "outputs": [
        {
          "internalType": "uint256",
          "name": "upAmount",
          "type": "uint256"
        },
        {
          "internalType": "uint256",
          "name": "downAmount",
          "type": "uint256"
        },
        {
          "internalType": "bool",
          "name": "claimed",
          "type": "bool"
        }
      ],
      "stateMutability": "view",
      "type": "function",
      "constant": true
    },
    {
      "inputs": [],
      "name": "minBetAmount",
      "outputs": [
        {
          "internalType": "uint256",
          "name": "",
          "type": "uint256"
        }
      ],
      "stateMutability": "view",
      "type": "function",
      "constant": true
    },
    {
      "inputs": [],
      "name": "oracleLatestRoundId",
      "outputs": [
        {
          "internalType": "uint256",
          "name": "",
          "type": "uint256"
        }
      ],
      "stateMutability": "view",
      "type": "function",
      "constant": true
    },
    {
      "inputs": [],
      "name": "owner",
      "outputs": [
        {
          "internalType": "address",
          "name": "",
          "type": "address"
        }
      ],
      "stateMutability": "view",
      "type": "function",
      "constant": true
    },
    {
      "inputs": [],
      "name": "renounceOwnership",
      "outputs": [],
      "stateMutability": "nonpayable",
      "type": "function"
    },
    {
      "inputs": [],
      "name": "rewardRate",
      "outputs": [
        {
          "internalType": "uint256",
          "name": "",
          "type": "uint256"
        }
      ],
      "stateMutability": "view",
      "type": "function",
      "constant": true
    },
    {
      "inputs": [],
      "name": "roundTime",
      "outputs": [
        {
          "internalType": "uint256",
          "name": "",
          "type": "uint256"
        }
      ],
      "stateMutability": "view",
      "type": "function",
      "constant": true
    },
    {
      "inputs": [
        {
          "internalType": "uint256",
          "name": "",
          "type": "uint256"
        }
      ],
      "name": "rounds",
      "outputs": [
        {
          "internalType": "uint256",
          "name": "epoch",
          "type": "uint256"
        },
        {
          "internalType": "uint256",
          "name": "startTime",
          "type": "uint256"
        },
        {
          "internalType": "uint256",
          "name": "lockTime",
          "type": "uint256"
        },
        {
          "internalType": "uint256",
          "name": "endTime",
          "type": "uint256"
        },
        {
          "internalType": "int256",
          "name": "startPrice",
          "type": "int256"
        },
        {
          "internalType": "int256",
          "name": "closePrice",
          "type": "int256"
        },
        {
          "internalType": "uint256",
          "name": "totalAmount",
          "type": "uint256"
        },
        {
          "internalType": "uint256",
          "name": "upAmount",
          "type": "uint256"
        },
        {
          "internalType": "uint256",
          "name": "downAmount",
          "type": "uint256"
        },
        {
          "internalType": "uint256",
          "name": "rewardBaseCalAmount",
          "type": "uint256"
        },
        {
          "internalType": "bool",
          "name": "status",
          "type": "bool"
        },
        {
          "internalType": "bool",
          "name": "oracleCalled",
          "type": "bool"
        }
      ],
      "stateMutability": "view",
      "type": "function",
      "constant": true
    },
    {
      "inputs": [
        {
          "internalType": "address",
          "name": "newOwner",
          "type": "address"
        }
      ],
      "name": "transferOwnership",
      "outputs": [],
      "stateMutability": "nonpayable",
      "type": "function"
    },
    {
      "inputs": [],
      "name": "treasuryAmount",
      "outputs": [
        {
          "internalType": "uint256",
          "name": "",
          "type": "uint256"
        }
      ],
      "stateMutability": "view",
      "type": "function",
      "constant": true
    },
    {
      "inputs": [],
      "name": "treasuryRate",
      "outputs": [
        {
          "internalType": "uint256",
          "name": "",
          "type": "uint256"
        }
      ],
      "stateMutability": "view",
      "type": "function",
      "constant": true
    },
    {
      "inputs": [
        {
          "internalType": "address",
          "name": "",
          "type": "address"
        },
        {
          "internalType": "uint256",
          "name": "",
          "type": "uint256"
        }
      ],
      "name": "userRounds",
      "outputs": [
        {
          "internalType": "uint256",
          "name": "",
          "type": "uint256"
        }
      ],
      "stateMutability": "view",
      "type": "function",
      "constant": true
    },
    {
      "inputs": [],
      "name": "genesisStartRound",
      "outputs": [],
      "stateMutability": "nonpayable",
      "type": "function"
    },
    {
      "inputs": [],
      "name": "getStatus",
      "outputs": [
        {
          "internalType": "uint256",
          "name": "",
          "type": "uint256"
        },
        {
          "internalType": "uint256",
          "name": "",
          "type": "uint256"
        },
        {
          "internalType": "uint256",
          "name": "",
          "type": "uint256"
        },
        {
          "internalType": "int256",
          "name": "",
          "type": "int256"
        },
        {
          "internalType": "int256",
          "name": "",
          "type": "int256"
        },
        {
          "internalType": "bool",
          "name": "",
          "type": "bool"
        },
        {
          "internalType": "uint256",
          "name": "",
          "type": "uint256"
        }
      ],
      "stateMutability": "view",
      "type": "function",
      "constant": true
    },
    {
      "inputs": [],
      "name": "betDown",
      "outputs": [],
      "stateMutability": "payable",
      "type": "function",
      "payable": true
    },
    {
      "inputs": [],
      "name": "betUp",
      "outputs": [],
      "stateMutability": "payable",
      "type": "function",
      "payable": true
    },
    {
      "inputs": [],
      "name": "stopRound",
      "outputs": [],
      "stateMutability": "nonpayable",
      "type": "function"
    },
    {
      "inputs": [
        {
          "internalType": "uint256",
          "name": "epoch",
          "type": "uint256"
        },
        {
          "internalType": "address",
          "name": "user",
          "type": "address"
        }
      ],
      "name": "claimable",
      "outputs": [
        {
          "internalType": "bool",
          "name": "",
          "type": "bool"
        }
      ],
      "stateMutability": "view",
      "type": "function",
      "constant": true
    },
    {
      "inputs": [
        {
          "internalType": "uint256",
          "name": "epoch",
          "type": "uint256"
        },
        {
          "internalType": "address",
          "name": "user",
          "type": "address"
        }
      ],
      "name": "refundable",
      "outputs": [
        {
          "internalType": "bool",
          "name": "",
          "type": "bool"
        }
      ],
      "stateMutability": "view",
      "type": "function",
      "constant": true
    }
  ],
  "bytecode": "0x6080604052603c600555600f6006556002600755606060085560046009556000600a556000600f60006101000a81548160ff0219169083151502179055506000600f60016101000a81548160ff0219169083151502179055503480156200006557600080fd5b50600062000081620001d3640100000000026401000000009004565b9050806000806101000a81548173ffffffffffffffffffffffffffffffffffffffff021916908373ffffffffffffffffffffffffffffffffffffffff1602179055508073ffffffffffffffffffffffffffffffffffffffff16600073ffffffffffffffffffffffffffffffffffffffff167f8be0079c531659141344cd1fd0a4f28419497f9722a3daafe3b4186f6b6457e060405160405180910390a350732514895c72f50d8bd4b4f9b1110f0d6bd2c97526600d60006101000a81548173ffffffffffffffffffffffffffffffffffffffff021916908373ffffffffffffffffffffffffffffffffffffffff1602179055506200018d620001d3640100000000026401000000009004565b600b60006101000a81548173ffffffffffffffffffffffffffffffffffffffff021916908373ffffffffffffffffffffffffffffffffffffffff160217905550620001db565b600033905090565b6136a980620001eb6000396000f3fe60806040526004361061019e576000357c010000000000000000000000000000000000000000000000000000000090048063a0c7f71c116100ee578063e4b72516116100a7578063f2fde38b11610081578063f2fde38b14610544578063f7fdec281461056d578063fa968eea14610598578063fc6f9468146105c35761019e565b8063e4b72516146104c3578063ec324703146104ee578063ee5f8c8f146105195761019e565b8063a0c7f71c146103be578063ad19f442146103fb578063b29c299b14610405578063ba7b670314610430578063c10ba76b1461045b578063dd1f7596146104865761019e565b80637285c58b1161015b5780637b0a47ee116101355780637b0a47ee146102e35780637bf412541461030e5780638c65c81f1461034b5780638da5cb5b146103935761019e565b80637285c58b1461026f57806376671808146102ae5780637782090b146102d95761019e565b80630f74174f146101a3578063368acb09146101ce578063452fd75a146101f95780634e69d5601461021057806355b895eb14610241578063715018a614610258575b600080fd5b3480156101af57600080fd5b506101b86105ee565b6040516101c59190612c5e565b60405180910390f35b3480156101da57600080fd5b506101e3610601565b6040516101f09190612e79565b60405180910390f35b34801561020557600080fd5b5061020e610607565b005b34801561021c57600080fd5b50610225610694565b6040516102389796959493929190612f2b565b60405180910390f35b34801561024d57600080fd5b5061025661085b565b005b34801561026457600080fd5b5061026d610933565b005b34801561027b57600080fd5b50610296600480360381019061029191906128e4565b610a6d565b6040516102a593929190612ebd565b60405180910390f35b3480156102ba57600080fd5b506102c3610ab1565b6040516102d09190612e79565b60405180910390f35b6102e1610ab7565b005b3480156102ef57600080fd5b506102f8610dd4565b6040516103059190612e79565b60405180910390f35b34801561031a57600080fd5b50610335600480360381019061033091906128e4565b610dda565b6040516103429190612c5e565b60405180910390f35b34801561035757600080fd5b50610372600480360381019061036d91906128b7565b610f5a565b60405161038a9c9b9a99989796959493929190612f9a565b60405180910390f35b34801561039f57600080fd5b506103a8610fd4565b6040516103b59190612c43565b60405180910390f35b3480156103ca57600080fd5b506103e560048036038101906103e091906128e4565b610ffd565b6040516103f29190612c5e565b60405180910390f35b610403611159565b005b34801561041157600080fd5b5061041a611476565b6040516104279190612e79565b60405180910390f35b34801561043c57600080fd5b5061044561147b565b6040516104529190612e79565b60405180910390f35b34801561046757600080fd5b50610470611481565b60405161047d9190612e79565b60405180910390f35b34801561049257600080fd5b506104ad60048036038101906104a89190612877565b611487565b6040516104ba9190612e79565b60405180910390f35b3480156104cf57600080fd5b506104d86114b8565b6040516104e59190612e79565b60405180910390f35b3480156104fa57600080fd5b506105036114be565b6040516105109190612e79565b60405180910390f35b34801561052557600080fd5b5061052e6114c4565b60405161053b9190612e79565b60405180910390f35b34801561055057600080fd5b5061056b6004803603810190610566919061284a565b6114ca565b005b34801561057957600080fd5b50610582611673565b60405161058f9190612c5e565b60405180910390f35b3480156105a457600080fd5b506105ad611686565b6040516105ba9190612e79565b60405180910390f35b3480156105cf57600080fd5b506105d861168c565b6040516105e59190612c43565b60405180910390f35b600f60019054906101000a900460ff1681565b600c5481565b600f60009054906101000a900460ff1615610657576040517f08c379a000000000000000000000000000000000000000000000000000000000815260040161064e90612df9565b60405180910390fd5b60016004546106669190613070565b6004819055506106776004546116b2565b6001600f60006101000a81548160ff021916908315150217905550565b6000806000806000806000600f60009054906101000a900460ff166106ee576040517f08c379a00000000000000000000000000000000000000000000000000000000081526004016106e590612c99565b60405180910390fd5b6000600d60009054906101000a900473ffffffffffffffffffffffffffffffffffffffff1673ffffffffffffffffffffffffffffffffffffffff1663feaf968c6040518163ffffffff167c010000000000000000000000000000000000000000000000000000000002815260040160a06040518083038186803b15801561077457600080fd5b505afa158015610788573d6000803e3d6000fd5b505050506040513d601f19601f820116820180604052508101906107ac9190612924565b5050509150506000426001600060045481526020019081526020016000206002015410156107d957600190505b6004546001600060045481526020019081526020016000206007015460016000600454815260200190815260200160002060080154846001600060045481526020019081526020016000206004015485600160006004548152602001908152602001600020600301549850985098509850985098509850505090919293949596565b600060045490505b600081111561090d5760016000828152602001908152602001600020600080820160009055600182016000905560028201600090556003820160009055600482016000905560058201600090556006820160009055600782016000905560088201600090556009820160009055600a820160006101000a81549060ff0219169055600a820160016101000a81549060ff021916905550508080610905906131ed565b915050610863565b5060006004819055506000600f60006101000a81548160ff021916908315150217905550565b61093b6117a1565b73ffffffffffffffffffffffffffffffffffffffff16610959610fd4565b73ffffffffffffffffffffffffffffffffffffffff16146109af576040517f08c379a00000000000000000000000000000000000000000000000000000000081526004016109a690612db9565b60405180910390fd5b600073ffffffffffffffffffffffffffffffffffffffff1660008054906101000a900473ffffffffffffffffffffffffffffffffffffffff1673ffffffffffffffffffffffffffffffffffffffff167f8be0079c531659141344cd1fd0a4f28419497f9722a3daafe3b4186f6b6457e060405160405180910390a360008060006101000a81548173ffffffffffffffffffffffffffffffffffffffff021916908373ffffffffffffffffffffffffffffffffffffffff160217905550565b6002602052816000526040600020602052806000526040600020600091509150508060000154908060010154908060020160009054906101000a900460ff16905083565b60045481565b610abf6117a9565b600160006004548152602001908152602001600020600301544210610af85760006004549050610aed6118a4565b610af6816119c6565b505b600260006001600454610b0b9190613151565b815260200190815260200160002060003373ffffffffffffffffffffffffffffffffffffffff1673ffffffffffffffffffffffffffffffffffffffff16815260200190815260200160002060020160009054906101000a900460ff16158015610b9957506000600160006001600454610b849190613151565b81526020019081526020016000206001015414155b15610bb657610bb56001600454610bb09190613151565b6119c6565b5b610bc160045461223d565b610c00576040517f08c379a0000000000000000000000000000000000000000000000000000000008152600401610bf790612dd9565b60405180910390fd5b600a54341015610c45576040517f08c379a0000000000000000000000000000000000000000000000000000000008152600401610c3c90612d59565b60405180910390fd5b600034905060006001600060045481526020019081526020016000209050610c7a8282600601546122c690919063ffffffff16565b8160060181905550610c998282600801546122c690919063ffffffff16565b8160080181905550600060026000600454815260200190815260200160002060003373ffffffffffffffffffffffffffffffffffffffff1673ffffffffffffffffffffffffffffffffffffffff1681526020019081526020016000209050610d0e8382600101546122c690919063ffffffff16565b8160010181905550600360003373ffffffffffffffffffffffffffffffffffffffff1673ffffffffffffffffffffffffffffffffffffffff16815260200190815260200160002060045490806001815401808255809150506001900390600052602060002001600090919091909150556004543373ffffffffffffffffffffffffffffffffffffffff167f0f556517e566a40b95f48e791101968aad685e8209b262ff4555585e1ced0ca385604051610dc79190612e79565b60405180910390a3505050565b60085481565b6000806002600085815260200190815260200160002060008473ffffffffffffffffffffffffffffffffffffffff1673ffffffffffffffffffffffffffffffffffffffff16815260200190815260200160002060405180606001604052908160008201548152602001600182015481526020016002820160009054906101000a900460ff16151515158152505090506000600160008681526020019081526020016000206040518061018001604052908160008201548152602001600182015481526020016002820154815260200160038201548152602001600482015481526020016005820154815260200160068201548152602001600782015481526020016008820154815260200160098201548152602001600a820160009054906101000a900460ff16151515158152602001600a820160019054906101000a900460ff1615151515815250509050806101600151158015610f505750610f4d60075482606001516122c690919063ffffffff16565b42115b9250505092915050565b600160205280600052604060002060009150905080600001549080600101549080600201549080600301549080600401549080600501549080600601549080600701549080600801549080600901549080600a0160009054906101000a900460ff169080600a0160019054906101000a900460ff1690508c565b60008060009054906101000a900473ffffffffffffffffffffffffffffffffffffffff16905090565b6000806002600085815260200190815260200160002060008473ffffffffffffffffffffffffffffffffffffffff1673ffffffffffffffffffffffffffffffffffffffff16815260200190815260200160002060405180606001604052908160008201548152602001600182015481526020016002820160009054906101000a900460ff16151515158152505090506000600160008681526020019081526020016000206040518061018001604052908160008201548152602001600182015481526020016002820154815260200160038201548152602001600482015481526020016005820154815260200160068201548152602001600782015481526020016008820154815260200160098201548152602001600a820160009054906101000a900460ff16151515158152602001600a820160019054906101000a900460ff16151515158152505090508061016001519250505092915050565b6111616117a9565b60016000600454815260200190815260200160002060030154421061119a576000600454905061118f6118a4565b611198816119c6565b505b6002600060016004546111ad9190613151565b815260200190815260200160002060003373ffffffffffffffffffffffffffffffffffffffff1673ffffffffffffffffffffffffffffffffffffffff16815260200190815260200160002060020160009054906101000a900460ff1615801561123b575060006001600060016004546112269190613151565b81526020019081526020016000206001015414155b156112585761125760016004546112529190613151565b6119c6565b5b61126360045461223d565b6112a2576040517f08c379a000000000000000000000000000000000000000000000000000000000815260040161129990612dd9565b60405180910390fd5b600a543410156112e7576040517f08c379a00000000000000000000000000000000000000000000000000000000081526004016112de90612d59565b60405180910390fd5b60003490506000600160006004548152602001908152602001600020905061131c8282600601546122c690919063ffffffff16565b816006018190555061133b8282600701546122c690919063ffffffff16565b8160070181905550600060026000600454815260200190815260200160002060003373ffffffffffffffffffffffffffffffffffffffff1673ffffffffffffffffffffffffffffffffffffffff16815260200190815260200160002090506113b08382600001546122c690919063ffffffff16565b8160000181905550600360003373ffffffffffffffffffffffffffffffffffffffff1673ffffffffffffffffffffffffffffffffffffffff16815260200190815260200160002060045490806001815401808255809150506001900390600052602060002001600090919091909150556004543373ffffffffffffffffffffffffffffffffffffffff167f7a316a6afe2c00a04627818c175dc56303e329857dc0d56e1be414b8f1a64694856040516114699190612e79565b60405180910390a3505050565b606481565b60075481565b60065481565b600360205281600052604060002081815481106114a357600080fd5b90600052602060002001600091509150505481565b60095481565b600e5481565b60055481565b6114d26117a1565b73ffffffffffffffffffffffffffffffffffffffff166114f0610fd4565b73ffffffffffffffffffffffffffffffffffffffff1614611546576040517f08c379a000000000000000000000000000000000000000000000000000000000815260040161153d90612db9565b60405180910390fd5b600073ffffffffffffffffffffffffffffffffffffffff168173ffffffffffffffffffffffffffffffffffffffff1614156115b6576040517f08c379a00000000000000000000000000000000000000000000000000000000081526004016115ad90612cb9565b60405180910390fd5b8073ffffffffffffffffffffffffffffffffffffffff1660008054906101000a900473ffffffffffffffffffffffffffffffffffffffff1673ffffffffffffffffffffffffffffffffffffffff167f8be0079c531659141344cd1fd0a4f28419497f9722a3daafe3b4186f6b6457e060405160405180910390a3806000806101000a81548173ffffffffffffffffffffffffffffffffffffffff021916908373ffffffffffffffffffffffffffffffffffffffff16021790555050565b600f60009054906101000a900460ff1681565b600a5481565b600b60009054906101000a900473ffffffffffffffffffffffffffffffffffffffff1681565b60006001600083815260200190815260200160002090504281600101819055506116e7600654426122c690919063ffffffff16565b81600201819055506117116006546005546117029190613070565b426122c690919063ffffffff16565b81600301819055508181600001819055506000816006018190555060006117366122dc565b9050808260040181905550600182600a0160006101000a81548160ff021916908315150217905550827f9e37e19d9d58170ef7fa39e3af5503e907349528858211f19048af4dbe3d1169428460040154604051611794929190612e94565b60405180910390a2505050565b600033905090565b600060016000600454815260200190815260200160002090506000816007015414806117d9575060008160080154145b80156117e85750806002015442115b156118a157611802600654426122c690919063ffffffff16565b816002018190555061182c60065460055461181d9190613070565b426122c690919063ffffffff16565b81600301819055506004548160000181905550600181600a0160006101000a81548160ff0219169083151502179055506004547f47b762ac638c22adad7e31842ba484d28b5750a7e7bdceb1f66c1687b2c1feef82600101548360040154604051611898929190612e94565b60405180910390a25b50565b600160006004548152602001908152602001600020600301544210156118ff576040517f08c379a00000000000000000000000000000000000000000000000000000000081526004016118f690612cf9565b60405180910390fd5b6000600160006004548152602001908152602001600020905060006119226122dc565b9050808260050181905550600082600a0160006101000a81548160ff021916908315150217905550600182600a0160016101000a81548160ff0219169083151502179055506119726004546123c2565b61197a6125bf565b6004547fb6ff1fe915db84788cbbbc017f0d2bef9485fad9fd0bd8ce9340fde0d8410dd84284600501546040516119b2929190612e94565b60405180910390a26119c2612634565b5050565b600060016000838152602001908152602001600020600101541415611a20576040517f08c379a0000000000000000000000000000000000000000000000000000000008152600401611a1790612e39565b60405180910390fd5b60016000828152602001908152602001600020600301544211611a78576040517f08c379a0000000000000000000000000000000000000000000000000000000008152600401611a6f90612d79565b60405180910390fd5b6002600082815260200190815260200160002060003373ffffffffffffffffffffffffffffffffffffffff1673ffffffffffffffffffffffffffffffffffffffff16815260200190815260200160002060020160009054906101000a900460ff1615611b19576040517f08c379a0000000000000000000000000000000000000000000000000000000008152600401611b1090612e59565b60405180910390fd5b600060016000838152602001908152602001600020600a0160019054906101000a900460ff161561205957611b4e8233610ffd565b611b8d576040517f08c379a0000000000000000000000000000000000000000000000000000000008152600401611b8490612cd9565b60405180910390fd5b6000600160008481526020019081526020016000206040518061018001604052908160008201548152602001600182015481526020016002820154815260200160038201548152602001600482015481526020016005820154815260200160068201548152602001600782015481526020016008820154815260200160098201548152602001600a820160009054906101000a900460ff16151515158152602001600a820160019054906101000a900460ff16151515158152505090506000611c786064611c6a6008548560c0015161270090919063ffffffff16565b61271690919063ffffffff16565b9050600160008581526020019081526020016000206004015460016000868152602001908152602001600020600501541315611d8f5760006002600086815260200190815260200160002060003373ffffffffffffffffffffffffffffffffffffffff1673ffffffffffffffffffffffffffffffffffffffff168152602001908152602001600020600001541115611d8a57611d87826101200151611d79836002600089815260200190815260200160002060003373ffffffffffffffffffffffffffffffffffffffff1673ffffffffffffffffffffffffffffffffffffffff1681526020019081526020016000206000015461270090919063ffffffff16565b61271690919063ffffffff16565b92505b612052565b600160008581526020019081526020016000206004015460016000868152602001908152602001600020600501541215611ea45760006002600086815260200190815260200160002060003373ffffffffffffffffffffffffffffffffffffffff1673ffffffffffffffffffffffffffffffffffffffff168152602001908152602001600020600101541115611e9f57611e9c826101200151611e8e836002600089815260200190815260200160002060003373ffffffffffffffffffffffffffffffffffffffff1673ffffffffffffffffffffffffffffffffffffffff1681526020019081526020016000206001015461270090919063ffffffff16565b61271690919063ffffffff16565b92505b612051565b6000611f5f6002600087815260200190815260200160002060003373ffffffffffffffffffffffffffffffffffffffff1673ffffffffffffffffffffffffffffffffffffffff168152602001908152602001600020600001546002600088815260200190815260200160002060003373ffffffffffffffffffffffffffffffffffffffff1673ffffffffffffffffffffffffffffffffffffffff168152602001908152602001600020600101546122c690919063ffffffff16565b11156120505760006120206002600087815260200190815260200160002060003373ffffffffffffffffffffffffffffffffffffffff1673ffffffffffffffffffffffffffffffffffffffff168152602001908152602001600020600001546002600088815260200190815260200160002060003373ffffffffffffffffffffffffffffffffffffffff1673ffffffffffffffffffffffffffffffffffffffff168152602001908152602001600020600101546122c690919063ffffffff16565b905061204c83610120015161203e848461270090919063ffffffff16565b61271690919063ffffffff16565b9350505b5b5b5050612164565b6120638233610dda565b6120a2576040517f08c379a000000000000000000000000000000000000000000000000000000000815260040161209990612c79565b60405180910390fd5b600061215d6002600085815260200190815260200160002060003373ffffffffffffffffffffffffffffffffffffffff1673ffffffffffffffffffffffffffffffffffffffff168152602001908152602001600020600001546002600086815260200190815260200160002060003373ffffffffffffffffffffffffffffffffffffffff1673ffffffffffffffffffffffffffffffffffffffff168152602001908152602001600020600101546122c690919063ffffffff16565b9050809150505b60006002600084815260200190815260200160002060003373ffffffffffffffffffffffffffffffffffffffff1673ffffffffffffffffffffffffffffffffffffffff168152602001908152602001600020905060018160020160006101000a81548160ff0219169083151502179055506000821115612238576121e8338361272c565b823373ffffffffffffffffffffffffffffffffffffffff167f34fcbac0073d7c3d388e51312faf357774904998eeb8fca628b9e6f65ee1cbf78460405161222f9190612e79565b60405180910390a35b505050565b60008060016000848152602001908152602001600020600101541415801561227c57506000600160008481526020019081526020016000206002015414155b801561229e575060016000838152602001908152602001600020600101544210155b80156122bf5750600160008381526020019081526020016000206002015442105b9050919050565b600081836122d49190613070565b905092915050565b600080600080600d60009054906101000a900473ffffffffffffffffffffffffffffffffffffffff1673ffffffffffffffffffffffffffffffffffffffff1663feaf968c6040518163ffffffff167c010000000000000000000000000000000000000000000000000000000002815260040160a06040518083038186803b15801561236657600080fd5b505afa15801561237a573d6000803e3d6000fd5b505050506040513d601f19601f8201168201806040525081019061239e9190612924565b50935050925092508269ffffffffffffffffffff16600e8190555081935050505090565b60646123db6009546008546122c690919063ffffffff16565b1461241b576040517f08c379a000000000000000000000000000000000000000000000000000000000815260040161241290612d99565b60405180910390fd5b6000600160008381526020019081526020016000206009015414612474576040517f08c379a000000000000000000000000000000000000000000000000000000000815260040161246b90612d39565b60405180910390fd5b600060016000838152602001908152602001600020905060008060006124bc60646124ae600854876006015461270090919063ffffffff16565b61271690919063ffffffff16565b91506124ea60646124dc600954876006015461270090919063ffffffff16565b61271690919063ffffffff16565b9050836004015484600501541315612508578360070154925061252d565b836004015484600501541215612524578360080154925061252c565b836006015492505b5b82846009018190555061254b81600c546122c690919063ffffffff16565b600c81905550847f6dfdfcb09c8804d0058826cd2539f1acfbe3cb887c9be03d928035bce0f1a58d846125a060646125926008548a6006015461270090919063ffffffff16565b61271690919063ffffffff16565b846040516125b093929190612ef4565b60405180910390a25050505050565b6000600c5490506000600c819055506125fa600b60009054906101000a900473ffffffffffffffffffffffffffffffffffffffff168261272c565b7f609175abb7f12481e4f200d1ef4fc834e6caac3d9eadba42d664352f6d0932ca816040516126299190612e79565b60405180910390a150565b600f60009054906101000a900460ff16612683576040517f08c379a000000000000000000000000000000000000000000000000000000000815260040161267a90612c99565b60405180910390fd5b600160006004548152602001908152602001600020600301544210156126de576040517f08c379a00000000000000000000000000000000000000000000000000000000081526004016126d590612d19565b60405180910390fd5b60016004546126ed9190613070565b6004819055506126fe6004546116b2565b565b6000818361270e91906130f7565b905092915050565b6000818361272491906130c6565b905092915050565b60008273ffffffffffffffffffffffffffffffffffffffff166159d88360405161275590612c2e565b600060405180830381858888f193505050503d8060008114612793576040519150601f19603f3d011682016040523d82523d6000602084013e612798565b606091505b50509050806127dc576040517f08c379a00000000000000000000000000000000000000000000000000000000081526004016127d390612e19565b60405180910390fd5b505050565b6000813590506127f081613617565b92915050565b6000815190506128058161362e565b92915050565b60008135905061281a81613645565b92915050565b60008151905061282f81613645565b92915050565b6000815190506128448161365c565b92915050565b6000602082840312156128605761285f613275565b5b600061286e848285016127e1565b91505092915050565b6000806040838503121561288e5761288d613275565b5b600061289c858286016127e1565b92505060206128ad8582860161280b565b9150509250929050565b6000602082840312156128cd576128cc613275565b5b60006128db8482850161280b565b91505092915050565b600080604083850312156128fb576128fa613275565b5b60006129098582860161280b565b925050602061291a858286016127e1565b9150509250929050565b600080600080600060a086880312156129405761293f613275565b5b600061294e88828901612835565b955050602061295f888289016127f6565b945050604061297088828901612820565b935050606061298188828901612820565b925050608061299288828901612835565b9150509295509295909350565b6129a881613185565b82525050565b6129b781613197565b82525050565b6129c6816131a3565b82525050565b60006129d960178361305f565b91506129e48261327a565b602082019050919050565b60006129fc60318361305f565b9150612a07826132a3565b604082019050919050565b6000612a1f60268361305f565b9150612a2a826132f2565b604082019050919050565b6000612a4260168361305f565b9150612a4d82613341565b602082019050919050565b6000612a6560208361305f565b9150612a708261336a565b602082019050919050565b6000612a8860308361305f565b9150612a9382613393565b604082019050919050565b6000612aab60128361305f565b9150612ab6826133e2565b602082019050919050565b6000612ace602c8361305f565b9150612ad98261340b565b604082019050919050565b6000612af160138361305f565b9150612afc8261345a565b602082019050919050565b6000612b1460358361305f565b9150612b1f82613483565b604082019050919050565b6000612b3760208361305f565b9150612b42826134d2565b602082019050919050565b6000612b5a60128361305f565b9150612b65826134fb565b602082019050919050565b6000612b7d60238361305f565b9150612b8882613524565b604082019050919050565b6000612ba060238361305f565b9150612bab82613573565b604082019050919050565b6000612bc3600083613054565b9150612bce826135c2565b600082019050919050565b6000612be660158361305f565b9150612bf1826135c5565b602082019050919050565b6000612c09600f8361305f565b9150612c14826135ee565b602082019050919050565b612c28816131cd565b82525050565b6000612c3982612bb6565b9150819050919050565b6000602082019050612c58600083018461299f565b92915050565b6000602082019050612c7360008301846129ae565b92915050565b60006020820190508181036000830152612c92816129cc565b9050919050565b60006020820190508181036000830152612cb2816129ef565b9050919050565b60006020820190508181036000830152612cd281612a12565b9050919050565b60006020820190508181036000830152612cf281612a35565b9050919050565b60006020820190508181036000830152612d1281612a58565b9050919050565b60006020820190508181036000830152612d3281612a7b565b9050919050565b60006020820190508181036000830152612d5281612a9e565b9050919050565b60006020820190508181036000830152612d7281612ac1565b9050919050565b60006020820190508181036000830152612d9281612ae4565b9050919050565b60006020820190508181036000830152612db281612b07565b9050919050565b60006020820190508181036000830152612dd281612b2a565b9050919050565b60006020820190508181036000830152612df281612b4d565b9050919050565b60006020820190508181036000830152612e1281612b70565b9050919050565b60006020820190508181036000830152612e3281612b93565b9050919050565b60006020820190508181036000830152612e5281612bd9565b9050919050565b60006020820190508181036000830152612e7281612bfc565b9050919050565b6000602082019050612e8e6000830184612c1f565b92915050565b6000604082019050612ea96000830185612c1f565b612eb660208301846129bd565b9392505050565b6000606082019050612ed26000830186612c1f565b612edf6020830185612c1f565b612eec60408301846129ae565b949350505050565b6000606082019050612f096000830186612c1f565b612f166020830185612c1f565b612f236040830184612c1f565b949350505050565b600060e082019050612f40600083018a612c1f565b612f4d6020830189612c1f565b612f5a6040830188612c1f565b612f6760608301876129bd565b612f7460808301866129bd565b612f8160a08301856129ae565b612f8e60c0830184612c1f565b98975050505050505050565b600061018082019050612fb0600083018f612c1f565b612fbd602083018e612c1f565b612fca604083018d612c1f565b612fd7606083018c612c1f565b612fe4608083018b6129bd565b612ff160a083018a6129bd565b612ffe60c0830189612c1f565b61300b60e0830188612c1f565b613019610100830187612c1f565b613027610120830186612c1f565b6130356101408301856129ae565b6130436101608301846129ae565b9d9c50505050505050505050505050565b600081905092915050565b600082825260208201905092915050565b600061307b826131cd565b9150613086836131cd565b9250827fffffffffffffffffffffffffffffffffffffffffffffffffffffffffffffffff038211156130bb576130ba613217565b5b828201905092915050565b60006130d1826131cd565b91506130dc836131cd565b9250826130ec576130eb613246565b5b828204905092915050565b6000613102826131cd565b915061310d836131cd565b9250817fffffffffffffffffffffffffffffffffffffffffffffffffffffffffffffffff048311821515161561314657613145613217565b5b828202905092915050565b600061315c826131cd565b9150613167836131cd565b92508282101561317a57613179613217565b5b828203905092915050565b6000613190826131ad565b9050919050565b60008115159050919050565b6000819050919050565b600073ffffffffffffffffffffffffffffffffffffffff82169050919050565b6000819050919050565b600069ffffffffffffffffffff82169050919050565b60006131f8826131cd565b9150600082141561320c5761320b613217565b5b600182039050919050565b7f4e487b7100000000000000000000000000000000000000000000000000000000600052601160045260246000fd5b7f4e487b7100000000000000000000000000000000000000000000000000000000600052601260045260246000fd5b600080fd5b7f4e6f7420656c696769626c6520666f7220726566756e64000000000000000000600082015250565b7f43616e206f6e6c792072756e2061667465722067656e6573697353746172745260008201527f6f756e6420697320747269676765726564000000000000000000000000000000602082015250565b7f4f776e61626c653a206e6577206f776e657220697320746865207a65726f206160008201527f6464726573730000000000000000000000000000000000000000000000000000602082015250565b7f4e6f7420656c696769626c6520666f7220636c61696d00000000000000000000600082015250565b7f43616e206f6e6c7920656e6420726f756e6420616674657220656e6454696d65600082015250565b7f43616e206f6e6c79207374617274206e657720726f756e64206166746572207260008201527f6f756e64206e2d3120656e6454696d6500000000000000000000000000000000602082015250565b7f526577617264732063616c63756c617465640000000000000000000000000000600082015250565b7f42657420616d6f756e74206d7573742062652067726561746572207468616e2060008201527f6d696e426574416d6f756e740000000000000000000000000000000000000000602082015250565b7f526f756e6420686173206e6f7420656e64656400000000000000000000000000600082015250565b7f7265776172645261746520616e6420747265617375727952617465206d75737460008201527f2061646420757020746f20544f54414c5f524154450000000000000000000000602082015250565b7f4f776e61626c653a2063616c6c6572206973206e6f7420746865206f776e6572600082015250565b7f526f756e64206e6f74206265747461626c650000000000000000000000000000600082015250565b7f43616e206f6e6c792072756e2067656e657369735374617274526f756e64206f60008201527f6e63650000000000000000000000000000000000000000000000000000000000602082015250565b7f5472616e7366657248656c7065723a20424e425f5452414e534645525f46414960008201527f4c45440000000000000000000000000000000000000000000000000000000000602082015250565b50565b7f526f756e6420686173206e6f7420737461727465640000000000000000000000600082015250565b7f5265776172647320636c61696d65640000000000000000000000000000000000600082015250565b61362081613185565b811461362b57600080fd5b50565b613637816131a3565b811461364257600080fd5b50565b61364e816131cd565b811461365957600080fd5b50565b613665816131d7565b811461367057600080fd5b5056fea2646970667358221220444bdcc8faf1608b1271e330b4f3fb4787ae8c1083ece5ee6e032446f36a6d3964736f6c63430008060033",
  "immutableReferences": {},
  "source": "// SPDX-License-Identifier: MIT\npragma solidity ^0.8.0;\n\nimport \"@openzeppelin/contracts/access/Ownable.sol\";\nimport \"@openzeppelin/contracts/utils/math/SafeMath.sol\";\nimport \"@chainlink/contracts/src/v0.8/interfaces/AggregatorV3Interface.sol\";\n\ncontract BnbPricePredictionBet is Ownable {\n    using SafeMath for uint256;\n    enum Position {Up, Down}\n    struct Round {\n        uint256 epoch;\n        uint256 startTime;\n        uint256 lockTime;\n        uint256 endTime;\n        int256 startPrice;\n        int256 closePrice;\n        uint256 totalAmount;\n        uint256 upAmount;\n        uint256 downAmount;\n        uint256 rewardBaseCalAmount;\n        bool status;\n        bool oracleCalled;\n    }\n    struct BetInfo {\n        uint256 upAmount;\n        uint256 downAmount;\n        bool claimed; // default false\n    }\n\n    mapping(uint256 => Round) public rounds;\n    mapping(uint256 => mapping(address => BetInfo)) public ledger;\n    mapping(address => uint256[]) public userRounds;\n    uint256 public currentEpoch;\n    uint256 public roundTime = 60;\n    uint256 public betTime = 15;\n    uint256 public bufferTime = 2;\n    uint256 public constant TOTAL_RATE = 100; // 100%\n    uint256 public rewardRate = 96; // 96%\n    uint256 public treasuryRate = 4; // 4%\n    uint256 public minBetAmount = 0;\n\n    address public adminAddress;\n    uint256 public treasuryAmount;\n    AggregatorV3Interface internal oracle;\n    uint256 public oracleLatestRoundId;    \n\n    bool public genesisStartOnce = false;\n    bool public genesisLockOnce = false;\n\n    event StartRound(uint256 indexed epoch, uint256 startTime, int256 price);\n    event EndRound(uint256 indexed epoch, uint256 blockTime, int256 price);\n    event ResetRound(uint256 indexed epoch, uint256 startTime, int256 price);\n\n    event BetUp(address indexed sender, uint256 indexed currentEpoch, uint256 amount);\n    event BetDown(address indexed sender, uint256 indexed currentEpoch, uint256 amount);\n    event Claim(address indexed sender, uint256 indexed currentEpoch, uint256 amount);\n    event ClaimTreasury(uint256 amount);\n    event RewardsCalculated(\n        uint256 indexed epoch,\n        uint256 rewardBaseCalAmount,\n        uint256 rewardAmount,\n        uint256 treasuryAmount\n    );\n\n    constructor() {\n        oracle = AggregatorV3Interface(0x2514895c72f50D8bd4B4F9b1110F0D6bD2c97526);\n        adminAddress = _msgSender();       \n    }\n\n    /**\n     * @dev Start genesis round\n     */\n    function genesisStartRound() external {\n        require(!genesisStartOnce, \"Can only run genesisStartRound once\");\n        currentEpoch = currentEpoch + 1;\n        _startRound(currentEpoch);\n        genesisStartOnce = true;\n    }\n\n    /**\n     * @dev Start round     \n     */\n    function _safeStartRound() internal {\n        require(genesisStartOnce, \"Can only run after genesisStartRound is triggered\");\n        require(block.timestamp >= rounds[currentEpoch].endTime, \"Can only start new round after round n-1 endTime\");\n        currentEpoch = currentEpoch + 1;\n        _startRound(currentEpoch);\n    }\n\n    function _startRound(uint256 epoch) internal {\n        Round storage round = rounds[epoch];\n        round.startTime = block.timestamp;\n        round.lockTime = block.timestamp.add(betTime);\n        round.endTime = block.timestamp.add(roundTime + betTime);\n        round.epoch = epoch;\n        round.totalAmount = 0;\n        int256 currentPrice = _getPriceFromOracle();\n        round.startPrice = currentPrice;\n        round.status = true;\n\n        emit StartRound(epoch, block.timestamp, round.startPrice);\n    }\n\n    function getStatus() external view returns (uint256, uint256, uint256, int256, int256, bool, uint256) {\n        require(genesisStartOnce, \"Can only run after genesisStartRound is triggered\");\n        ( , int256 price, , , ) = oracle.latestRoundData();   \n        bool roundStatus = false;\n        if(rounds[currentEpoch].lockTime < block.timestamp) roundStatus = true;  \n        return (\n                currentEpoch,\n                rounds[currentEpoch].upAmount,\n                rounds[currentEpoch].downAmount,\n                price,\n                rounds[currentEpoch].startPrice,\n                roundStatus,\n                rounds[currentEpoch].endTime\n            );\n    }\n\n    /**\n     * @dev End round\n     */\n    function _safeEndRound() internal {\n        require(block.timestamp >= rounds[currentEpoch].endTime, \"Can only end round after endTime\");\n        Round storage round = rounds[currentEpoch];\n        int256 currentPrice = _getPriceFromOracle();\n        round.closePrice = currentPrice;\n        round.status = false;\n        round.oracleCalled = true;      \n        _calculateRewards(currentEpoch);\n        claimTreasury();\n\n        emit EndRound(currentEpoch, block.timestamp, round.closePrice);\n\n        _safeStartRound();\n    }   \n\n    /**\n     * @dev Bet bear position\n     */\n    function betDown() external payable {\n        _checkRound();\n        if(block.timestamp >= rounds[currentEpoch].endTime) {\n            uint tempCurrentEpoch = currentEpoch;\n            _safeEndRound();\n            claim(tempCurrentEpoch);\n        }\n         if(!ledger[currentEpoch-1][msg.sender].claimed && rounds[currentEpoch-1].startTime != 0) claim(currentEpoch-1);\n        require(_bettable(currentEpoch), \"Round not bettable\");\n        require(msg.value >= minBetAmount, \"Bet amount must be greater than minBetAmount\");\n        // require(ledger[currentEpoch][msg.sender].amount == 0, \"Can only bet once per round\");\n\n        // Update round data\n        uint256 amount = msg.value;\n        Round storage round = rounds[currentEpoch];\n        round.totalAmount = round.totalAmount.add(amount);\n        round.downAmount = round.downAmount.add(amount);\n\n        // Update user data\n        BetInfo storage betInfo = ledger[currentEpoch][msg.sender];\n        // betInfo.position = Position.Down;\n        betInfo.downAmount = betInfo.downAmount.add(amount);\n        userRounds[msg.sender].push(currentEpoch);\n\n        emit BetDown(msg.sender, currentEpoch, amount);\n    }\n\n    /**\n     * @dev Bet bull position\n     */\n    function betUp() external payable {\n        _checkRound();\n        if(block.timestamp >= rounds[currentEpoch].endTime) {\n            uint tempCurrentEpoch = currentEpoch;\n            _safeEndRound();\n            claim(tempCurrentEpoch);\n        }\n        if(!ledger[currentEpoch-1][msg.sender].claimed && rounds[currentEpoch-1].startTime != 0) claim(currentEpoch-1);\n        require(_bettable(currentEpoch), \"Round not bettable\");\n        require(msg.value >= minBetAmount, \"Bet amount must be greater than minBetAmount\");\n        // require(ledger[currentEpoch][msg.sender].amount == 0, \"Can only bet once per round\");\n\n        // Update round data\n        uint256 amount = msg.value;\n        Round storage round = rounds[currentEpoch];\n        round.totalAmount = round.totalAmount.add(amount);\n        round.upAmount = round.upAmount.add(amount);\n\n        // Update user data\n        BetInfo storage betInfo = ledger[currentEpoch][msg.sender];\n        // betInfo.position = Position.Up;\n        betInfo.upAmount = betInfo.upAmount.add(amount);\n        userRounds[msg.sender].push(currentEpoch);\n\n        emit BetUp(msg.sender, currentEpoch, amount);\n    }\n\n    function _checkRound() internal {\n        Round storage round = rounds[currentEpoch];\n        if((round.upAmount == 0 || round.downAmount == 0) && block.timestamp > round.lockTime) {        \n            round.lockTime = block.timestamp.add(betTime);\n            round.endTime = block.timestamp.add(roundTime + betTime);\n            round.epoch = currentEpoch;\n            round.status = true;\n\n            emit ResetRound(currentEpoch, round.startTime, round.startPrice);\n        }\n    }\n\n    function stopRound() external {\n        for(uint i = currentEpoch; i > 0; i--){\n            delete rounds[i];\n        }\n        currentEpoch = 0;\n        genesisStartOnce = false;\n    }\n\n    /**\n     * @dev Claim reward\n     */\n    function claim(uint256 epoch) internal {\n        require(rounds[epoch].startTime != 0, \"Round has not started\");\n        require(block.timestamp > rounds[epoch].endTime, \"Round has not ended\");\n        require(!ledger[epoch][msg.sender].claimed, \"Rewards claimed\");\n\n        uint256 reward = 0;     \n        // Round valid, claim rewards\n        if (rounds[epoch].oracleCalled) {\n            require(claimable(epoch, msg.sender), \"Not eligible for claim\");\n            Round memory round = rounds[epoch];\n            uint256 rewardAmount = round.totalAmount.mul(rewardRate).div(TOTAL_RATE);\n            if(rounds[epoch].closePrice > rounds[epoch].startPrice) {\n                if (ledger[epoch][msg.sender].upAmount > 0) {\n                    reward = ledger[epoch][msg.sender].upAmount.mul(rewardAmount).div(round.rewardBaseCalAmount);\n                }               \n            }\n            else if (rounds[epoch].closePrice < rounds[epoch].startPrice) {\n                if (ledger[epoch][msg.sender].downAmount > 0) {\n                    reward = ledger[epoch][msg.sender].downAmount.mul(rewardAmount).div(round.rewardBaseCalAmount);\n                }               \n            }\n            else {\n                if (ledger[epoch][msg.sender].downAmount.add(ledger[epoch][msg.sender].upAmount) > 0) {\n                    uint256 totalBet = ledger[epoch][msg.sender].downAmount.add(ledger[epoch][msg.sender].upAmount);\n                    reward = totalBet.mul(rewardAmount).div(round.rewardBaseCalAmount);\n                }                \n            }          \n        }\n        // Round invalid, refund bet amount\n        else {\n            require(refundable(epoch, msg.sender), \"Not eligible for refund\");\n            uint256 totalBet = ledger[epoch][msg.sender].downAmount.add(ledger[epoch][msg.sender].upAmount);\n            reward = totalBet;\n        }\n\n        BetInfo storage betInfo = ledger[epoch][msg.sender];\n        betInfo.claimed = true;\n        if(reward > 0) {\n            _safeTransferBNB(address(msg.sender), reward);\n            emit Claim(msg.sender, epoch, reward);\n        }\n    }\n\n    /**\n     * @dev Claim all rewards in treasury\n     * callable by admin\n     */\n    function claimTreasury() internal {\n        uint256 currentTreasuryAmount = treasuryAmount;\n        treasuryAmount = 0;\n        _safeTransferBNB(adminAddress, currentTreasuryAmount);\n\n        emit ClaimTreasury(currentTreasuryAmount);\n    }\n   \n    /**\n     * @dev Get the claimable stats of specific epoch and user account\n     */\n    function claimable(uint256 epoch, address user) public view returns (bool) {\n        BetInfo memory betInfo = ledger[epoch][user];\n        Round memory round = rounds[epoch];      \n        return round.oracleCalled;\n    }\n\n    /**\n     * @dev Get the refundable stats of specific epoch and user account\n     */\n    function refundable(uint256 epoch, address user) public view returns (bool) {\n        BetInfo memory betInfo = ledger[epoch][user];\n        Round memory round = rounds[epoch];\n        return !round.oracleCalled && block.timestamp > round.endTime.add(bufferTime);\n    }   \n\n    /**\n     * @dev Calculate rewards for round\n     */\n    function _calculateRewards(uint256 epoch) internal {\n        require(rewardRate.add(treasuryRate) == TOTAL_RATE, \"rewardRate and treasuryRate must add up to TOTAL_RATE\");\n        require(rounds[epoch].rewardBaseCalAmount == 0, \"Rewards calculated\");\n        Round storage round = rounds[epoch];\n        uint256 rewardBaseCalAmount;\n        uint256 rewardAmount;\n        uint256 treasuryAmt;\n\n        rewardAmount = round.totalAmount.mul(rewardRate).div(TOTAL_RATE);\n        treasuryAmt = round.totalAmount.mul(treasuryRate).div(TOTAL_RATE);\n        // Up wins\n        if (round.closePrice > round.startPrice) {\n            rewardBaseCalAmount = round.upAmount;\n        }\n        // Down wins\n        else if (round.closePrice < round.startPrice) {\n            rewardBaseCalAmount = round.downAmount;\n        }\n        // House wins\n        else {\n            rewardBaseCalAmount = round.totalAmount;\n        }\n        round.rewardBaseCalAmount = rewardBaseCalAmount;\n\n        // Add to treasury\n        treasuryAmount = treasuryAmount.add(treasuryAmt);\n\n        emit RewardsCalculated(epoch, rewardBaseCalAmount, round.totalAmount.mul(rewardRate).div(TOTAL_RATE), treasuryAmt);\n    }\n\n    /**\n     * @dev Get latest recorded price from oracle\n     * If it falls below allowed buffer or has not updated, it would be invalid\n     */\n    function _getPriceFromOracle() internal returns (int256) {\n        (uint80 roundId, int256 price, , uint256 timestamp, ) = oracle.latestRoundData();\n        oracleLatestRoundId = uint256(roundId);\n        return price;\n    }\n\n    function _safeTransferBNB(address to, uint256 value) internal {\n        (bool success, ) = to.call{gas: 23000, value: value}(\"\");\n        require(success, \"TransferHelper: BNB_TRANSFER_FAILED\");\n    }\n   \n    /**\n     * @dev Determine if a round is valid for receiving bets\n     * Round must have started and locked\n     * Current time must be within startTime and endTime\n     */\n    function _bettable(uint256 epoch) internal view returns (bool) {\n        return\n            rounds[epoch].startTime != 0 &&\n            rounds[epoch].lockTime != 0 &&\n            block.timestamp >= rounds[epoch].startTime &&\n            block.timestamp < rounds[epoch].lockTime;\n    }\n}",
  "sourcePath": "/home/seagod/Seagod/test/bnb_prediction_bet/contracts/BnbPricePredictionBet.sol",
  "compiler": {
    "name": "solc",
    "version": "0.8.6+commit.11564f7e.Emscripten.clang"
  },
  "schemaVersion": "3.4.1",
  "updatedAt": "2021-07-02T14:24:46.167Z",
  "networkType": "ethereum",
  "devdoc": {
    "kind": "dev",
    "methods": {
      "betDown()": {
        "details": "Bet bear position"
      },
      "betUp()": {
        "details": "Bet bull position"
      },
      "claimable(uint256,address)": {
        "details": "Get the claimable stats of specific epoch and user account"
      },
      "genesisStartRound()": {
        "details": "Start genesis round"
      },
      "owner()": {
        "details": "Returns the address of the current owner."
      },
      "refundable(uint256,address)": {
        "details": "Get the refundable stats of specific epoch and user account"
      },
      "renounceOwnership()": {
        "details": "Leaves the contract without owner. It will not be possible to call `onlyOwner` functions anymore. Can only be called by the current owner. NOTE: Renouncing ownership will leave the contract without an owner, thereby removing any functionality that is only available to the owner."
      },
      "transferOwnership(address)": {
        "details": "Transfers ownership of the contract to a new account (`newOwner`). Can only be called by the current owner."
      }
    },
    "version": 1
  },
  "userdoc": {
    "kind": "user",
    "methods": {},
    "version": 1
  }
}