{
  "contractName": "BnbTest",
  "abi": [
    {
      "inputs": [],
      "stateMutability": "nonpayable",
      "type": "constructor"
    },
    {
      "anonymous": false,
      "inputs": [
        {
          "indexed": true,
          "internalType": "address",
          "name": "sender",
          "type": "address"
        },
        {
          "indexed": true,
          "internalType": "uint256",
          "name": "currentEpoch",
          "type": "uint256"
        },
        {
          "indexed": false,
          "internalType": "uint256",
          "name": "amount",
          "type": "uint256"
        }
      ],
      "name": "BetDown",
      "type": "event"
    },
    {
      "anonymous": false,
      "inputs": [
        {
          "indexed": false,
          "internalType": "uint256",
          "name": "blocktimestamp",
          "type": "uint256"
        },
        {
          "indexed": false,
          "internalType": "uint256",
          "name": "roundendTime",
          "type": "uint256"
        },
        {
          "indexed": true,
          "internalType": "uint256",
          "name": "currentEpoch",
          "type": "uint256"
        }
      ],
      "name": "BetTest",
      "type": "event"
    },
    {
      "anonymous": false,
      "inputs": [
        {
          "indexed": true,
          "internalType": "address",
          "name": "sender",
          "type": "address"
        },
        {
          "indexed": true,
          "internalType": "uint256",
          "name": "currentEpoch",
          "type": "uint256"
        },
        {
          "indexed": false,
          "internalType": "uint256",
          "name": "amount",
          "type": "uint256"
        }
      ],
      "name": "BetUp",
      "type": "event"
    },
    {
      "anonymous": false,
      "inputs": [
        {
          "indexed": true,
          "internalType": "address",
          "name": "sender",
          "type": "address"
        },
        {
          "indexed": true,
          "internalType": "uint256",
          "name": "currentEpoch",
          "type": "uint256"
        },
        {
          "indexed": false,
          "internalType": "uint256",
          "name": "amount",
          "type": "uint256"
        }
      ],
      "name": "Claim",
      "type": "event"
    },
    {
      "anonymous": false,
      "inputs": [
        {
          "indexed": false,
          "internalType": "uint256",
          "name": "amount",
          "type": "uint256"
        }
      ],
      "name": "ClaimTreasury",
      "type": "event"
    },
    {
      "anonymous": false,
      "inputs": [
        {
          "indexed": true,
          "internalType": "uint256",
          "name": "epoch",
          "type": "uint256"
        },
        {
          "indexed": false,
          "internalType": "uint256",
          "name": "blockTime",
          "type": "uint256"
        },
        {
          "indexed": false,
          "internalType": "int256",
          "name": "price",
          "type": "int256"
        }
      ],
      "name": "EndRound",
      "type": "event"
    },
    {
      "anonymous": false,
      "inputs": [
        {
          "indexed": true,
          "internalType": "address",
          "name": "previousOwner",
          "type": "address"
        },
        {
          "indexed": true,
          "internalType": "address",
          "name": "newOwner",
          "type": "address"
        }
      ],
      "name": "OwnershipTransferred",
      "type": "event"
    },
    {
      "anonymous": false,
      "inputs": [
        {
          "indexed": true,
          "internalType": "uint256",
          "name": "epoch",
          "type": "uint256"
        },
        {
          "indexed": false,
          "internalType": "uint256",
          "name": "startTime",
          "type": "uint256"
        },
        {
          "indexed": false,
          "internalType": "int256",
          "name": "price",
          "type": "int256"
        }
      ],
      "name": "ResetRound",
      "type": "event"
    },
    {
      "anonymous": false,
      "inputs": [
        {
          "indexed": true,
          "internalType": "uint256",
          "name": "epoch",
          "type": "uint256"
        },
        {
          "indexed": false,
          "internalType": "uint256",
          "name": "rewardBaseCalAmount",
          "type": "uint256"
        },
        {
          "indexed": false,
          "internalType": "uint256",
          "name": "rewardAmount",
          "type": "uint256"
        },
        {
          "indexed": false,
          "internalType": "uint256",
          "name": "treasuryAmount",
          "type": "uint256"
        }
      ],
      "name": "RewardsCalculated",
      "type": "event"
    },
    {
      "anonymous": false,
      "inputs": [
        {
          "indexed": true,
          "internalType": "uint256",
          "name": "epoch",
          "type": "uint256"
        },
        {
          "indexed": false,
          "internalType": "uint256",
          "name": "startTime",
          "type": "uint256"
        },
        {
          "indexed": false,
          "internalType": "uint256",
          "name": "endTime",
          "type": "uint256"
        },
        {
          "indexed": false,
          "internalType": "int256",
          "name": "price",
          "type": "int256"
        }
      ],
      "name": "StartRound",
      "type": "event"
    },
    {
      "inputs": [],
      "name": "TOTAL_RATE",
      "outputs": [
        {
          "internalType": "uint256",
          "name": "",
          "type": "uint256"
        }
      ],
      "stateMutability": "view",
      "type": "function"
    },
    {
      "inputs": [],
      "name": "adminAddress",
      "outputs": [
        {
          "internalType": "address",
          "name": "",
          "type": "address"
        }
      ],
      "stateMutability": "view",
      "type": "function"
    },
    {
      "inputs": [],
      "name": "betTime",
      "outputs": [
        {
          "internalType": "uint256",
          "name": "",
          "type": "uint256"
        }
      ],
      "stateMutability": "view",
      "type": "function"
    },
    {
      "inputs": [],
      "name": "bufferTime",
      "outputs": [
        {
          "internalType": "uint256",
          "name": "",
          "type": "uint256"
        }
      ],
      "stateMutability": "view",
      "type": "function"
    },
    {
      "inputs": [],
      "name": "currentEpoch",
      "outputs": [
        {
          "internalType": "uint256",
          "name": "",
          "type": "uint256"
        }
      ],
      "stateMutability": "view",
      "type": "function"
    },
    {
      "inputs": [],
      "name": "genesisLockOnce",
      "outputs": [
        {
          "internalType": "bool",
          "name": "",
          "type": "bool"
        }
      ],
      "stateMutability": "view",
      "type": "function"
    },
    {
      "inputs": [],
      "name": "genesisStartOnce",
      "outputs": [
        {
          "internalType": "bool",
          "name": "",
          "type": "bool"
        }
      ],
      "stateMutability": "view",
      "type": "function"
    },
    {
      "inputs": [
        {
          "internalType": "uint256",
          "name": "",
          "type": "uint256"
        },
        {
          "internalType": "address",
          "name": "",
          "type": "address"
        }
      ],
      "name": "ledger",
      "outputs": [
        {
          "internalType": "uint256",
          "name": "upAmount",
          "type": "uint256"
        },
        {
          "internalType": "uint256",
          "name": "downAmount",
          "type": "uint256"
        },
        {
          "internalType": "bool",
          "name": "claimed",
          "type": "bool"
        }
      ],
      "stateMutability": "view",
      "type": "function"
    },
    {
      "inputs": [],
      "name": "minBetAmount",
      "outputs": [
        {
          "internalType": "uint256",
          "name": "",
          "type": "uint256"
        }
      ],
      "stateMutability": "view",
      "type": "function"
    },
    {
      "inputs": [],
      "name": "oracleLatestRoundId",
      "outputs": [
        {
          "internalType": "uint256",
          "name": "",
          "type": "uint256"
        }
      ],
      "stateMutability": "view",
      "type": "function"
    },
    {
      "inputs": [],
      "name": "owner",
      "outputs": [
        {
          "internalType": "address",
          "name": "",
          "type": "address"
        }
      ],
      "stateMutability": "view",
      "type": "function"
    },
    {
      "inputs": [],
      "name": "renounceOwnership",
      "outputs": [],
      "stateMutability": "nonpayable",
      "type": "function"
    },
    {
      "inputs": [],
      "name": "rewardRate",
      "outputs": [
        {
          "internalType": "uint256",
          "name": "",
          "type": "uint256"
        }
      ],
      "stateMutability": "view",
      "type": "function"
    },
    {
      "inputs": [],
      "name": "roundTime",
      "outputs": [
        {
          "internalType": "uint256",
          "name": "",
          "type": "uint256"
        }
      ],
      "stateMutability": "view",
      "type": "function"
    },
    {
      "inputs": [
        {
          "internalType": "uint256",
          "name": "",
          "type": "uint256"
        }
      ],
      "name": "rounds",
      "outputs": [
        {
          "internalType": "uint256",
          "name": "epoch",
          "type": "uint256"
        },
        {
          "internalType": "uint256",
          "name": "startTime",
          "type": "uint256"
        },
        {
          "internalType": "uint256",
          "name": "lockTime",
          "type": "uint256"
        },
        {
          "internalType": "uint256",
          "name": "endTime",
          "type": "uint256"
        },
        {
          "internalType": "int256",
          "name": "startPrice",
          "type": "int256"
        },
        {
          "internalType": "int256",
          "name": "closePrice",
          "type": "int256"
        },
        {
          "internalType": "uint256",
          "name": "totalAmount",
          "type": "uint256"
        },
        {
          "internalType": "uint256",
          "name": "upAmount",
          "type": "uint256"
        },
        {
          "internalType": "uint256",
          "name": "downAmount",
          "type": "uint256"
        },
        {
          "internalType": "uint256",
          "name": "rewardBaseCalAmount",
          "type": "uint256"
        },
        {
          "internalType": "bool",
          "name": "status",
          "type": "bool"
        },
        {
          "internalType": "bool",
          "name": "oracleCalled",
          "type": "bool"
        }
      ],
      "stateMutability": "view",
      "type": "function"
    },
    {
      "inputs": [
        {
          "internalType": "address",
          "name": "newOwner",
          "type": "address"
        }
      ],
      "name": "transferOwnership",
      "outputs": [],
      "stateMutability": "nonpayable",
      "type": "function"
    },
    {
      "inputs": [],
      "name": "treasuryAmount",
      "outputs": [
        {
          "internalType": "uint256",
          "name": "",
          "type": "uint256"
        }
      ],
      "stateMutability": "view",
      "type": "function"
    },
    {
      "inputs": [],
      "name": "treasuryRate",
      "outputs": [
        {
          "internalType": "uint256",
          "name": "",
          "type": "uint256"
        }
      ],
      "stateMutability": "view",
      "type": "function"
    },
    {
      "inputs": [
        {
          "internalType": "address",
          "name": "",
          "type": "address"
        },
        {
          "internalType": "uint256",
          "name": "",
          "type": "uint256"
        }
      ],
      "name": "userRounds",
      "outputs": [
        {
          "internalType": "uint256",
          "name": "",
          "type": "uint256"
        }
      ],
      "stateMutability": "view",
      "type": "function"
    },
    {
      "inputs": [],
      "name": "genesisStartRound",
      "outputs": [],
      "stateMutability": "nonpayable",
      "type": "function"
    },
    {
      "inputs": [],
      "name": "getStatus",
      "outputs": [
        {
          "internalType": "uint256",
          "name": "",
          "type": "uint256"
        },
        {
          "internalType": "uint256",
          "name": "",
          "type": "uint256"
        },
        {
          "internalType": "uint256",
          "name": "",
          "type": "uint256"
        },
        {
          "internalType": "int256",
          "name": "",
          "type": "int256"
        },
        {
          "internalType": "int256",
          "name": "",
          "type": "int256"
        },
        {
          "internalType": "bool",
          "name": "",
          "type": "bool"
        },
        {
          "internalType": "uint256",
          "name": "",
          "type": "uint256"
        }
      ],
      "stateMutability": "view",
      "type": "function"
    },
    {
      "inputs": [],
      "name": "betDown",
      "outputs": [],
      "stateMutability": "payable",
      "type": "function"
    },
    {
      "inputs": [],
      "name": "betUp",
      "outputs": [],
      "stateMutability": "payable",
      "type": "function"
    },
    {
      "inputs": [],
      "name": "stopRound",
      "outputs": [],
      "stateMutability": "nonpayable",
      "type": "function"
    },
    {
      "inputs": [
        {
          "internalType": "uint256",
          "name": "epoch",
          "type": "uint256"
        },
        {
          "internalType": "address",
          "name": "user",
          "type": "address"
        }
      ],
      "name": "claimable",
      "outputs": [
        {
          "internalType": "bool",
          "name": "",
          "type": "bool"
        }
      ],
      "stateMutability": "view",
      "type": "function"
    },
    {
      "inputs": [
        {
          "internalType": "uint256",
          "name": "epoch",
          "type": "uint256"
        },
        {
          "internalType": "address",
          "name": "user",
          "type": "address"
        }
      ],
      "name": "refundable",
      "outputs": [
        {
          "internalType": "bool",
          "name": "",
          "type": "bool"
        }
      ],
      "stateMutability": "view",
      "type": "function"
    }
  ],
  "bytecode": "0x6080604052603c600555600f6006556002600755606060085560046009556000600a556000600f60006101000a81548160ff0219169083151502179055506000600f60016101000a81548160ff0219169083151502179055503480156200006557600080fd5b50600062000081620001d3640100000000026401000000009004565b9050806000806101000a81548173ffffffffffffffffffffffffffffffffffffffff021916908373ffffffffffffffffffffffffffffffffffffffff1602179055508073ffffffffffffffffffffffffffffffffffffffff16600073ffffffffffffffffffffffffffffffffffffffff167f8be0079c531659141344cd1fd0a4f28419497f9722a3daafe3b4186f6b6457e060405160405180910390a350732514895c72f50d8bd4b4f9b1110f0d6bd2c97526600d60006101000a81548173ffffffffffffffffffffffffffffffffffffffff021916908373ffffffffffffffffffffffffffffffffffffffff1602179055506200018d620001d3640100000000026401000000009004565b600b60006101000a81548173ffffffffffffffffffffffffffffffffffffffff021916908373ffffffffffffffffffffffffffffffffffffffff160217905550620001db565b600033905090565b61338880620001eb6000396000f3fe60806040526004361061019e576000357c010000000000000000000000000000000000000000000000000000000090048063a0c7f71c116100ee578063e4b72516116100a7578063f2fde38b11610081578063f2fde38b14610544578063f7fdec281461056d578063fa968eea14610598578063fc6f9468146105c35761019e565b8063e4b72516146104c3578063ec324703146104ee578063ee5f8c8f146105195761019e565b8063a0c7f71c146103be578063ad19f442146103fb578063b29c299b14610405578063ba7b670314610430578063c10ba76b1461045b578063dd1f7596146104865761019e565b80637285c58b1161015b5780637b0a47ee116101355780637b0a47ee146102e35780637bf412541461030e5780638c65c81f1461034b5780638da5cb5b146103935761019e565b80637285c58b1461026f57806376671808146102ae5780637782090b146102d95761019e565b80630f74174f146101a3578063368acb09146101ce578063452fd75a146101f95780634e69d5601461021057806355b895eb14610241578063715018a614610258575b600080fd5b3480156101af57600080fd5b506101b86105ee565b6040516101c5919061293a565b60405180910390f35b3480156101da57600080fd5b506101e3610601565b6040516101f09190612b55565b60405180910390f35b34801561020557600080fd5b5061020e610607565b005b34801561021c57600080fd5b50610225610694565b6040516102389796959493929190612c3e565b60405180910390f35b34801561024d57600080fd5b5061025661085b565b005b34801561026457600080fd5b5061026d610933565b005b34801561027b57600080fd5b50610296600480360381019061029191906125c0565b610a6d565b6040516102a593929190612b99565b60405180910390f35b3480156102ba57600080fd5b506102c3610ab1565b6040516102d09190612b55565b60405180910390f35b6102e1610ab7565b005b3480156102ef57600080fd5b506102f8610d16565b6040516103059190612b55565b60405180910390f35b34801561031a57600080fd5b50610335600480360381019061033091906125c0565b610d1c565b604051610342919061293a565b60405180910390f35b34801561035757600080fd5b50610372600480360381019061036d9190612593565b610e9c565b60405161038a9c9b9a99989796959493929190612cad565b60405180910390f35b34801561039f57600080fd5b506103a8610f16565b6040516103b5919061291f565b60405180910390f35b3480156103ca57600080fd5b506103e560048036038101906103e091906125c0565b610f3f565b6040516103f2919061293a565b60405180910390f35b61040361109b565b005b34801561041157600080fd5b5061041a6112fa565b6040516104279190612b55565b60405180910390f35b34801561043c57600080fd5b506104456112ff565b6040516104529190612b55565b60405180910390f35b34801561046757600080fd5b50610470611305565b60405161047d9190612b55565b60405180910390f35b34801561049257600080fd5b506104ad60048036038101906104a89190612553565b61130b565b6040516104ba9190612b55565b60405180910390f35b3480156104cf57600080fd5b506104d861133c565b6040516104e59190612b55565b60405180910390f35b3480156104fa57600080fd5b50610503611342565b6040516105109190612b55565b60405180910390f35b34801561052557600080fd5b5061052e611348565b60405161053b9190612b55565b60405180910390f35b34801561055057600080fd5b5061056b60048036038101906105669190612526565b61134e565b005b34801561057957600080fd5b506105826114f7565b60405161058f919061293a565b60405180910390f35b3480156105a457600080fd5b506105ad61150a565b6040516105ba9190612b55565b60405180910390f35b3480156105cf57600080fd5b506105d8611510565b6040516105e5919061291f565b60405180910390f35b600f60019054906101000a900460ff1681565b600c5481565b600f60009054906101000a900460ff1615610657576040517f08c379a000000000000000000000000000000000000000000000000000000000815260040161064e90612ad5565b60405180910390fd5b60016004546106669190612d83565b600481905550610677600454611536565b6001600f60006101000a81548160ff021916908315150217905550565b6000806000806000806000600f60009054906101000a900460ff166106ee576040517f08c379a00000000000000000000000000000000000000000000000000000000081526004016106e590612975565b60405180910390fd5b6000600d60009054906101000a900473ffffffffffffffffffffffffffffffffffffffff1673ffffffffffffffffffffffffffffffffffffffff1663feaf968c6040518163ffffffff167c010000000000000000000000000000000000000000000000000000000002815260040160a06040518083038186803b15801561077457600080fd5b505afa158015610788573d6000803e3d6000fd5b505050506040513d601f19601f820116820180604052508101906107ac9190612600565b5050509150506000426001600060045481526020019081526020016000206002015410156107d957600190505b6004546001600060045481526020019081526020016000206007015460016000600454815260200190815260200160002060080154846001600060045481526020019081526020016000206004015485600160006004548152602001908152602001600020600301549850985098509850985098509850505090919293949596565b600060045490505b600081111561090d5760016000828152602001908152602001600020600080820160009055600182016000905560028201600090556003820160009055600482016000905560058201600090556006820160009055600782016000905560088201600090556009820160009055600a820160006101000a81549060ff0219169055600a820160016101000a81549060ff02191690555050808061090590612ecc565b915050610863565b5060006004819055506000600f60006101000a81548160ff021916908315150217905550565b61093b61162d565b73ffffffffffffffffffffffffffffffffffffffff16610959610f16565b73ffffffffffffffffffffffffffffffffffffffff16146109af576040517f08c379a00000000000000000000000000000000000000000000000000000000081526004016109a690612a95565b60405180910390fd5b600073ffffffffffffffffffffffffffffffffffffffff1660008054906101000a900473ffffffffffffffffffffffffffffffffffffffff1673ffffffffffffffffffffffffffffffffffffffff167f8be0079c531659141344cd1fd0a4f28419497f9722a3daafe3b4186f6b6457e060405160405180910390a360008060006101000a81548173ffffffffffffffffffffffffffffffffffffffff021916908373ffffffffffffffffffffffffffffffffffffffff160217905550565b6002602052816000526040600020602052806000526040600020600091509150508060000154908060010154908060020160009054906101000a900460ff16905083565b60045481565b600160006004548152602001908152602001600020600301544210610af05760006004549050610ae5611635565b610aee8161174a565b505b610af8611f79565b610b03600454612074565b610b42576040517f08c379a0000000000000000000000000000000000000000000000000000000008152600401610b3990612ab5565b60405180910390fd5b600a54341015610b87576040517f08c379a0000000000000000000000000000000000000000000000000000000008152600401610b7e90612a35565b60405180910390fd5b600034905060006001600060045481526020019081526020016000209050610bbc8282600601546120fd90919063ffffffff16565b8160060181905550610bdb8282600801546120fd90919063ffffffff16565b8160080181905550600060026000600454815260200190815260200160002060003373ffffffffffffffffffffffffffffffffffffffff1673ffffffffffffffffffffffffffffffffffffffff1681526020019081526020016000209050610c508382600101546120fd90919063ffffffff16565b8160010181905550600360003373ffffffffffffffffffffffffffffffffffffffff1673ffffffffffffffffffffffffffffffffffffffff16815260200190815260200160002060045490806001815401808255809150506001900390600052602060002001600090919091909150556004543373ffffffffffffffffffffffffffffffffffffffff167f0f556517e566a40b95f48e791101968aad685e8209b262ff4555585e1ced0ca385604051610d099190612b55565b60405180910390a3505050565b60085481565b6000806002600085815260200190815260200160002060008473ffffffffffffffffffffffffffffffffffffffff1673ffffffffffffffffffffffffffffffffffffffff16815260200190815260200160002060405180606001604052908160008201548152602001600182015481526020016002820160009054906101000a900460ff16151515158152505090506000600160008681526020019081526020016000206040518061018001604052908160008201548152602001600182015481526020016002820154815260200160038201548152602001600482015481526020016005820154815260200160068201548152602001600782015481526020016008820154815260200160098201548152602001600a820160009054906101000a900460ff16151515158152602001600a820160019054906101000a900460ff1615151515815250509050806101600151158015610e925750610e8f60075482606001516120fd90919063ffffffff16565b42115b9250505092915050565b600160205280600052604060002060009150905080600001549080600101549080600201549080600301549080600401549080600501549080600601549080600701549080600801549080600901549080600a0160009054906101000a900460ff169080600a0160019054906101000a900460ff1690508c565b60008060009054906101000a900473ffffffffffffffffffffffffffffffffffffffff16905090565b6000806002600085815260200190815260200160002060008473ffffffffffffffffffffffffffffffffffffffff1673ffffffffffffffffffffffffffffffffffffffff16815260200190815260200160002060405180606001604052908160008201548152602001600182015481526020016002820160009054906101000a900460ff16151515158152505090506000600160008681526020019081526020016000206040518061018001604052908160008201548152602001600182015481526020016002820154815260200160038201548152602001600482015481526020016005820154815260200160068201548152602001600782015481526020016008820154815260200160098201548152602001600a820160009054906101000a900460ff16151515158152602001600a820160019054906101000a900460ff16151515158152505090508061016001519250505092915050565b6001600060045481526020019081526020016000206003015442106110d457600060045490506110c9611635565b6110d28161174a565b505b6110dc611f79565b6110e7600454612074565b611126576040517f08c379a000000000000000000000000000000000000000000000000000000000815260040161111d90612ab5565b60405180910390fd5b600a5434101561116b576040517f08c379a000000000000000000000000000000000000000000000000000000000815260040161116290612a35565b60405180910390fd5b6000349050600060016000600454815260200190815260200160002090506111a08282600601546120fd90919063ffffffff16565b81600601819055506111bf8282600701546120fd90919063ffffffff16565b8160070181905550600060026000600454815260200190815260200160002060003373ffffffffffffffffffffffffffffffffffffffff1673ffffffffffffffffffffffffffffffffffffffff16815260200190815260200160002090506112348382600001546120fd90919063ffffffff16565b8160000181905550600360003373ffffffffffffffffffffffffffffffffffffffff1673ffffffffffffffffffffffffffffffffffffffff16815260200190815260200160002060045490806001815401808255809150506001900390600052602060002001600090919091909150556004543373ffffffffffffffffffffffffffffffffffffffff167f7a316a6afe2c00a04627818c175dc56303e329857dc0d56e1be414b8f1a64694856040516112ed9190612b55565b60405180910390a3505050565b606481565b60075481565b60065481565b6003602052816000526040600020818154811061132757600080fd5b90600052602060002001600091509150505481565b60095481565b600e5481565b60055481565b61135661162d565b73ffffffffffffffffffffffffffffffffffffffff16611374610f16565b73ffffffffffffffffffffffffffffffffffffffff16146113ca576040517f08c379a00000000000000000000000000000000000000000000000000000000081526004016113c190612a95565b60405180910390fd5b600073ffffffffffffffffffffffffffffffffffffffff168173ffffffffffffffffffffffffffffffffffffffff16141561143a576040517f08c379a000000000000000000000000000000000000000000000000000000000815260040161143190612995565b60405180910390fd5b8073ffffffffffffffffffffffffffffffffffffffff1660008054906101000a900473ffffffffffffffffffffffffffffffffffffffff1673ffffffffffffffffffffffffffffffffffffffff167f8be0079c531659141344cd1fd0a4f28419497f9722a3daafe3b4186f6b6457e060405160405180910390a3806000806101000a81548173ffffffffffffffffffffffffffffffffffffffff021916908373ffffffffffffffffffffffffffffffffffffffff16021790555050565b600f60009054906101000a900460ff1681565b600a5481565b600b60009054906101000a900473ffffffffffffffffffffffffffffffffffffffff1681565b600060016000838152602001908152602001600020905042816001018190555061156b600654426120fd90919063ffffffff16565b816002018190555061159c60065461158e600554426120fd90919063ffffffff16565b6120fd90919063ffffffff16565b81600301819055508181600001819055506000816006018190555060006130399050808260040181905550600182600a0160006101000a81548160ff021916908315150217905550827f63cedef44c605111b0e06016ea489cdfb957216ee7b334799bf7a11de89ca7e0428460030154856004015460405161162093929190612bd0565b60405180910390a2505050565b600033905090565b60016000600454815260200190815260200160002060030154421015611690576040517f08c379a0000000000000000000000000000000000000000000000000000000008152600401611687906129d5565b60405180910390fd5b6000613039905060006001600060045481526020019081526020016000209050818160050181905550600081600a0160006101000a81548160ff021916908315150217905550600181600a0160016101000a81548160ff0219169083151502179055506116fe600454612113565b6004547fb6ff1fe915db84788cbbbc017f0d2bef9485fad9fd0bd8ce9340fde0d8410dd8428360050154604051611736929190612b70565b60405180910390a2611746612310565b5050565b6000600160008381526020019081526020016000206001015414156117a4576040517f08c379a000000000000000000000000000000000000000000000000000000000815260040161179b90612b15565b60405180910390fd5b600160008281526020019081526020016000206003015442116117fc576040517f08c379a00000000000000000000000000000000000000000000000000000000081526004016117f390612a55565b60405180910390fd5b6002600082815260200190815260200160002060003373ffffffffffffffffffffffffffffffffffffffff1673ffffffffffffffffffffffffffffffffffffffff16815260200190815260200160002060020160009054906101000a900460ff161561189d576040517f08c379a000000000000000000000000000000000000000000000000000000000815260040161189490612b35565b60405180910390fd5b600060016000838152602001908152602001600020600a0160019054906101000a900460ff1615611d95576118d28233610f3f565b611911576040517f08c379a0000000000000000000000000000000000000000000000000000000008152600401611908906129b5565b60405180910390fd5b6000600160008481526020019081526020016000206040518061018001604052908160008201548152602001600182015481526020016002820154815260200160038201548152602001600482015481526020016005820154815260200160068201548152602001600782015481526020016008820154815260200160098201548152602001600a820160009054906101000a900460ff16151515158152602001600a820160019054906101000a900460ff161515151581525050905060006119fc60646119ee6008548560c001516123dc90919063ffffffff16565b6123f290919063ffffffff16565b905081608001518260a001511315611aef5760006002600086815260200190815260200160002060003373ffffffffffffffffffffffffffffffffffffffff1673ffffffffffffffffffffffffffffffffffffffff168152602001908152602001600020600001541115611aea57611ae7826101200151611ad9836002600089815260200190815260200160002060003373ffffffffffffffffffffffffffffffffffffffff1673ffffffffffffffffffffffffffffffffffffffff168152602001908152602001600020600001546123dc90919063ffffffff16565b6123f290919063ffffffff16565b92505b611d8e565b81608001518260a001511215611be05760006002600086815260200190815260200160002060003373ffffffffffffffffffffffffffffffffffffffff1673ffffffffffffffffffffffffffffffffffffffff168152602001908152602001600020600101541115611bdb57611bd8826101200151611bca836002600089815260200190815260200160002060003373ffffffffffffffffffffffffffffffffffffffff1673ffffffffffffffffffffffffffffffffffffffff168152602001908152602001600020600101546123dc90919063ffffffff16565b6123f290919063ffffffff16565b92505b611d8d565b6000611c9b6002600087815260200190815260200160002060003373ffffffffffffffffffffffffffffffffffffffff1673ffffffffffffffffffffffffffffffffffffffff168152602001908152602001600020600001546002600088815260200190815260200160002060003373ffffffffffffffffffffffffffffffffffffffff1673ffffffffffffffffffffffffffffffffffffffff168152602001908152602001600020600101546120fd90919063ffffffff16565b1115611d8c576000611d5c6002600087815260200190815260200160002060003373ffffffffffffffffffffffffffffffffffffffff1673ffffffffffffffffffffffffffffffffffffffff168152602001908152602001600020600001546002600088815260200190815260200160002060003373ffffffffffffffffffffffffffffffffffffffff1673ffffffffffffffffffffffffffffffffffffffff168152602001908152602001600020600101546120fd90919063ffffffff16565b9050611d88836101200151611d7a84846123dc90919063ffffffff16565b6123f290919063ffffffff16565b9350505b5b5b5050611ea0565b611d9f8233610d1c565b611dde576040517f08c379a0000000000000000000000000000000000000000000000000000000008152600401611dd590612955565b60405180910390fd5b6000611e996002600085815260200190815260200160002060003373ffffffffffffffffffffffffffffffffffffffff1673ffffffffffffffffffffffffffffffffffffffff168152602001908152602001600020600001546002600086815260200190815260200160002060003373ffffffffffffffffffffffffffffffffffffffff1673ffffffffffffffffffffffffffffffffffffffff168152602001908152602001600020600101546120fd90919063ffffffff16565b9050809150505b60006002600084815260200190815260200160002060003373ffffffffffffffffffffffffffffffffffffffff1673ffffffffffffffffffffffffffffffffffffffff168152602001908152602001600020905060018160020160006101000a81548160ff0219169083151502179055506000821115611f2557611f243383612408565b5b823373ffffffffffffffffffffffffffffffffffffffff167f34fcbac0073d7c3d388e51312faf357774904998eeb8fca628b9e6f65ee1cbf784604051611f6c9190612b55565b60405180910390a3505050565b60006001600060045481526020019081526020016000209050600081600701541480611fa9575060008160080154145b8015611fb85750806002015442115b1561207157611fd2600654426120fd90919063ffffffff16565b8160020181905550611ffc600654600554611fed9190612d83565b426120fd90919063ffffffff16565b81600301819055506004548160000181905550600181600a0160006101000a81548160ff0219169083151502179055506004547f47b762ac638c22adad7e31842ba484d28b5750a7e7bdceb1f66c1687b2c1feef82600101548360040154604051612068929190612b70565b60405180910390a25b50565b6000806001600084815260200190815260200160002060010154141580156120b357506000600160008481526020019081526020016000206002015414155b80156120d5575060016000838152602001908152602001600020600101544210155b80156120f65750600160008381526020019081526020016000206002015442105b9050919050565b6000818361210b9190612d83565b905092915050565b606461212c6009546008546120fd90919063ffffffff16565b1461216c576040517f08c379a000000000000000000000000000000000000000000000000000000000815260040161216390612a75565b60405180910390fd5b60006001600083815260200190815260200160002060090154146121c5576040517f08c379a00000000000000000000000000000000000000000000000000000000081526004016121bc90612a15565b60405180910390fd5b6000600160008381526020019081526020016000209050600080600061220d60646121ff60085487600601546123dc90919063ffffffff16565b6123f290919063ffffffff16565b915061223b606461222d60095487600601546123dc90919063ffffffff16565b6123f290919063ffffffff16565b9050836004015484600501541315612259578360070154925061227e565b836004015484600501541215612275578360080154925061227d565b836006015492505b5b82846009018190555061229c81600c546120fd90919063ffffffff16565b600c81905550847f6dfdfcb09c8804d0058826cd2539f1acfbe3cb887c9be03d928035bce0f1a58d846122f160646122e36008548a600601546123dc90919063ffffffff16565b6123f290919063ffffffff16565b8460405161230193929190612c07565b60405180910390a25050505050565b600f60009054906101000a900460ff1661235f576040517f08c379a000000000000000000000000000000000000000000000000000000000815260040161235690612975565b60405180910390fd5b600160006004548152602001908152602001600020600301544210156123ba576040517f08c379a00000000000000000000000000000000000000000000000000000000081526004016123b1906129f5565b60405180910390fd5b60016004546123c99190612d83565b6004819055506123da600454611536565b565b600081836123ea9190612e0a565b905092915050565b600081836124009190612dd9565b905092915050565b60008273ffffffffffffffffffffffffffffffffffffffff166159d8836040516124319061290a565b600060405180830381858888f193505050503d806000811461246f576040519150601f19603f3d011682016040523d82523d6000602084013e612474565b606091505b50509050806124b8576040517f08c379a00000000000000000000000000000000000000000000000000000000081526004016124af90612af5565b60405180910390fd5b505050565b6000813590506124cc816132f6565b92915050565b6000815190506124e18161330d565b92915050565b6000813590506124f681613324565b92915050565b60008151905061250b81613324565b92915050565b6000815190506125208161333b565b92915050565b60006020828403121561253c5761253b612f54565b5b600061254a848285016124bd565b91505092915050565b6000806040838503121561256a57612569612f54565b5b6000612578858286016124bd565b9250506020612589858286016124e7565b9150509250929050565b6000602082840312156125a9576125a8612f54565b5b60006125b7848285016124e7565b91505092915050565b600080604083850312156125d7576125d6612f54565b5b60006125e5858286016124e7565b92505060206125f6858286016124bd565b9150509250929050565b600080600080600060a0868803121561261c5761261b612f54565b5b600061262a88828901612511565b955050602061263b888289016124d2565b945050604061264c888289016124fc565b935050606061265d888289016124fc565b925050608061266e88828901612511565b9150509295509295909350565b61268481612e64565b82525050565b61269381612e76565b82525050565b6126a281612e82565b82525050565b60006126b5601783612d72565b91506126c082612f59565b602082019050919050565b60006126d8603183612d72565b91506126e382612f82565b604082019050919050565b60006126fb602683612d72565b915061270682612fd1565b604082019050919050565b600061271e601683612d72565b915061272982613020565b602082019050919050565b6000612741602083612d72565b915061274c82613049565b602082019050919050565b6000612764603083612d72565b915061276f82613072565b604082019050919050565b6000612787601283612d72565b9150612792826130c1565b602082019050919050565b60006127aa602c83612d72565b91506127b5826130ea565b604082019050919050565b60006127cd601383612d72565b91506127d882613139565b602082019050919050565b60006127f0603583612d72565b91506127fb82613162565b604082019050919050565b6000612813602083612d72565b915061281e826131b1565b602082019050919050565b6000612836601283612d72565b9150612841826131da565b602082019050919050565b6000612859602383612d72565b915061286482613203565b604082019050919050565b600061287c602383612d72565b915061288782613252565b604082019050919050565b600061289f600083612d67565b91506128aa826132a1565b600082019050919050565b60006128c2601583612d72565b91506128cd826132a4565b602082019050919050565b60006128e5600f83612d72565b91506128f0826132cd565b602082019050919050565b61290481612eac565b82525050565b600061291582612892565b9150819050919050565b6000602082019050612934600083018461267b565b92915050565b600060208201905061294f600083018461268a565b92915050565b6000602082019050818103600083015261296e816126a8565b9050919050565b6000602082019050818103600083015261298e816126cb565b9050919050565b600060208201905081810360008301526129ae816126ee565b9050919050565b600060208201905081810360008301526129ce81612711565b9050919050565b600060208201905081810360008301526129ee81612734565b9050919050565b60006020820190508181036000830152612a0e81612757565b9050919050565b60006020820190508181036000830152612a2e8161277a565b9050919050565b60006020820190508181036000830152612a4e8161279d565b9050919050565b60006020820190508181036000830152612a6e816127c0565b9050919050565b60006020820190508181036000830152612a8e816127e3565b9050919050565b60006020820190508181036000830152612aae81612806565b9050919050565b60006020820190508181036000830152612ace81612829565b9050919050565b60006020820190508181036000830152612aee8161284c565b9050919050565b60006020820190508181036000830152612b0e8161286f565b9050919050565b60006020820190508181036000830152612b2e816128b5565b9050919050565b60006020820190508181036000830152612b4e816128d8565b9050919050565b6000602082019050612b6a60008301846128fb565b92915050565b6000604082019050612b8560008301856128fb565b612b926020830184612699565b9392505050565b6000606082019050612bae60008301866128fb565b612bbb60208301856128fb565b612bc8604083018461268a565b949350505050565b6000606082019050612be560008301866128fb565b612bf260208301856128fb565b612bff6040830184612699565b949350505050565b6000606082019050612c1c60008301866128fb565b612c2960208301856128fb565b612c3660408301846128fb565b949350505050565b600060e082019050612c53600083018a6128fb565b612c6060208301896128fb565b612c6d60408301886128fb565b612c7a6060830187612699565b612c876080830186612699565b612c9460a083018561268a565b612ca160c08301846128fb565b98975050505050505050565b600061018082019050612cc3600083018f6128fb565b612cd0602083018e6128fb565b612cdd604083018d6128fb565b612cea606083018c6128fb565b612cf7608083018b612699565b612d0460a083018a612699565b612d1160c08301896128fb565b612d1e60e08301886128fb565b612d2c6101008301876128fb565b612d3a6101208301866128fb565b612d4861014083018561268a565b612d5661016083018461268a565b9d9c50505050505050505050505050565b600081905092915050565b600082825260208201905092915050565b6000612d8e82612eac565b9150612d9983612eac565b9250827fffffffffffffffffffffffffffffffffffffffffffffffffffffffffffffffff03821115612dce57612dcd612ef6565b5b828201905092915050565b6000612de482612eac565b9150612def83612eac565b925082612dff57612dfe612f25565b5b828204905092915050565b6000612e1582612eac565b9150612e2083612eac565b9250817fffffffffffffffffffffffffffffffffffffffffffffffffffffffffffffffff0483118215151615612e5957612e58612ef6565b5b828202905092915050565b6000612e6f82612e8c565b9050919050565b60008115159050919050565b6000819050919050565b600073ffffffffffffffffffffffffffffffffffffffff82169050919050565b6000819050919050565b600069ffffffffffffffffffff82169050919050565b6000612ed782612eac565b91506000821415612eeb57612eea612ef6565b5b600182039050919050565b7f4e487b7100000000000000000000000000000000000000000000000000000000600052601160045260246000fd5b7f4e487b7100000000000000000000000000000000000000000000000000000000600052601260045260246000fd5b600080fd5b7f4e6f7420656c696769626c6520666f7220726566756e64000000000000000000600082015250565b7f43616e206f6e6c792072756e2061667465722067656e6573697353746172745260008201527f6f756e6420697320747269676765726564000000000000000000000000000000602082015250565b7f4f776e61626c653a206e6577206f776e657220697320746865207a65726f206160008201527f6464726573730000000000000000000000000000000000000000000000000000602082015250565b7f4e6f7420656c696769626c6520666f7220636c61696d00000000000000000000600082015250565b7f43616e206f6e6c7920656e6420726f756e6420616674657220656e6454696d65600082015250565b7f43616e206f6e6c79207374617274206e657720726f756e64206166746572207260008201527f6f756e64206e2d3120656e6454696d6500000000000000000000000000000000602082015250565b7f526577617264732063616c63756c617465640000000000000000000000000000600082015250565b7f42657420616d6f756e74206d7573742062652067726561746572207468616e2060008201527f6d696e426574416d6f756e740000000000000000000000000000000000000000602082015250565b7f526f756e6420686173206e6f7420656e64656400000000000000000000000000600082015250565b7f7265776172645261746520616e6420747265617375727952617465206d75737460008201527f2061646420757020746f20544f54414c5f524154450000000000000000000000602082015250565b7f4f776e61626c653a2063616c6c6572206973206e6f7420746865206f776e6572600082015250565b7f526f756e64206e6f74206265747461626c650000000000000000000000000000600082015250565b7f43616e206f6e6c792072756e2067656e657369735374617274526f756e64206f60008201527f6e63650000000000000000000000000000000000000000000000000000000000602082015250565b7f5472616e7366657248656c7065723a20424e425f5452414e534645525f46414960008201527f4c45440000000000000000000000000000000000000000000000000000000000602082015250565b50565b7f526f756e6420686173206e6f7420737461727465640000000000000000000000600082015250565b7f5265776172647320636c61696d65640000000000000000000000000000000000600082015250565b6132ff81612e64565b811461330a57600080fd5b50565b61331681612e82565b811461332157600080fd5b50565b61332d81612eac565b811461333857600080fd5b50565b61334481612eb6565b811461334f57600080fd5b5056fea264697066735822122046a70cf2a8fd6b7e1d87a6bd242ff853ea01270853bd80a77d41eac09678dd3364736f6c63430008060033",
  "immutableReferences": {},
  "source": "// SPDX-License-Identifier: MIT\npragma solidity ^0.8.0;\n\nimport \"@openzeppelin/contracts/access/Ownable.sol\";\nimport \"@openzeppelin/contracts/utils/math/SafeMath.sol\";\nimport \"@chainlink/contracts/src/v0.8/interfaces/AggregatorV3Interface.sol\";\n\ncontract BnbTest is Ownable {\n    using SafeMath for uint256;\n    enum Position {Up, Down}\n    struct Round {\n        uint256 epoch;\n        uint256 startTime;\n        uint256 lockTime;\n        uint256 endTime;\n        int256 startPrice;\n        int256 closePrice;\n        uint256 totalAmount;\n        uint256 upAmount;\n        uint256 downAmount;\n        uint256 rewardBaseCalAmount;\n        bool status;\n        bool oracleCalled;\n    }\n    struct BetInfo {\n        uint256 upAmount;\n        uint256 downAmount;\n        bool claimed; // default false\n    }\n\n    mapping(uint256 => Round) public rounds;\n    mapping(uint256 => mapping(address => BetInfo)) public ledger;\n    mapping(address => uint256[]) public userRounds;\n    uint256 public currentEpoch;\n    uint256 public roundTime = 60;\n    uint256 public betTime = 15;\n    uint256 public bufferTime = 2;\n    uint256 public constant TOTAL_RATE = 100; // 100%\n    uint256 public rewardRate = 96; // 96%\n    uint256 public treasuryRate = 4; // 4%\n    uint256 public minBetAmount = 0;\n\n    address public adminAddress;\n    uint256 public treasuryAmount;\n    AggregatorV3Interface internal oracle;\n    uint256 public oracleLatestRoundId;    \n\n    bool public genesisStartOnce = false;\n    bool public genesisLockOnce = false;\n\n    event StartRound(uint256 indexed epoch, uint256 startTime, uint256 endTime, int256 price);\n    event EndRound(uint256 indexed epoch, uint256 blockTime, int256 price);\n    event ResetRound(uint256 indexed epoch, uint256 startTime, int256 price);\n\n    event BetUp(address indexed sender, uint256 indexed currentEpoch, uint256 amount);\n    event BetDown(address indexed sender, uint256 indexed currentEpoch, uint256 amount);\n\n    event BetTest(uint256 blocktimestamp, uint256 roundendTime, uint256 indexed currentEpoch);\n\n    event Claim(address indexed sender, uint256 indexed currentEpoch, uint256 amount);\n    event ClaimTreasury(uint256 amount);\n    event RewardsCalculated(\n        uint256 indexed epoch,\n        uint256 rewardBaseCalAmount,\n        uint256 rewardAmount,\n        uint256 treasuryAmount\n    );\n\n    constructor() {\n        oracle = AggregatorV3Interface(0x2514895c72f50D8bd4B4F9b1110F0D6bD2c97526);\n        adminAddress = _msgSender();       \n    }\n\n    /**\n     * @dev Start genesis round\n     */\n    function genesisStartRound() external {\n        require(!genesisStartOnce, \"Can only run genesisStartRound once\");\n        currentEpoch = currentEpoch + 1;\n        _startRound(currentEpoch);\n        genesisStartOnce = true;\n    }\n\n    /**\n     * @dev Start round     \n     */\n    function _safeStartRound() internal {\n        require(genesisStartOnce, \"Can only run after genesisStartRound is triggered\");\n        require(block.timestamp >= rounds[currentEpoch].endTime, \"Can only start new round after round n-1 endTime\");\n        currentEpoch = currentEpoch + 1;\n        _startRound(currentEpoch);\n    }\n\n    function _startRound(uint256 epoch) internal {\n        Round storage round = rounds[epoch];\n        round.startTime = block.timestamp;\n        round.lockTime = block.timestamp.add(betTime);\n        round.endTime = block.timestamp.add(roundTime).add(betTime);\n        round.epoch = epoch;\n        round.totalAmount = 0;\n        int256 currentPrice = 12345;\n        // int256 currentPrice = 12345;\n        round.startPrice = currentPrice;\n        round.status = true;\n\n        emit StartRound(epoch, block.timestamp, round.endTime, round.startPrice);\n    }\n\n    function getStatus() external view returns (uint256, uint256, uint256, int256, int256, bool, uint256) {\n        require(genesisStartOnce, \"Can only run after genesisStartRound is triggered\");\n        ( , int256 price, , , ) = oracle.latestRoundData();   \n        bool roundStatus = false;\n        if(rounds[currentEpoch].lockTime < block.timestamp) roundStatus = true;  \n        return (\n                currentEpoch,\n                rounds[currentEpoch].upAmount,\n                rounds[currentEpoch].downAmount,\n                price,\n                rounds[currentEpoch].startPrice,\n                roundStatus,\n                rounds[currentEpoch].endTime\n            );\n    }\n\n    /**\n     * @dev End round\n     */\n    function _safeEndRound() internal {\n        require(block.timestamp >= rounds[currentEpoch].endTime, \"Can only end round after endTime\");\n        int256 currentPrice = 12345;\n        Round storage round = rounds[currentEpoch];\n        round.closePrice = currentPrice;\n        round.status = false;\n        round.oracleCalled = true;\n        _calculateRewards(currentEpoch);\n\n        emit EndRound(currentEpoch, block.timestamp, round.closePrice);\n\n        _safeStartRound();\n    }   \n\n    /**\n     * @dev Bet bear position\n     */\n    function betDown() external payable {\n        if(block.timestamp >= rounds[currentEpoch].endTime) {\n            uint256 tempCurrentEpoch = currentEpoch;\n            _safeEndRound();\n            claim(tempCurrentEpoch);\n        }\n        _checkRound();\n        require(_bettable(currentEpoch), \"Round not bettable\");\n        require(msg.value >= minBetAmount, \"Bet amount must be greater than minBetAmount\");\n        // require(ledger[currentEpoch][msg.sender].amount == 0, \"Can only bet once per round\");\n\n        // Update round data\n        uint256 amount = msg.value;\n        Round storage round = rounds[currentEpoch];\n        round.totalAmount = round.totalAmount.add(amount);\n        round.downAmount = round.downAmount.add(amount);\n\n        // Update user data\n        BetInfo storage betInfo = ledger[currentEpoch][msg.sender];\n        // betInfo.position = Position.Down;\n        betInfo.downAmount = betInfo.downAmount.add(amount);\n        userRounds[msg.sender].push(currentEpoch);\n\n        emit BetDown(msg.sender, currentEpoch, amount);\n    }\n\n    /**\n     * @dev Bet bull position\n     */\n    function betUp() external payable {\n        if(block.timestamp >= rounds[currentEpoch].endTime) {\n            uint256 tempCurrentEpoch = currentEpoch;\n            _safeEndRound();\n            claim(tempCurrentEpoch);\n        }  \n        _checkRound();      \n        require(_bettable(currentEpoch), \"Round not bettable\");\n        require(msg.value >= minBetAmount, \"Bet amount must be greater than minBetAmount\");\n        // require(ledger[currentEpoch][msg.sender].amount == 0, \"Can only bet once per round\");\n\n        // Update round data\n        uint256 amount = msg.value;\n        Round storage round = rounds[currentEpoch];\n        round.totalAmount = round.totalAmount.add(amount);\n        round.upAmount = round.upAmount.add(amount);\n\n        // Update user data\n        BetInfo storage betInfo = ledger[currentEpoch][msg.sender];\n        // betInfo.position = Position.Up;\n        betInfo.upAmount = betInfo.upAmount.add(amount);\n        userRounds[msg.sender].push(currentEpoch);\n\n        emit BetUp(msg.sender, currentEpoch, amount);\n    }\n\n     function _checkRound() internal {\n        Round storage round = rounds[currentEpoch];\n        if((round.upAmount == 0 || round.downAmount == 0) && block.timestamp > round.lockTime) {        \n            round.lockTime = block.timestamp.add(betTime);\n            round.endTime = block.timestamp.add(roundTime + betTime);\n            round.epoch = currentEpoch;\n            round.status = true;\n\n            emit ResetRound(currentEpoch, round.startTime, round.startPrice);\n        }\n    }\n\n    function stopRound() external {\n        for(uint i = currentEpoch; i > 0; i--){\n            delete rounds[i];\n        }\n        currentEpoch = 0;\n        genesisStartOnce = false;\n    }\n\n    /**\n     * @dev Claim reward\n     */\n    function claim(uint256 epoch) internal {\n        require(rounds[epoch].startTime != 0, \"Round has not started\");\n        require(block.timestamp > rounds[epoch].endTime, \"Round has not ended\");\n        require(!ledger[epoch][msg.sender].claimed, \"Rewards claimed\");\n\n        uint256 reward = 0;     \n        // Round valid, claim rewards      \n        if (rounds[epoch].oracleCalled) {\n            require(claimable(epoch, msg.sender), \"Not eligible for claim\");\n            Round memory round = rounds[epoch];\n            uint256 rewardAmount = round.totalAmount.mul(rewardRate).div(TOTAL_RATE);\n            if(round.closePrice > round.startPrice) {\n                if (ledger[epoch][msg.sender].upAmount > 0) {\n                    reward = ledger[epoch][msg.sender].upAmount.mul(rewardAmount).div(round.rewardBaseCalAmount);\n                }               \n            }\n            else if (round.closePrice < round.startPrice) {\n                if (ledger[epoch][msg.sender].downAmount > 0) {\n                    reward = ledger[epoch][msg.sender].downAmount.mul(rewardAmount).div(round.rewardBaseCalAmount);\n                }               \n            }\n            else {\n                if (ledger[epoch][msg.sender].downAmount.add(ledger[epoch][msg.sender].upAmount) > 0) {\n                    uint256 totalBet = ledger[epoch][msg.sender].downAmount.add(ledger[epoch][msg.sender].upAmount);\n                    // emit BetTest(rewardAmount, totalBet, epoch);\n                    reward = totalBet.mul(rewardAmount).div(round.rewardBaseCalAmount);\n                }                \n            }          \n        }\n        // Round invalid, refund bet amount\n        else {\n            require(refundable(epoch, msg.sender), \"Not eligible for refund\");\n            uint256 totalBet = ledger[epoch][msg.sender].downAmount.add(ledger[epoch][msg.sender].upAmount);\n            reward = totalBet;\n        }\n\n        BetInfo storage betInfo = ledger[epoch][msg.sender];\n        betInfo.claimed = true;\n        if(reward > 0) {\n            _safeTransferBNB(address(msg.sender), reward);\n        }\n\n        emit Claim(msg.sender, epoch, reward);\n    }\n\n    /**\n     * @dev Claim all rewards in treasury\n     * callable by admin\n     */\n    function claimTreasury() internal {\n        uint256 currentTreasuryAmount = treasuryAmount;\n        treasuryAmount = 0;\n        _safeTransferBNB(adminAddress, currentTreasuryAmount);\n\n        // emit ClaimTreasury(currentTreasuryAmount);\n    }\n   \n    /**\n     * @dev Get the claimable stats of specific epoch and user account\n     */\n    function claimable(uint256 epoch, address user) public view returns (bool) {\n        BetInfo memory betInfo = ledger[epoch][user];\n        Round memory round = rounds[epoch];      \n        return round.oracleCalled;\n    }\n\n    /**\n     * @dev Get the refundable stats of specific epoch and user account\n     */\n    function refundable(uint256 epoch, address user) public view returns (bool) {\n        BetInfo memory betInfo = ledger[epoch][user];\n        Round memory round = rounds[epoch];\n        return !round.oracleCalled && block.timestamp > round.endTime.add(bufferTime);\n    }   \n\n    /**\n     * @dev Calculate rewards for round\n     */\n    function _calculateRewards(uint256 epoch) internal {\n        require(rewardRate.add(treasuryRate) == TOTAL_RATE, \"rewardRate and treasuryRate must add up to TOTAL_RATE\");\n        require(rounds[epoch].rewardBaseCalAmount == 0, \"Rewards calculated\");\n        Round storage round = rounds[epoch];\n        uint256 rewardBaseCalAmount;\n        uint256 rewardAmount;\n        uint256 treasuryAmt;\n\n        rewardAmount = round.totalAmount.mul(rewardRate).div(TOTAL_RATE);\n        treasuryAmt = round.totalAmount.mul(treasuryRate).div(TOTAL_RATE);\n        // Up wins\n        if (round.closePrice > round.startPrice) {\n            rewardBaseCalAmount = round.upAmount;\n        }\n        // Down wins\n        else if (round.closePrice < round.startPrice) {\n            rewardBaseCalAmount = round.downAmount;\n        }\n        // House wins\n        else {\n            rewardBaseCalAmount = round.totalAmount;\n        }\n        round.rewardBaseCalAmount = rewardBaseCalAmount;\n\n        // Add to treasury\n        treasuryAmount = treasuryAmount.add(treasuryAmt);\n\n        emit RewardsCalculated(epoch, rewardBaseCalAmount, round.totalAmount.mul(rewardRate).div(TOTAL_RATE), treasuryAmt);\n    }\n\n    /**\n     * @dev Get latest recorded price from oracle\n     * If it falls below allowed buffer or has not updated, it would be invalid\n     */\n    function _getPriceFromOracle() internal returns (int256) {\n        (uint80 roundId, int256 price, , uint256 timestamp, ) = oracle.latestRoundData();\n        oracleLatestRoundId = uint256(roundId);\n        return price;\n    }\n\n    function _safeTransferBNB(address to, uint256 value) internal {\n        (bool success, ) = to.call{gas: 23000, value: value}(\"\");\n        require(success, \"TransferHelper: BNB_TRANSFER_FAILED\");\n    }\n   \n    /**\n     * @dev Determine if a round is valid for receiving bets\n     * Round must have started and locked\n     * Current time must be within startTime and endTime\n     */\n    function _bettable(uint256 epoch) internal view returns (bool) {\n        return\n            rounds[epoch].startTime != 0 &&\n            rounds[epoch].lockTime != 0 &&\n            block.timestamp >= rounds[epoch].startTime &&\n            block.timestamp < rounds[epoch].lockTime;\n    }\n}",
  "sourcePath": "/home/seagod/Seagod/test/bnb_prediction_bet/contracts/BnbTest.sol",
  "compiler": {
    "name": "solc",
    "version": "0.8.6+commit.11564f7e.Emscripten.clang"
  },
  "schemaVersion": "3.4.1",
  "updatedAt": "2021-07-02T13:22:01.735Z",
  "devdoc": {
    "kind": "dev",
    "methods": {
      "betDown()": {
        "details": "Bet bear position"
      },
      "betUp()": {
        "details": "Bet bull position"
      },
      "claimable(uint256,address)": {
        "details": "Get the claimable stats of specific epoch and user account"
      },
      "genesisStartRound()": {
        "details": "Start genesis round"
      },
      "owner()": {
        "details": "Returns the address of the current owner."
      },
      "refundable(uint256,address)": {
        "details": "Get the refundable stats of specific epoch and user account"
      },
      "renounceOwnership()": {
        "details": "Leaves the contract without owner. It will not be possible to call `onlyOwner` functions anymore. Can only be called by the current owner. NOTE: Renouncing ownership will leave the contract without an owner, thereby removing any functionality that is only available to the owner."
      },
      "transferOwnership(address)": {
        "details": "Transfers ownership of the contract to a new account (`newOwner`). Can only be called by the current owner."
      }
    },
    "version": 1
  },
  "userdoc": {
    "kind": "user",
    "methods": {},
    "version": 1
  }
}